{
	"contracts/MetaRelayer.sol": {
		"MetaRelayer": {
			"abi": [
				{
					"inputs": [
						{
							"internalType": "address",
							"name": "relayer",
							"type": "address"
						},
						{
							"internalType": "uint256",
							"name": "baseFunds",
							"type": "uint256"
						}
					],
					"stateMutability": "payable",
					"type": "constructor"
				},
				{
					"anonymous": false,
					"inputs": [
						{
							"indexed": true,
							"internalType": "bytes32",
							"name": "role",
							"type": "bytes32"
						},
						{
							"indexed": true,
							"internalType": "bytes32",
							"name": "previousAdminRole",
							"type": "bytes32"
						},
						{
							"indexed": true,
							"internalType": "bytes32",
							"name": "newAdminRole",
							"type": "bytes32"
						}
					],
					"name": "RoleAdminChanged",
					"type": "event"
				},
				{
					"anonymous": false,
					"inputs": [
						{
							"indexed": true,
							"internalType": "bytes32",
							"name": "role",
							"type": "bytes32"
						},
						{
							"indexed": true,
							"internalType": "address",
							"name": "account",
							"type": "address"
						},
						{
							"indexed": true,
							"internalType": "address",
							"name": "sender",
							"type": "address"
						}
					],
					"name": "RoleGranted",
					"type": "event"
				},
				{
					"anonymous": false,
					"inputs": [
						{
							"indexed": true,
							"internalType": "bytes32",
							"name": "role",
							"type": "bytes32"
						},
						{
							"indexed": true,
							"internalType": "address",
							"name": "account",
							"type": "address"
						},
						{
							"indexed": true,
							"internalType": "address",
							"name": "sender",
							"type": "address"
						}
					],
					"name": "RoleRevoked",
					"type": "event"
				},
				{
					"inputs": [],
					"name": "DEFAULT_ADMIN_ROLE",
					"outputs": [
						{
							"internalType": "bytes32",
							"name": "",
							"type": "bytes32"
						}
					],
					"stateMutability": "view",
					"type": "function"
				},
				{
					"inputs": [],
					"name": "RELAYER",
					"outputs": [
						{
							"internalType": "bytes32",
							"name": "",
							"type": "bytes32"
						}
					],
					"stateMutability": "view",
					"type": "function"
				},
				{
					"inputs": [
						{
							"internalType": "bytes32",
							"name": "role",
							"type": "bytes32"
						}
					],
					"name": "getRoleAdmin",
					"outputs": [
						{
							"internalType": "bytes32",
							"name": "",
							"type": "bytes32"
						}
					],
					"stateMutability": "view",
					"type": "function"
				},
				{
					"inputs": [
						{
							"internalType": "bytes32",
							"name": "role",
							"type": "bytes32"
						},
						{
							"internalType": "address",
							"name": "account",
							"type": "address"
						}
					],
					"name": "grantRole",
					"outputs": [],
					"stateMutability": "nonpayable",
					"type": "function"
				},
				{
					"inputs": [
						{
							"internalType": "bytes32",
							"name": "role",
							"type": "bytes32"
						},
						{
							"internalType": "address",
							"name": "account",
							"type": "address"
						}
					],
					"name": "hasRole",
					"outputs": [
						{
							"internalType": "bool",
							"name": "",
							"type": "bool"
						}
					],
					"stateMutability": "view",
					"type": "function"
				},
				{
					"inputs": [
						{
							"internalType": "bytes32",
							"name": "role",
							"type": "bytes32"
						},
						{
							"internalType": "address",
							"name": "account",
							"type": "address"
						}
					],
					"name": "renounceRole",
					"outputs": [],
					"stateMutability": "nonpayable",
					"type": "function"
				},
				{
					"inputs": [
						{
							"internalType": "bytes32",
							"name": "role",
							"type": "bytes32"
						},
						{
							"internalType": "address",
							"name": "account",
							"type": "address"
						}
					],
					"name": "revokeRole",
					"outputs": [],
					"stateMutability": "nonpayable",
					"type": "function"
				},
				{
					"inputs": [
						{
							"internalType": "address",
							"name": "target",
							"type": "address"
						},
						{
							"internalType": "bytes",
							"name": "data",
							"type": "bytes"
						}
					],
					"name": "send",
					"outputs": [
						{
							"internalType": "bool",
							"name": "",
							"type": "bool"
						}
					],
					"stateMutability": "payable",
					"type": "function"
				},
				{
					"inputs": [
						{
							"internalType": "address[]",
							"name": "targets",
							"type": "address[]"
						},
						{
							"internalType": "bytes[]",
							"name": "data",
							"type": "bytes[]"
						},
						{
							"internalType": "uint256[]",
							"name": "values",
							"type": "uint256[]"
						}
					],
					"name": "sendBatch",
					"outputs": [
						{
							"internalType": "bool[]",
							"name": "",
							"type": "bool[]"
						}
					],
					"stateMutability": "payable",
					"type": "function"
				},
				{
					"inputs": [
						{
							"internalType": "bytes4",
							"name": "interfaceId",
							"type": "bytes4"
						}
					],
					"name": "supportsInterface",
					"outputs": [
						{
							"internalType": "bool",
							"name": "",
							"type": "bool"
						}
					],
					"stateMutability": "view",
					"type": "function"
				}
			],
			"devdoc": {
				"events": {
					"RoleAdminChanged(bytes32,bytes32,bytes32)": {
						"details": "Emitted when `newAdminRole` is set as ``role``'s admin role, replacing `previousAdminRole` `DEFAULT_ADMIN_ROLE` is the starting admin for all roles, despite {RoleAdminChanged} not being emitted signaling this. _Available since v3.1._"
					},
					"RoleGranted(bytes32,address,address)": {
						"details": "Emitted when `account` is granted `role`. `sender` is the account that originated the contract call, an admin role bearer except when using {AccessControl-_setupRole}."
					},
					"RoleRevoked(bytes32,address,address)": {
						"details": "Emitted when `account` is revoked `role`. `sender` is the account that originated the contract call:   - if using `revokeRole`, it is the admin role bearer   - if using `renounceRole`, it is the role bearer (i.e. `account`)"
					}
				},
				"kind": "dev",
				"methods": {
					"getRoleAdmin(bytes32)": {
						"details": "Returns the admin role that controls `role`. See {grantRole} and {revokeRole}. To change a role's admin, use {_setRoleAdmin}."
					},
					"grantRole(bytes32,address)": {
						"details": "Grants `role` to `account`. If `account` had not been already granted `role`, emits a {RoleGranted} event. Requirements: - the caller must have ``role``'s admin role. May emit a {RoleGranted} event."
					},
					"hasRole(bytes32,address)": {
						"details": "Returns `true` if `account` has been granted `role`."
					},
					"renounceRole(bytes32,address)": {
						"details": "Revokes `role` from the calling account. Roles are often managed via {grantRole} and {revokeRole}: this function's purpose is to provide a mechanism for accounts to lose their privileges if they are compromised (such as when a trusted device is misplaced). If the calling account had been revoked `role`, emits a {RoleRevoked} event. Requirements: - the caller must be `account`. May emit a {RoleRevoked} event."
					},
					"revokeRole(bytes32,address)": {
						"details": "Revokes `role` from `account`. If `account` had been granted `role`, emits a {RoleRevoked} event. Requirements: - the caller must have ``role``'s admin role. May emit a {RoleRevoked} event."
					},
					"supportsInterface(bytes4)": {
						"details": "See {IERC165-supportsInterface}."
					}
				},
				"version": 1
			},
			"evm": {
				"assembly": "    /* \"contracts/MetaRelayer.sol\":117:1776  contract MetaRelayer is AccessControl {... */\n  mstore(0x40, 0x80)\n    /* \"contracts/MetaRelayer.sol\":237:496  constructor(address relayer, uint baseFunds) payable {... */\n  mload(0x40)\n  sub(codesize, bytecodeSize)\n  dup1\n  bytecodeSize\n  dup4\n  codecopy\n  dup2\n  dup2\n  add\n  0x40\n  mstore\n  dup2\n  add\n  swap1\n  tag_1\n  swap2\n  swap1\n  tag_2\n  jump\t// in\ntag_1:\n    /* \"contracts/MetaRelayer.sol\":309:318  baseFunds */\n  dup1\n    /* \"contracts/MetaRelayer.sol\":296:306  _baseFunds */\n  0x01\n    /* \"contracts/MetaRelayer.sol\":296:318  _baseFunds = baseFunds */\n  dup2\n  swap1\n  sstore\n  pop\n    /* \"contracts/MetaRelayer.sol\":325:367  _grantRole(DEFAULT_ADMIN_ROLE, msg.sender) */\n  tag_5\n    /* \"@openzeppelin/contracts/access/AccessControl.sol\":2198:2202  0x00 */\n  0x00\n    /* \"contracts/MetaRelayer.sol\":336:354  DEFAULT_ADMIN_ROLE */\n  dup1\n  shl\n    /* \"contracts/MetaRelayer.sol\":356:366  msg.sender */\n  caller\n    /* \"contracts/MetaRelayer.sol\":325:335  _grantRole */\n  shl(0x20, tag_6)\n    /* \"contracts/MetaRelayer.sol\":325:367  _grantRole(DEFAULT_ADMIN_ROLE, msg.sender) */\n  0x20\n  shr\n  jump\t// in\ntag_5:\n    /* \"contracts/MetaRelayer.sol\":379:391  bool success */\n  0x00\n    /* \"contracts/MetaRelayer.sol\":396:403  relayer */\n  dup3\n    /* \"contracts/MetaRelayer.sol\":396:408  relayer.call */\n  0xffffffffffffffffffffffffffffffffffffffff\n  and\n    /* \"contracts/MetaRelayer.sol\":416:425  msg.value */\n  callvalue\n    /* \"contracts/MetaRelayer.sol\":396:430  relayer.call{value: msg.value}(\"\") */\n  mload(0x40)\n  tag_7\n  swap1\n  tag_8\n  jump\t// in\ntag_7:\n  0x00\n  mload(0x40)\n  dup1\n  dup4\n  sub\n  dup2\n  dup6\n  dup8\n  gas\n  call\n  swap3\n  pop\n  pop\n  pop\n  returndatasize\n  dup1\n  0x00\n  dup2\n  eq\n  tag_11\n  jumpi\n  mload(0x40)\n  swap2\n  pop\n  and(add(returndatasize, 0x3f), not(0x1f))\n  dup3\n  add\n  0x40\n  mstore\n  returndatasize\n  dup3\n  mstore\n  returndatasize\n  0x00\n  0x20\n  dup5\n  add\n  returndatacopy\n  jump(tag_10)\ntag_11:\n  0x60\n  swap2\n  pop\ntag_10:\n  pop\n    /* \"contracts/MetaRelayer.sol\":378:430  (bool success,) = relayer.call{value: msg.value}(\"\") */\n  pop\n  swap1\n  pop\n    /* \"contracts/MetaRelayer.sol\":463:491  _grantRole(RELAYER, relayer) */\n  tag_12\n    /* \"contracts/MetaRelayer.sol\":193:213  keccak256(\"RELAYER\") */\n  0xab4f864e5201b0fde9b5ee3e4cf96384802b0ffdfcf7f9de4699ce21a30afc4f\n    /* \"contracts/MetaRelayer.sol\":483:490  relayer */\n  dup5\n    /* \"contracts/MetaRelayer.sol\":463:473  _grantRole */\n  shl(0x20, tag_6)\n    /* \"contracts/MetaRelayer.sol\":463:491  _grantRole(RELAYER, relayer) */\n  0x20\n  shr\n  jump\t// in\ntag_12:\n    /* \"contracts/MetaRelayer.sol\":290:496  {... */\n  pop\n    /* \"contracts/MetaRelayer.sol\":237:496  constructor(address relayer, uint baseFunds) payable {... */\n  pop\n  pop\n    /* \"contracts/MetaRelayer.sol\":117:1776  contract MetaRelayer is AccessControl {... */\n  jump(tag_13)\n    /* \"@openzeppelin/contracts/access/AccessControl.sol\":7587:7820  function _grantRole(bytes32 role, address account) internal virtual {... */\ntag_6:\n    /* \"@openzeppelin/contracts/access/AccessControl.sol\":7670:7692  hasRole(role, account) */\n  tag_15\n    /* \"@openzeppelin/contracts/access/AccessControl.sol\":7678:7682  role */\n  dup3\n    /* \"@openzeppelin/contracts/access/AccessControl.sol\":7684:7691  account */\n  dup3\n    /* \"@openzeppelin/contracts/access/AccessControl.sol\":7670:7677  hasRole */\n  shl(0x20, tag_16)\n    /* \"@openzeppelin/contracts/access/AccessControl.sol\":7670:7692  hasRole(role, account) */\n  0x20\n  shr\n  jump\t// in\ntag_15:\n    /* \"@openzeppelin/contracts/access/AccessControl.sol\":7665:7814  if (!hasRole(role, account)) {... */\n  tag_17\n  jumpi\n    /* \"@openzeppelin/contracts/access/AccessControl.sol\":7740:7744  true */\n  0x01\n    /* \"@openzeppelin/contracts/access/AccessControl.sol\":7708:7714  _roles */\n  0x00\n    /* \"@openzeppelin/contracts/access/AccessControl.sol\":7708:7720  _roles[role] */\n  dup1\n    /* \"@openzeppelin/contracts/access/AccessControl.sol\":7715:7719  role */\n  dup5\n    /* \"@openzeppelin/contracts/access/AccessControl.sol\":7708:7720  _roles[role] */\n  dup2\n  mstore\n  0x20\n  add\n  swap1\n  dup2\n  mstore\n  0x20\n  add\n  0x00\n  keccak256\n    /* \"@openzeppelin/contracts/access/AccessControl.sol\":7708:7728  _roles[role].members */\n  0x00\n  add\n    /* \"@openzeppelin/contracts/access/AccessControl.sol\":7708:7737  _roles[role].members[account] */\n  0x00\n    /* \"@openzeppelin/contracts/access/AccessControl.sol\":7729:7736  account */\n  dup4\n    /* \"@openzeppelin/contracts/access/AccessControl.sol\":7708:7737  _roles[role].members[account] */\n  0xffffffffffffffffffffffffffffffffffffffff\n  and\n  0xffffffffffffffffffffffffffffffffffffffff\n  and\n  dup2\n  mstore\n  0x20\n  add\n  swap1\n  dup2\n  mstore\n  0x20\n  add\n  0x00\n  keccak256\n  0x00\n    /* \"@openzeppelin/contracts/access/AccessControl.sol\":7708:7744  _roles[role].members[account] = true */\n  0x0100\n  exp\n  dup2\n  sload\n  dup2\n  0xff\n  mul\n  not\n  and\n  swap1\n  dup4\n  iszero\n  iszero\n  mul\n  or\n  swap1\n  sstore\n  pop\n    /* \"@openzeppelin/contracts/access/AccessControl.sol\":7790:7802  _msgSender() */\n  tag_18\n    /* \"@openzeppelin/contracts/access/AccessControl.sol\":7790:7800  _msgSender */\n  shl(0x20, tag_19)\n    /* \"@openzeppelin/contracts/access/AccessControl.sol\":7790:7802  _msgSender() */\n  0x20\n  shr\n  jump\t// in\ntag_18:\n    /* \"@openzeppelin/contracts/access/AccessControl.sol\":7763:7803  RoleGranted(role, account, _msgSender()) */\n  0xffffffffffffffffffffffffffffffffffffffff\n  and\n    /* \"@openzeppelin/contracts/access/AccessControl.sol\":7781:7788  account */\n  dup2\n    /* \"@openzeppelin/contracts/access/AccessControl.sol\":7763:7803  RoleGranted(role, account, _msgSender()) */\n  0xffffffffffffffffffffffffffffffffffffffff\n  and\n    /* \"@openzeppelin/contracts/access/AccessControl.sol\":7775:7779  role */\n  dup4\n    /* \"@openzeppelin/contracts/access/AccessControl.sol\":7763:7803  RoleGranted(role, account, _msgSender()) */\n  0x2f8788117e7eff1d82e926ec794901d17c78024a50270940304540a733656f0d\n  mload(0x40)\n  mload(0x40)\n  dup1\n  swap2\n  sub\n  swap1\n  log4\n    /* \"@openzeppelin/contracts/access/AccessControl.sol\":7665:7814  if (!hasRole(role, account)) {... */\ntag_17:\n    /* \"@openzeppelin/contracts/access/AccessControl.sol\":7587:7820  function _grantRole(bytes32 role, address account) internal virtual {... */\n  pop\n  pop\n  jump\t// out\n    /* \"@openzeppelin/contracts/access/AccessControl.sol\":3021:3166  function hasRole(bytes32 role, address account) public view virtual override returns (bool) {... */\ntag_16:\n    /* \"@openzeppelin/contracts/access/AccessControl.sol\":3107:3111  bool */\n  0x00\n    /* \"@openzeppelin/contracts/access/AccessControl.sol\":3130:3136  _roles */\n  dup1\n    /* \"@openzeppelin/contracts/access/AccessControl.sol\":3130:3142  _roles[role] */\n  0x00\n    /* \"@openzeppelin/contracts/access/AccessControl.sol\":3137:3141  role */\n  dup5\n    /* \"@openzeppelin/contracts/access/AccessControl.sol\":3130:3142  _roles[role] */\n  dup2\n  mstore\n  0x20\n  add\n  swap1\n  dup2\n  mstore\n  0x20\n  add\n  0x00\n  keccak256\n    /* \"@openzeppelin/contracts/access/AccessControl.sol\":3130:3150  _roles[role].members */\n  0x00\n  add\n    /* \"@openzeppelin/contracts/access/AccessControl.sol\":3130:3159  _roles[role].members[account] */\n  0x00\n    /* \"@openzeppelin/contracts/access/AccessControl.sol\":3151:3158  account */\n  dup4\n    /* \"@openzeppelin/contracts/access/AccessControl.sol\":3130:3159  _roles[role].members[account] */\n  0xffffffffffffffffffffffffffffffffffffffff\n  and\n  0xffffffffffffffffffffffffffffffffffffffff\n  and\n  dup2\n  mstore\n  0x20\n  add\n  swap1\n  dup2\n  mstore\n  0x20\n  add\n  0x00\n  keccak256\n  0x00\n  swap1\n  sload\n  swap1\n  0x0100\n  exp\n  swap1\n  div\n  0xff\n  and\n    /* \"@openzeppelin/contracts/access/AccessControl.sol\":3123:3159  return _roles[role].members[account] */\n  swap1\n  pop\n    /* \"@openzeppelin/contracts/access/AccessControl.sol\":3021:3166  function hasRole(bytes32 role, address account) public view virtual override returns (bool) {... */\n  swap3\n  swap2\n  pop\n  pop\n  jump\t// out\n    /* \"@openzeppelin/contracts/utils/Context.sol\":640:736  function _msgSender() internal view virtual returns (address) {... */\ntag_19:\n    /* \"@openzeppelin/contracts/utils/Context.sol\":693:700  address */\n  0x00\n    /* \"@openzeppelin/contracts/utils/Context.sol\":719:729  msg.sender */\n  caller\n    /* \"@openzeppelin/contracts/utils/Context.sol\":712:729  return msg.sender */\n  swap1\n  pop\n    /* \"@openzeppelin/contracts/utils/Context.sol\":640:736  function _msgSender() internal view virtual returns (address) {... */\n  swap1\n  jump\t// out\n    /* \"#utility.yul\":88:205   */\ntag_23:\n    /* \"#utility.yul\":197:198   */\n  0x00\n    /* \"#utility.yul\":194:195   */\n  dup1\n    /* \"#utility.yul\":187:199   */\n  revert\n    /* \"#utility.yul\":334:460   */\ntag_25:\n    /* \"#utility.yul\":371:378   */\n  0x00\n    /* \"#utility.yul\":411:453   */\n  0xffffffffffffffffffffffffffffffffffffffff\n    /* \"#utility.yul\":404:409   */\n  dup3\n    /* \"#utility.yul\":400:454   */\n  and\n    /* \"#utility.yul\":389:454   */\n  swap1\n  pop\n    /* \"#utility.yul\":334:460   */\n  swap2\n  swap1\n  pop\n  jump\t// out\n    /* \"#utility.yul\":466:562   */\ntag_26:\n    /* \"#utility.yul\":503:510   */\n  0x00\n    /* \"#utility.yul\":532:556   */\n  tag_41\n    /* \"#utility.yul\":550:555   */\n  dup3\n    /* \"#utility.yul\":532:556   */\n  tag_25\n  jump\t// in\ntag_41:\n    /* \"#utility.yul\":521:556   */\n  swap1\n  pop\n    /* \"#utility.yul\":466:562   */\n  swap2\n  swap1\n  pop\n  jump\t// out\n    /* \"#utility.yul\":568:690   */\ntag_27:\n    /* \"#utility.yul\":641:665   */\n  tag_43\n    /* \"#utility.yul\":659:664   */\n  dup2\n    /* \"#utility.yul\":641:665   */\n  tag_26\n  jump\t// in\ntag_43:\n    /* \"#utility.yul\":634:639   */\n  dup2\n    /* \"#utility.yul\":631:666   */\n  eq\n    /* \"#utility.yul\":621:684   */\n  tag_44\n  jumpi\n    /* \"#utility.yul\":680:681   */\n  0x00\n    /* \"#utility.yul\":677:678   */\n  dup1\n    /* \"#utility.yul\":670:682   */\n  revert\n    /* \"#utility.yul\":621:684   */\ntag_44:\n    /* \"#utility.yul\":568:690   */\n  pop\n  jump\t// out\n    /* \"#utility.yul\":696:839   */\ntag_28:\n    /* \"#utility.yul\":753:758   */\n  0x00\n    /* \"#utility.yul\":784:790   */\n  dup2\n    /* \"#utility.yul\":778:791   */\n  mload\n    /* \"#utility.yul\":769:791   */\n  swap1\n  pop\n    /* \"#utility.yul\":800:833   */\n  tag_46\n    /* \"#utility.yul\":827:832   */\n  dup2\n    /* \"#utility.yul\":800:833   */\n  tag_27\n  jump\t// in\ntag_46:\n    /* \"#utility.yul\":696:839   */\n  swap3\n  swap2\n  pop\n  pop\n  jump\t// out\n    /* \"#utility.yul\":845:922   */\ntag_29:\n    /* \"#utility.yul\":882:889   */\n  0x00\n    /* \"#utility.yul\":911:916   */\n  dup2\n    /* \"#utility.yul\":900:916   */\n  swap1\n  pop\n    /* \"#utility.yul\":845:922   */\n  swap2\n  swap1\n  pop\n  jump\t// out\n    /* \"#utility.yul\":928:1050   */\ntag_30:\n    /* \"#utility.yul\":1001:1025   */\n  tag_49\n    /* \"#utility.yul\":1019:1024   */\n  dup2\n    /* \"#utility.yul\":1001:1025   */\n  tag_29\n  jump\t// in\ntag_49:\n    /* \"#utility.yul\":994:999   */\n  dup2\n    /* \"#utility.yul\":991:1026   */\n  eq\n    /* \"#utility.yul\":981:1044   */\n  tag_50\n  jumpi\n    /* \"#utility.yul\":1040:1041   */\n  0x00\n    /* \"#utility.yul\":1037:1038   */\n  dup1\n    /* \"#utility.yul\":1030:1042   */\n  revert\n    /* \"#utility.yul\":981:1044   */\ntag_50:\n    /* \"#utility.yul\":928:1050   */\n  pop\n  jump\t// out\n    /* \"#utility.yul\":1056:1199   */\ntag_31:\n    /* \"#utility.yul\":1113:1118   */\n  0x00\n    /* \"#utility.yul\":1144:1150   */\n  dup2\n    /* \"#utility.yul\":1138:1151   */\n  mload\n    /* \"#utility.yul\":1129:1151   */\n  swap1\n  pop\n    /* \"#utility.yul\":1160:1193   */\n  tag_52\n    /* \"#utility.yul\":1187:1192   */\n  dup2\n    /* \"#utility.yul\":1160:1193   */\n  tag_30\n  jump\t// in\ntag_52:\n    /* \"#utility.yul\":1056:1199   */\n  swap3\n  swap2\n  pop\n  pop\n  jump\t// out\n    /* \"#utility.yul\":1205:1712   */\ntag_2:\n    /* \"#utility.yul\":1284:1290   */\n  0x00\n    /* \"#utility.yul\":1292:1298   */\n  dup1\n    /* \"#utility.yul\":1341:1343   */\n  0x40\n    /* \"#utility.yul\":1329:1338   */\n  dup4\n    /* \"#utility.yul\":1320:1327   */\n  dup6\n    /* \"#utility.yul\":1316:1339   */\n  sub\n    /* \"#utility.yul\":1312:1344   */\n  slt\n    /* \"#utility.yul\":1309:1428   */\n  iszero\n  tag_54\n  jumpi\n    /* \"#utility.yul\":1347:1426   */\n  tag_55\n  tag_23\n  jump\t// in\ntag_55:\n    /* \"#utility.yul\":1309:1428   */\ntag_54:\n    /* \"#utility.yul\":1467:1468   */\n  0x00\n    /* \"#utility.yul\":1492:1556   */\n  tag_56\n    /* \"#utility.yul\":1548:1555   */\n  dup6\n    /* \"#utility.yul\":1539:1545   */\n  dup3\n    /* \"#utility.yul\":1528:1537   */\n  dup7\n    /* \"#utility.yul\":1524:1546   */\n  add\n    /* \"#utility.yul\":1492:1556   */\n  tag_28\n  jump\t// in\ntag_56:\n    /* \"#utility.yul\":1482:1556   */\n  swap3\n  pop\n    /* \"#utility.yul\":1438:1566   */\n  pop\n    /* \"#utility.yul\":1605:1607   */\n  0x20\n    /* \"#utility.yul\":1631:1695   */\n  tag_57\n    /* \"#utility.yul\":1687:1694   */\n  dup6\n    /* \"#utility.yul\":1678:1684   */\n  dup3\n    /* \"#utility.yul\":1667:1676   */\n  dup7\n    /* \"#utility.yul\":1663:1685   */\n  add\n    /* \"#utility.yul\":1631:1695   */\n  tag_31\n  jump\t// in\ntag_57:\n    /* \"#utility.yul\":1621:1695   */\n  swap2\n  pop\n    /* \"#utility.yul\":1576:1705   */\n  pop\n    /* \"#utility.yul\":1205:1712   */\n  swap3\n  pop\n  swap3\n  swap1\n  pop\n  jump\t// out\n    /* \"#utility.yul\":1718:1865   */\ntag_32:\n    /* \"#utility.yul\":1819:1830   */\n  0x00\n    /* \"#utility.yul\":1856:1859   */\n  dup2\n    /* \"#utility.yul\":1841:1859   */\n  swap1\n  pop\n    /* \"#utility.yul\":1718:1865   */\n  swap3\n  swap2\n  pop\n  pop\n  jump\t// out\n    /* \"#utility.yul\":1871:1985   */\ntag_33:\n  pop\n  jump\t// out\n    /* \"#utility.yul\":1991:2389   */\ntag_34:\n    /* \"#utility.yul\":2150:2153   */\n  0x00\n    /* \"#utility.yul\":2171:2254   */\n  tag_61\n    /* \"#utility.yul\":2252:2253   */\n  0x00\n    /* \"#utility.yul\":2247:2250   */\n  dup4\n    /* \"#utility.yul\":2171:2254   */\n  tag_32\n  jump\t// in\ntag_61:\n    /* \"#utility.yul\":2164:2254   */\n  swap2\n  pop\n    /* \"#utility.yul\":2263:2356   */\n  tag_62\n    /* \"#utility.yul\":2352:2355   */\n  dup3\n    /* \"#utility.yul\":2263:2356   */\n  tag_33\n  jump\t// in\ntag_62:\n    /* \"#utility.yul\":2381:2382   */\n  0x00\n    /* \"#utility.yul\":2376:2379   */\n  dup3\n    /* \"#utility.yul\":2372:2383   */\n  add\n    /* \"#utility.yul\":2365:2383   */\n  swap1\n  pop\n    /* \"#utility.yul\":1991:2389   */\n  swap2\n  swap1\n  pop\n  jump\t// out\n    /* \"#utility.yul\":2395:2774   */\ntag_8:\n    /* \"#utility.yul\":2579:2582   */\n  0x00\n    /* \"#utility.yul\":2601:2748   */\n  tag_64\n    /* \"#utility.yul\":2744:2747   */\n  dup3\n    /* \"#utility.yul\":2601:2748   */\n  tag_34\n  jump\t// in\ntag_64:\n    /* \"#utility.yul\":2594:2748   */\n  swap2\n  pop\n    /* \"#utility.yul\":2765:2768   */\n  dup2\n    /* \"#utility.yul\":2758:2768   */\n  swap1\n  pop\n    /* \"#utility.yul\":2395:2774   */\n  swap2\n  swap1\n  pop\n  jump\t// out\n    /* \"contracts/MetaRelayer.sol\":117:1776  contract MetaRelayer is AccessControl {... */\ntag_13:\n  dataSize(sub_0)\n  dup1\n  dataOffset(sub_0)\n  0x00\n  codecopy\n  0x00\n  return\nstop\n\nsub_0: assembly {\n        /* \"contracts/MetaRelayer.sol\":117:1776  contract MetaRelayer is AccessControl {... */\n      mstore(0x40, 0x80)\n      jumpi(tag_1, lt(calldatasize, 0x04))\n      shr(0xe0, calldataload(0x00))\n      dup1\n      0x910dec13\n      gt\n      tag_12\n      jumpi\n      dup1\n      0x910dec13\n      eq\n      tag_7\n      jumpi\n      dup1\n      0x91d14854\n      eq\n      tag_8\n      jumpi\n      dup1\n      0xa217fddf\n      eq\n      tag_9\n      jumpi\n      dup1\n      0xc89acc86\n      eq\n      tag_10\n      jumpi\n      dup1\n      0xd547741f\n      eq\n      tag_11\n      jumpi\n      jump(tag_1)\n    tag_12:\n      dup1\n      0x01ffc9a7\n      eq\n      tag_2\n      jumpi\n      dup1\n      0x2483e715\n      eq\n      tag_3\n      jumpi\n      dup1\n      0x248a9ca3\n      eq\n      tag_4\n      jumpi\n      dup1\n      0x2f2ff15d\n      eq\n      tag_5\n      jumpi\n      dup1\n      0x36568abe\n      eq\n      tag_6\n      jumpi\n    tag_1:\n      0x00\n      dup1\n      revert\n        /* \"@openzeppelin/contracts/access/AccessControl.sol\":2732:2934  function supportsInterface(bytes4 interfaceId) public view virtual override returns (bool) {... */\n    tag_2:\n      callvalue\n      dup1\n      iszero\n      tag_13\n      jumpi\n      0x00\n      dup1\n      revert\n    tag_13:\n      pop\n      tag_14\n      0x04\n      dup1\n      calldatasize\n      sub\n      dup2\n      add\n      swap1\n      tag_15\n      swap2\n      swap1\n      tag_16\n      jump\t// in\n    tag_15:\n      tag_17\n      jump\t// in\n    tag_14:\n      mload(0x40)\n      tag_18\n      swap2\n      swap1\n      tag_19\n      jump\t// in\n    tag_18:\n      mload(0x40)\n      dup1\n      swap2\n      sub\n      swap1\n      return\n        /* \"contracts/MetaRelayer.sol\":159:213  bytes32 public constant RELAYER = keccak256(\"RELAYER\") */\n    tag_3:\n      callvalue\n      dup1\n      iszero\n      tag_20\n      jumpi\n      0x00\n      dup1\n      revert\n    tag_20:\n      pop\n      tag_21\n      tag_22\n      jump\t// in\n    tag_21:\n      mload(0x40)\n      tag_23\n      swap2\n      swap1\n      tag_24\n      jump\t// in\n    tag_23:\n      mload(0x40)\n      dup1\n      swap2\n      sub\n      swap1\n      return\n        /* \"@openzeppelin/contracts/access/AccessControl.sol\":4504:4633  function getRoleAdmin(bytes32 role) public view virtual override returns (bytes32) {... */\n    tag_4:\n      callvalue\n      dup1\n      iszero\n      tag_25\n      jumpi\n      0x00\n      dup1\n      revert\n    tag_25:\n      pop\n      tag_26\n      0x04\n      dup1\n      calldatasize\n      sub\n      dup2\n      add\n      swap1\n      tag_27\n      swap2\n      swap1\n      tag_28\n      jump\t// in\n    tag_27:\n      tag_29\n      jump\t// in\n    tag_26:\n      mload(0x40)\n      tag_30\n      swap2\n      swap1\n      tag_24\n      jump\t// in\n    tag_30:\n      mload(0x40)\n      dup1\n      swap2\n      sub\n      swap1\n      return\n        /* \"@openzeppelin/contracts/access/AccessControl.sol\":4929:5074  function grantRole(bytes32 role, address account) public virtual override onlyRole(getRoleAdmin(role)) {... */\n    tag_5:\n      callvalue\n      dup1\n      iszero\n      tag_31\n      jumpi\n      0x00\n      dup1\n      revert\n    tag_31:\n      pop\n      tag_32\n      0x04\n      dup1\n      calldatasize\n      sub\n      dup2\n      add\n      swap1\n      tag_33\n      swap2\n      swap1\n      tag_34\n      jump\t// in\n    tag_33:\n      tag_35\n      jump\t// in\n    tag_32:\n      stop\n        /* \"@openzeppelin/contracts/access/AccessControl.sol\":6038:6252  function renounceRole(bytes32 role, address account) public virtual override {... */\n    tag_6:\n      callvalue\n      dup1\n      iszero\n      tag_36\n      jumpi\n      0x00\n      dup1\n      revert\n    tag_36:\n      pop\n      tag_37\n      0x04\n      dup1\n      calldatasize\n      sub\n      dup2\n      add\n      swap1\n      tag_38\n      swap2\n      swap1\n      tag_34\n      jump\t// in\n    tag_38:\n      tag_39\n      jump\t// in\n    tag_37:\n      stop\n        /* \"contracts/MetaRelayer.sol\":890:1774  function sendBatch(address[] memory targets, bytes[] calldata data, uint[] memory values) external payable onlyRole(RELAYER) returns(bool[] memory) {... */\n    tag_7:\n      tag_40\n      0x04\n      dup1\n      calldatasize\n      sub\n      dup2\n      add\n      swap1\n      tag_41\n      swap2\n      swap1\n      tag_42\n      jump\t// in\n    tag_41:\n      tag_43\n      jump\t// in\n    tag_40:\n      mload(0x40)\n      tag_44\n      swap2\n      swap1\n      tag_45\n      jump\t// in\n    tag_44:\n      mload(0x40)\n      dup1\n      swap2\n      sub\n      swap1\n      return\n        /* \"@openzeppelin/contracts/access/AccessControl.sol\":3021:3166  function hasRole(bytes32 role, address account) public view virtual override returns (bool) {... */\n    tag_8:\n      callvalue\n      dup1\n      iszero\n      tag_46\n      jumpi\n      0x00\n      dup1\n      revert\n    tag_46:\n      pop\n      tag_47\n      0x04\n      dup1\n      calldatasize\n      sub\n      dup2\n      add\n      swap1\n      tag_48\n      swap2\n      swap1\n      tag_34\n      jump\t// in\n    tag_48:\n      tag_49\n      jump\t// in\n    tag_47:\n      mload(0x40)\n      tag_50\n      swap2\n      swap1\n      tag_19\n      jump\t// in\n    tag_50:\n      mload(0x40)\n      dup1\n      swap2\n      sub\n      swap1\n      return\n        /* \"@openzeppelin/contracts/access/AccessControl.sol\":2153:2202  bytes32 public constant DEFAULT_ADMIN_ROLE = 0x00 */\n    tag_9:\n      callvalue\n      dup1\n      iszero\n      tag_51\n      jumpi\n      0x00\n      dup1\n      revert\n    tag_51:\n      pop\n      tag_52\n      tag_53\n      jump\t// in\n    tag_52:\n      mload(0x40)\n      tag_54\n      swap2\n      swap1\n      tag_24\n      jump\t// in\n    tag_54:\n      mload(0x40)\n      dup1\n      swap2\n      sub\n      swap1\n      return\n        /* \"contracts/MetaRelayer.sol\":500:886  function send(address target, bytes calldata data) external payable onlyRole(RELAYER) returns(bool) {... */\n    tag_10:\n      tag_55\n      0x04\n      dup1\n      calldatasize\n      sub\n      dup2\n      add\n      swap1\n      tag_56\n      swap2\n      swap1\n      tag_57\n      jump\t// in\n    tag_56:\n      tag_58\n      jump\t// in\n    tag_55:\n      mload(0x40)\n      tag_59\n      swap2\n      swap1\n      tag_19\n      jump\t// in\n    tag_59:\n      mload(0x40)\n      dup1\n      swap2\n      sub\n      swap1\n      return\n        /* \"@openzeppelin/contracts/access/AccessControl.sol\":5354:5501  function revokeRole(bytes32 role, address account) public virtual override onlyRole(getRoleAdmin(role)) {... */\n    tag_11:\n      callvalue\n      dup1\n      iszero\n      tag_60\n      jumpi\n      0x00\n      dup1\n      revert\n    tag_60:\n      pop\n      tag_61\n      0x04\n      dup1\n      calldatasize\n      sub\n      dup2\n      add\n      swap1\n      tag_62\n      swap2\n      swap1\n      tag_34\n      jump\t// in\n    tag_62:\n      tag_63\n      jump\t// in\n    tag_61:\n      stop\n        /* \"@openzeppelin/contracts/access/AccessControl.sol\":2732:2934  function supportsInterface(bytes4 interfaceId) public view virtual override returns (bool) {... */\n    tag_17:\n        /* \"@openzeppelin/contracts/access/AccessControl.sol\":2817:2821  bool */\n      0x00\n        /* \"@openzeppelin/contracts/access/AccessControl.sol\":2855:2887  type(IAccessControl).interfaceId */\n      0x7965db0b00000000000000000000000000000000000000000000000000000000\n        /* \"@openzeppelin/contracts/access/AccessControl.sol\":2840:2887  interfaceId == type(IAccessControl).interfaceId */\n      not(0xffffffffffffffffffffffffffffffffffffffffffffffffffffffff)\n      and\n        /* \"@openzeppelin/contracts/access/AccessControl.sol\":2840:2851  interfaceId */\n      dup3\n        /* \"@openzeppelin/contracts/access/AccessControl.sol\":2840:2887  interfaceId == type(IAccessControl).interfaceId */\n      not(0xffffffffffffffffffffffffffffffffffffffffffffffffffffffff)\n      and\n      eq\n        /* \"@openzeppelin/contracts/access/AccessControl.sol\":2840:2927  interfaceId == type(IAccessControl).interfaceId || super.supportsInterface(interfaceId) */\n      dup1\n      tag_65\n      jumpi\n      pop\n        /* \"@openzeppelin/contracts/access/AccessControl.sol\":2891:2927  super.supportsInterface(interfaceId) */\n      tag_66\n        /* \"@openzeppelin/contracts/access/AccessControl.sol\":2915:2926  interfaceId */\n      dup3\n        /* \"@openzeppelin/contracts/access/AccessControl.sol\":2891:2914  super.supportsInterface */\n      tag_67\n        /* \"@openzeppelin/contracts/access/AccessControl.sol\":2891:2927  super.supportsInterface(interfaceId) */\n      jump\t// in\n    tag_66:\n        /* \"@openzeppelin/contracts/access/AccessControl.sol\":2840:2927  interfaceId == type(IAccessControl).interfaceId || super.supportsInterface(interfaceId) */\n    tag_65:\n        /* \"@openzeppelin/contracts/access/AccessControl.sol\":2833:2927  return interfaceId == type(IAccessControl).interfaceId || super.supportsInterface(interfaceId) */\n      swap1\n      pop\n        /* \"@openzeppelin/contracts/access/AccessControl.sol\":2732:2934  function supportsInterface(bytes4 interfaceId) public view virtual override returns (bool) {... */\n      swap2\n      swap1\n      pop\n      jump\t// out\n        /* \"contracts/MetaRelayer.sol\":159:213  bytes32 public constant RELAYER = keccak256(\"RELAYER\") */\n    tag_22:\n        /* \"contracts/MetaRelayer.sol\":193:213  keccak256(\"RELAYER\") */\n      0xab4f864e5201b0fde9b5ee3e4cf96384802b0ffdfcf7f9de4699ce21a30afc4f\n        /* \"contracts/MetaRelayer.sol\":159:213  bytes32 public constant RELAYER = keccak256(\"RELAYER\") */\n      dup2\n      jump\t// out\n        /* \"@openzeppelin/contracts/access/AccessControl.sol\":4504:4633  function getRoleAdmin(bytes32 role) public view virtual override returns (bytes32) {... */\n    tag_29:\n        /* \"@openzeppelin/contracts/access/AccessControl.sol\":4578:4585  bytes32 */\n      0x00\n        /* \"@openzeppelin/contracts/access/AccessControl.sol\":4604:4610  _roles */\n      dup1\n        /* \"@openzeppelin/contracts/access/AccessControl.sol\":4604:4616  _roles[role] */\n      0x00\n        /* \"@openzeppelin/contracts/access/AccessControl.sol\":4611:4615  role */\n      dup4\n        /* \"@openzeppelin/contracts/access/AccessControl.sol\":4604:4616  _roles[role] */\n      dup2\n      mstore\n      0x20\n      add\n      swap1\n      dup2\n      mstore\n      0x20\n      add\n      0x00\n      keccak256\n        /* \"@openzeppelin/contracts/access/AccessControl.sol\":4604:4626  _roles[role].adminRole */\n      0x01\n      add\n      sload\n        /* \"@openzeppelin/contracts/access/AccessControl.sol\":4597:4626  return _roles[role].adminRole */\n      swap1\n      pop\n        /* \"@openzeppelin/contracts/access/AccessControl.sol\":4504:4633  function getRoleAdmin(bytes32 role) public view virtual override returns (bytes32) {... */\n      swap2\n      swap1\n      pop\n      jump\t// out\n        /* \"@openzeppelin/contracts/access/AccessControl.sol\":4929:5074  function grantRole(bytes32 role, address account) public virtual override onlyRole(getRoleAdmin(role)) {... */\n    tag_35:\n        /* \"@openzeppelin/contracts/access/AccessControl.sol\":5012:5030  getRoleAdmin(role) */\n      tag_69\n        /* \"@openzeppelin/contracts/access/AccessControl.sol\":5025:5029  role */\n      dup3\n        /* \"@openzeppelin/contracts/access/AccessControl.sol\":5012:5024  getRoleAdmin */\n      tag_29\n        /* \"@openzeppelin/contracts/access/AccessControl.sol\":5012:5030  getRoleAdmin(role) */\n      jump\t// in\n    tag_69:\n        /* \"@openzeppelin/contracts/access/AccessControl.sol\":2631:2647  _checkRole(role) */\n      tag_71\n        /* \"@openzeppelin/contracts/access/AccessControl.sol\":2642:2646  role */\n      dup2\n        /* \"@openzeppelin/contracts/access/AccessControl.sol\":2631:2641  _checkRole */\n      tag_72\n        /* \"@openzeppelin/contracts/access/AccessControl.sol\":2631:2647  _checkRole(role) */\n      jump\t// in\n    tag_71:\n        /* \"@openzeppelin/contracts/access/AccessControl.sol\":5042:5067  _grantRole(role, account) */\n      tag_74\n        /* \"@openzeppelin/contracts/access/AccessControl.sol\":5053:5057  role */\n      dup4\n        /* \"@openzeppelin/contracts/access/AccessControl.sol\":5059:5066  account */\n      dup4\n        /* \"@openzeppelin/contracts/access/AccessControl.sol\":5042:5052  _grantRole */\n      tag_75\n        /* \"@openzeppelin/contracts/access/AccessControl.sol\":5042:5067  _grantRole(role, account) */\n      jump\t// in\n    tag_74:\n        /* \"@openzeppelin/contracts/access/AccessControl.sol\":4929:5074  function grantRole(bytes32 role, address account) public virtual override onlyRole(getRoleAdmin(role)) {... */\n      pop\n      pop\n      pop\n      jump\t// out\n        /* \"@openzeppelin/contracts/access/AccessControl.sol\":6038:6252  function renounceRole(bytes32 role, address account) public virtual override {... */\n    tag_39:\n        /* \"@openzeppelin/contracts/access/AccessControl.sol\":6144:6156  _msgSender() */\n      tag_77\n        /* \"@openzeppelin/contracts/access/AccessControl.sol\":6144:6154  _msgSender */\n      tag_78\n        /* \"@openzeppelin/contracts/access/AccessControl.sol\":6144:6156  _msgSender() */\n      jump\t// in\n    tag_77:\n        /* \"@openzeppelin/contracts/access/AccessControl.sol\":6133:6156  account == _msgSender() */\n      0xffffffffffffffffffffffffffffffffffffffff\n      and\n        /* \"@openzeppelin/contracts/access/AccessControl.sol\":6133:6140  account */\n      dup2\n        /* \"@openzeppelin/contracts/access/AccessControl.sol\":6133:6156  account == _msgSender() */\n      0xffffffffffffffffffffffffffffffffffffffff\n      and\n      eq\n        /* \"@openzeppelin/contracts/access/AccessControl.sol\":6125:6208  require(account == _msgSender(), \"AccessControl: can only renounce roles for self\") */\n      tag_79\n      jumpi\n      mload(0x40)\n      0x08c379a000000000000000000000000000000000000000000000000000000000\n      dup2\n      mstore\n      0x04\n      add\n      tag_80\n      swap1\n      tag_81\n      jump\t// in\n    tag_80:\n      mload(0x40)\n      dup1\n      swap2\n      sub\n      swap1\n      revert\n    tag_79:\n        /* \"@openzeppelin/contracts/access/AccessControl.sol\":6219:6245  _revokeRole(role, account) */\n      tag_82\n        /* \"@openzeppelin/contracts/access/AccessControl.sol\":6231:6235  role */\n      dup3\n        /* \"@openzeppelin/contracts/access/AccessControl.sol\":6237:6244  account */\n      dup3\n        /* \"@openzeppelin/contracts/access/AccessControl.sol\":6219:6230  _revokeRole */\n      tag_83\n        /* \"@openzeppelin/contracts/access/AccessControl.sol\":6219:6245  _revokeRole(role, account) */\n      jump\t// in\n    tag_82:\n        /* \"@openzeppelin/contracts/access/AccessControl.sol\":6038:6252  function renounceRole(bytes32 role, address account) public virtual override {... */\n      pop\n      pop\n      jump\t// out\n        /* \"contracts/MetaRelayer.sol\":890:1774  function sendBatch(address[] memory targets, bytes[] calldata data, uint[] memory values) external payable onlyRole(RELAYER) returns(bool[] memory) {... */\n    tag_43:\n        /* \"contracts/MetaRelayer.sol\":1023:1036  bool[] memory */\n      0x60\n        /* \"contracts/MetaRelayer.sol\":193:213  keccak256(\"RELAYER\") */\n      0xab4f864e5201b0fde9b5ee3e4cf96384802b0ffdfcf7f9de4699ce21a30afc4f\n        /* \"@openzeppelin/contracts/access/AccessControl.sol\":2631:2647  _checkRole(role) */\n      tag_85\n        /* \"@openzeppelin/contracts/access/AccessControl.sol\":2642:2646  role */\n      dup2\n        /* \"@openzeppelin/contracts/access/AccessControl.sol\":2631:2641  _checkRole */\n      tag_72\n        /* \"@openzeppelin/contracts/access/AccessControl.sol\":2631:2647  _checkRole(role) */\n      jump\t// in\n    tag_85:\n        /* \"contracts/MetaRelayer.sol\":1044:1062  uint targetsLength */\n      0x00\n        /* \"contracts/MetaRelayer.sol\":1065:1072  targets */\n      dup7\n        /* \"contracts/MetaRelayer.sol\":1065:1079  targets.length */\n      mload\n        /* \"contracts/MetaRelayer.sol\":1044:1079  uint targetsLength = targets.length */\n      swap1\n      pop\n        /* \"contracts/MetaRelayer.sol\":1085:1100  uint dataLength */\n      0x00\n        /* \"contracts/MetaRelayer.sol\":1103:1107  data */\n      dup7\n      dup7\n        /* \"contracts/MetaRelayer.sol\":1103:1114  data.length */\n      swap1\n      pop\n        /* \"contracts/MetaRelayer.sol\":1085:1114  uint dataLength = data.length */\n      swap1\n      pop\n        /* \"contracts/MetaRelayer.sol\":1120:1137  uint valuesLength */\n      0x00\n        /* \"contracts/MetaRelayer.sol\":1140:1146  values */\n      dup6\n        /* \"contracts/MetaRelayer.sol\":1140:1153  values.length */\n      mload\n        /* \"contracts/MetaRelayer.sol\":1120:1153  uint valuesLength = values.length */\n      swap1\n      pop\n        /* \"contracts/MetaRelayer.sol\":1184:1194  dataLength */\n      dup2\n        /* \"contracts/MetaRelayer.sol\":1167:1180  targetsLength */\n      dup4\n        /* \"contracts/MetaRelayer.sol\":1167:1194  targetsLength == dataLength */\n      eq\n        /* \"contracts/MetaRelayer.sol\":1159:1244  require(targetsLength == dataLength, \"MetaRelayer: targets and data length mismatch\") */\n      tag_87\n      jumpi\n      mload(0x40)\n      0x08c379a000000000000000000000000000000000000000000000000000000000\n      dup2\n      mstore\n      0x04\n      add\n      tag_88\n      swap1\n      tag_89\n      jump\t// in\n    tag_88:\n      mload(0x40)\n      dup1\n      swap2\n      sub\n      swap1\n      revert\n    tag_87:\n        /* \"contracts/MetaRelayer.sol\":1275:1287  valuesLength */\n      dup1\n        /* \"contracts/MetaRelayer.sol\":1258:1271  targetsLength */\n      dup4\n        /* \"contracts/MetaRelayer.sol\":1258:1287  targetsLength == valuesLength */\n      eq\n        /* \"contracts/MetaRelayer.sol\":1250:1339  require(targetsLength == valuesLength, \"MetaRelayer: targets and values length mismatch\") */\n      tag_90\n      jumpi\n      mload(0x40)\n      0x08c379a000000000000000000000000000000000000000000000000000000000\n      dup2\n      mstore\n      0x04\n      add\n      tag_91\n      swap1\n      tag_92\n      jump\t// in\n    tag_91:\n      mload(0x40)\n      dup1\n      swap2\n      sub\n      swap1\n      revert\n    tag_90:\n        /* \"contracts/MetaRelayer.sol\":1346:1367  bool[] memory results */\n      0x00\n        /* \"contracts/MetaRelayer.sol\":1381:1394  targetsLength */\n      dup4\n        /* \"contracts/MetaRelayer.sol\":1370:1395  new bool[](targetsLength) */\n      0xffffffffffffffff\n      dup2\n      gt\n      iszero\n      tag_93\n      jumpi\n      tag_94\n      tag_95\n      jump\t// in\n    tag_94:\n    tag_93:\n      mload(0x40)\n      swap1\n      dup1\n      dup3\n      mstore\n      dup1\n      0x20\n      mul\n      0x20\n      add\n      dup3\n      add\n      0x40\n      mstore\n      dup1\n      iszero\n      tag_96\n      jumpi\n      dup2\n      0x20\n      add\n      0x20\n      dup3\n      mul\n      dup1\n      calldatasize\n      dup4\n      calldatacopy\n      dup1\n      dup3\n      add\n      swap2\n      pop\n      pop\n      swap1\n      pop\n    tag_96:\n      pop\n        /* \"contracts/MetaRelayer.sol\":1346:1395  bool[] memory results = new bool[](targetsLength) */\n      swap1\n      pop\n        /* \"contracts/MetaRelayer.sol\":1441:1447  uint i */\n      0x00\n        /* \"contracts/MetaRelayer.sol\":1436:1581  for (uint i = 0; i < targetsLength; i++) {... */\n    tag_97:\n        /* \"contracts/MetaRelayer.sol\":1457:1470  targetsLength */\n      dup5\n        /* \"contracts/MetaRelayer.sol\":1453:1454  i */\n      dup2\n        /* \"contracts/MetaRelayer.sol\":1453:1470  i < targetsLength */\n      lt\n        /* \"contracts/MetaRelayer.sol\":1436:1581  for (uint i = 0; i < targetsLength; i++) {... */\n      iszero\n      tag_98\n      jumpi\n        /* \"contracts/MetaRelayer.sol\":1486:1498  bool success */\n      0x00\n        /* \"contracts/MetaRelayer.sol\":1503:1510  targets */\n      dup12\n        /* \"contracts/MetaRelayer.sol\":1511:1512  i */\n      dup3\n        /* \"contracts/MetaRelayer.sol\":1503:1513  targets[i] */\n      dup2\n      mload\n      dup2\n      lt\n      tag_100\n      jumpi\n      tag_101\n      tag_102\n      jump\t// in\n    tag_101:\n    tag_100:\n      0x20\n      mul\n      0x20\n      add\n      add\n      mload\n        /* \"contracts/MetaRelayer.sol\":1503:1518  targets[i].call */\n      0xffffffffffffffffffffffffffffffffffffffff\n      and\n        /* \"contracts/MetaRelayer.sol\":1526:1532  values */\n      dup10\n        /* \"contracts/MetaRelayer.sol\":1533:1534  i */\n      dup4\n        /* \"contracts/MetaRelayer.sol\":1526:1535  values[i] */\n      dup2\n      mload\n      dup2\n      lt\n      tag_103\n      jumpi\n      tag_104\n      tag_102\n      jump\t// in\n    tag_104:\n    tag_103:\n      0x20\n      mul\n      0x20\n      add\n      add\n      mload\n        /* \"contracts/MetaRelayer.sol\":1537:1541  data */\n      dup13\n      dup13\n        /* \"contracts/MetaRelayer.sol\":1542:1543  i */\n      dup6\n        /* \"contracts/MetaRelayer.sol\":1537:1544  data[i] */\n      dup2\n      dup2\n      lt\n      tag_105\n      jumpi\n      tag_106\n      tag_102\n      jump\t// in\n    tag_106:\n    tag_105:\n      swap1\n      pop\n      0x20\n      mul\n      dup2\n      add\n      swap1\n      tag_107\n      swap2\n      swap1\n      tag_108\n      jump\t// in\n    tag_107:\n        /* \"contracts/MetaRelayer.sol\":1503:1545  targets[i].call{value: values[i]}(data[i]) */\n      mload(0x40)\n      tag_109\n      swap3\n      swap2\n      swap1\n      tag_110\n      jump\t// in\n    tag_109:\n      0x00\n      mload(0x40)\n      dup1\n      dup4\n      sub\n      dup2\n      dup6\n      dup8\n      gas\n      call\n      swap3\n      pop\n      pop\n      pop\n      returndatasize\n      dup1\n      0x00\n      dup2\n      eq\n      tag_113\n      jumpi\n      mload(0x40)\n      swap2\n      pop\n      and(add(returndatasize, 0x3f), not(0x1f))\n      dup3\n      add\n      0x40\n      mstore\n      returndatasize\n      dup3\n      mstore\n      returndatasize\n      0x00\n      0x20\n      dup5\n      add\n      returndatacopy\n      jump(tag_112)\n    tag_113:\n      0x60\n      swap2\n      pop\n    tag_112:\n      pop\n        /* \"contracts/MetaRelayer.sol\":1485:1545  (bool success,) = targets[i].call{value: values[i]}(data[i]) */\n      pop\n      swap1\n      pop\n        /* \"contracts/MetaRelayer.sol\":1567:1574  success */\n      dup1\n        /* \"contracts/MetaRelayer.sol\":1554:1561  results */\n      dup4\n        /* \"contracts/MetaRelayer.sol\":1562:1563  i */\n      dup4\n        /* \"contracts/MetaRelayer.sol\":1554:1564  results[i] */\n      dup2\n      mload\n      dup2\n      lt\n      tag_114\n      jumpi\n      tag_115\n      tag_102\n      jump\t// in\n    tag_115:\n    tag_114:\n      0x20\n      mul\n      0x20\n      add\n      add\n        /* \"contracts/MetaRelayer.sol\":1554:1574  results[i] = success */\n      swap1\n      iszero\n      iszero\n      swap1\n      dup2\n      iszero\n      iszero\n      dup2\n      mstore\n      pop\n      pop\n        /* \"contracts/MetaRelayer.sol\":1477:1581  {... */\n      pop\n        /* \"contracts/MetaRelayer.sol\":1472:1475  i++ */\n      dup1\n      dup1\n      tag_116\n      swap1\n      tag_117\n      jump\t// in\n    tag_116:\n      swap2\n      pop\n      pop\n        /* \"contracts/MetaRelayer.sol\":1436:1581  for (uint i = 0; i < targetsLength; i++) {... */\n      jump(tag_97)\n    tag_98:\n      pop\n        /* \"contracts/MetaRelayer.sol\":1669:1679  _baseFunds */\n      sload(0x01)\n        /* \"contracts/MetaRelayer.sol\":1648:1658  msg.sender */\n      caller\n        /* \"contracts/MetaRelayer.sol\":1648:1666  msg.sender.balance */\n      0xffffffffffffffffffffffffffffffffffffffff\n      and\n      balance\n        /* \"contracts/MetaRelayer.sol\":1648:1679  msg.sender.balance < _baseFunds */\n      lt\n        /* \"contracts/MetaRelayer.sol\":1644:1749  if (msg.sender.balance < _baseFunds) {... */\n      iszero\n      tag_118\n      jumpi\n        /* \"contracts/MetaRelayer.sol\":1690:1699  bool sent */\n      0x00\n        /* \"contracts/MetaRelayer.sol\":1704:1714  msg.sender */\n      caller\n        /* \"contracts/MetaRelayer.sol\":1704:1719  msg.sender.call */\n      0xffffffffffffffffffffffffffffffffffffffff\n      and\n        /* \"contracts/MetaRelayer.sol\":1727:1737  _baseFunds */\n      sload(0x01)\n        /* \"contracts/MetaRelayer.sol\":1704:1742  msg.sender.call{value: _baseFunds}(\"\") */\n      mload(0x40)\n      tag_119\n      swap1\n      tag_120\n      jump\t// in\n    tag_119:\n      0x00\n      mload(0x40)\n      dup1\n      dup4\n      sub\n      dup2\n      dup6\n      dup8\n      gas\n      call\n      swap3\n      pop\n      pop\n      pop\n      returndatasize\n      dup1\n      0x00\n      dup2\n      eq\n      tag_123\n      jumpi\n      mload(0x40)\n      swap2\n      pop\n      and(add(returndatasize, 0x3f), not(0x1f))\n      dup3\n      add\n      0x40\n      mstore\n      returndatasize\n      dup3\n      mstore\n      returndatasize\n      0x00\n      0x20\n      dup5\n      add\n      returndatacopy\n      jump(tag_122)\n    tag_123:\n      0x60\n      swap2\n      pop\n    tag_122:\n      pop\n        /* \"contracts/MetaRelayer.sol\":1689:1742  (bool sent,) = msg.sender.call{value: _baseFunds}(\"\") */\n      pop\n      swap1\n      pop\n        /* \"contracts/MetaRelayer.sol\":1681:1749  {... */\n      pop\n        /* \"contracts/MetaRelayer.sol\":1644:1749  if (msg.sender.balance < _baseFunds) {... */\n    tag_118:\n        /* \"contracts/MetaRelayer.sol\":1762:1769  results */\n      dup1\n        /* \"contracts/MetaRelayer.sol\":1755:1769  return results */\n      swap6\n      pop\n      pop\n      pop\n      pop\n      pop\n        /* \"contracts/MetaRelayer.sol\":890:1774  function sendBatch(address[] memory targets, bytes[] calldata data, uint[] memory values) external payable onlyRole(RELAYER) returns(bool[] memory) {... */\n      pop\n      swap5\n      swap4\n      pop\n      pop\n      pop\n      pop\n      jump\t// out\n        /* \"@openzeppelin/contracts/access/AccessControl.sol\":3021:3166  function hasRole(bytes32 role, address account) public view virtual override returns (bool) {... */\n    tag_49:\n        /* \"@openzeppelin/contracts/access/AccessControl.sol\":3107:3111  bool */\n      0x00\n        /* \"@openzeppelin/contracts/access/AccessControl.sol\":3130:3136  _roles */\n      dup1\n        /* \"@openzeppelin/contracts/access/AccessControl.sol\":3130:3142  _roles[role] */\n      0x00\n        /* \"@openzeppelin/contracts/access/AccessControl.sol\":3137:3141  role */\n      dup5\n        /* \"@openzeppelin/contracts/access/AccessControl.sol\":3130:3142  _roles[role] */\n      dup2\n      mstore\n      0x20\n      add\n      swap1\n      dup2\n      mstore\n      0x20\n      add\n      0x00\n      keccak256\n        /* \"@openzeppelin/contracts/access/AccessControl.sol\":3130:3150  _roles[role].members */\n      0x00\n      add\n        /* \"@openzeppelin/contracts/access/AccessControl.sol\":3130:3159  _roles[role].members[account] */\n      0x00\n        /* \"@openzeppelin/contracts/access/AccessControl.sol\":3151:3158  account */\n      dup4\n        /* \"@openzeppelin/contracts/access/AccessControl.sol\":3130:3159  _roles[role].members[account] */\n      0xffffffffffffffffffffffffffffffffffffffff\n      and\n      0xffffffffffffffffffffffffffffffffffffffff\n      and\n      dup2\n      mstore\n      0x20\n      add\n      swap1\n      dup2\n      mstore\n      0x20\n      add\n      0x00\n      keccak256\n      0x00\n      swap1\n      sload\n      swap1\n      0x0100\n      exp\n      swap1\n      div\n      0xff\n      and\n        /* \"@openzeppelin/contracts/access/AccessControl.sol\":3123:3159  return _roles[role].members[account] */\n      swap1\n      pop\n        /* \"@openzeppelin/contracts/access/AccessControl.sol\":3021:3166  function hasRole(bytes32 role, address account) public view virtual override returns (bool) {... */\n      swap3\n      swap2\n      pop\n      pop\n      jump\t// out\n        /* \"@openzeppelin/contracts/access/AccessControl.sol\":2153:2202  bytes32 public constant DEFAULT_ADMIN_ROLE = 0x00 */\n    tag_53:\n        /* \"@openzeppelin/contracts/access/AccessControl.sol\":2198:2202  0x00 */\n      0x00\n        /* \"@openzeppelin/contracts/access/AccessControl.sol\":2153:2202  bytes32 public constant DEFAULT_ADMIN_ROLE = 0x00 */\n      dup1\n      shl\n      dup2\n      jump\t// out\n        /* \"contracts/MetaRelayer.sol\":500:886  function send(address target, bytes calldata data) external payable onlyRole(RELAYER) returns(bool) {... */\n    tag_58:\n        /* \"contracts/MetaRelayer.sol\":594:598  bool */\n      0x00\n        /* \"contracts/MetaRelayer.sol\":193:213  keccak256(\"RELAYER\") */\n      0xab4f864e5201b0fde9b5ee3e4cf96384802b0ffdfcf7f9de4699ce21a30afc4f\n        /* \"@openzeppelin/contracts/access/AccessControl.sol\":2631:2647  _checkRole(role) */\n      tag_126\n        /* \"@openzeppelin/contracts/access/AccessControl.sol\":2642:2646  role */\n      dup2\n        /* \"@openzeppelin/contracts/access/AccessControl.sol\":2631:2641  _checkRole */\n      tag_72\n        /* \"@openzeppelin/contracts/access/AccessControl.sol\":2631:2647  _checkRole(role) */\n      jump\t// in\n    tag_126:\n        /* \"contracts/MetaRelayer.sol\":640:652  bool success */\n      0x00\n        /* \"contracts/MetaRelayer.sol\":657:663  target */\n      dup6\n        /* \"contracts/MetaRelayer.sol\":657:668  target.call */\n      0xffffffffffffffffffffffffffffffffffffffff\n      and\n        /* \"contracts/MetaRelayer.sol\":676:685  msg.value */\n      callvalue\n        /* \"contracts/MetaRelayer.sol\":687:691  data */\n      dup7\n      dup7\n        /* \"contracts/MetaRelayer.sol\":657:692  target.call{value: msg.value}(data) */\n      mload(0x40)\n      tag_128\n      swap3\n      swap2\n      swap1\n      tag_110\n      jump\t// in\n    tag_128:\n      0x00\n      mload(0x40)\n      dup1\n      dup4\n      sub\n      dup2\n      dup6\n      dup8\n      gas\n      call\n      swap3\n      pop\n      pop\n      pop\n      returndatasize\n      dup1\n      0x00\n      dup2\n      eq\n      tag_131\n      jumpi\n      mload(0x40)\n      swap2\n      pop\n      and(add(returndatasize, 0x3f), not(0x1f))\n      dup3\n      add\n      0x40\n      mstore\n      returndatasize\n      dup3\n      mstore\n      returndatasize\n      0x00\n      0x20\n      dup5\n      add\n      returndatacopy\n      jump(tag_130)\n    tag_131:\n      0x60\n      swap2\n      pop\n    tag_130:\n      pop\n        /* \"contracts/MetaRelayer.sol\":639:692  (bool success,) = target.call{value: msg.value}(data) */\n      pop\n      swap1\n      pop\n        /* \"contracts/MetaRelayer.sol\":781:791  _baseFunds */\n      sload(0x01)\n        /* \"contracts/MetaRelayer.sol\":760:770  msg.sender */\n      caller\n        /* \"contracts/MetaRelayer.sol\":760:778  msg.sender.balance */\n      0xffffffffffffffffffffffffffffffffffffffff\n      and\n      balance\n        /* \"contracts/MetaRelayer.sol\":760:791  msg.sender.balance < _baseFunds */\n      lt\n        /* \"contracts/MetaRelayer.sol\":756:861  if (msg.sender.balance < _baseFunds) {... */\n      iszero\n      tag_132\n      jumpi\n        /* \"contracts/MetaRelayer.sol\":802:811  bool sent */\n      0x00\n        /* \"contracts/MetaRelayer.sol\":816:826  msg.sender */\n      caller\n        /* \"contracts/MetaRelayer.sol\":816:831  msg.sender.call */\n      0xffffffffffffffffffffffffffffffffffffffff\n      and\n        /* \"contracts/MetaRelayer.sol\":839:849  _baseFunds */\n      sload(0x01)\n        /* \"contracts/MetaRelayer.sol\":816:854  msg.sender.call{value: _baseFunds}(\"\") */\n      mload(0x40)\n      tag_133\n      swap1\n      tag_120\n      jump\t// in\n    tag_133:\n      0x00\n      mload(0x40)\n      dup1\n      dup4\n      sub\n      dup2\n      dup6\n      dup8\n      gas\n      call\n      swap3\n      pop\n      pop\n      pop\n      returndatasize\n      dup1\n      0x00\n      dup2\n      eq\n      tag_136\n      jumpi\n      mload(0x40)\n      swap2\n      pop\n      and(add(returndatasize, 0x3f), not(0x1f))\n      dup3\n      add\n      0x40\n      mstore\n      returndatasize\n      dup3\n      mstore\n      returndatasize\n      0x00\n      0x20\n      dup5\n      add\n      returndatacopy\n      jump(tag_135)\n    tag_136:\n      0x60\n      swap2\n      pop\n    tag_135:\n      pop\n        /* \"contracts/MetaRelayer.sol\":801:854  (bool sent,) = msg.sender.call{value: _baseFunds}(\"\") */\n      pop\n      swap1\n      pop\n        /* \"contracts/MetaRelayer.sol\":793:861  {... */\n      pop\n        /* \"contracts/MetaRelayer.sol\":756:861  if (msg.sender.balance < _baseFunds) {... */\n    tag_132:\n        /* \"contracts/MetaRelayer.sol\":874:881  success */\n      dup1\n        /* \"contracts/MetaRelayer.sol\":867:881  return success */\n      swap3\n      pop\n      pop\n        /* \"contracts/MetaRelayer.sol\":500:886  function send(address target, bytes calldata data) external payable onlyRole(RELAYER) returns(bool) {... */\n      pop\n      swap4\n      swap3\n      pop\n      pop\n      pop\n      jump\t// out\n        /* \"@openzeppelin/contracts/access/AccessControl.sol\":5354:5501  function revokeRole(bytes32 role, address account) public virtual override onlyRole(getRoleAdmin(role)) {... */\n    tag_63:\n        /* \"@openzeppelin/contracts/access/AccessControl.sol\":5438:5456  getRoleAdmin(role) */\n      tag_137\n        /* \"@openzeppelin/contracts/access/AccessControl.sol\":5451:5455  role */\n      dup3\n        /* \"@openzeppelin/contracts/access/AccessControl.sol\":5438:5450  getRoleAdmin */\n      tag_29\n        /* \"@openzeppelin/contracts/access/AccessControl.sol\":5438:5456  getRoleAdmin(role) */\n      jump\t// in\n    tag_137:\n        /* \"@openzeppelin/contracts/access/AccessControl.sol\":2631:2647  _checkRole(role) */\n      tag_139\n        /* \"@openzeppelin/contracts/access/AccessControl.sol\":2642:2646  role */\n      dup2\n        /* \"@openzeppelin/contracts/access/AccessControl.sol\":2631:2641  _checkRole */\n      tag_72\n        /* \"@openzeppelin/contracts/access/AccessControl.sol\":2631:2647  _checkRole(role) */\n      jump\t// in\n    tag_139:\n        /* \"@openzeppelin/contracts/access/AccessControl.sol\":5468:5494  _revokeRole(role, account) */\n      tag_141\n        /* \"@openzeppelin/contracts/access/AccessControl.sol\":5480:5484  role */\n      dup4\n        /* \"@openzeppelin/contracts/access/AccessControl.sol\":5486:5493  account */\n      dup4\n        /* \"@openzeppelin/contracts/access/AccessControl.sol\":5468:5479  _revokeRole */\n      tag_83\n        /* \"@openzeppelin/contracts/access/AccessControl.sol\":5468:5494  _revokeRole(role, account) */\n      jump\t// in\n    tag_141:\n        /* \"@openzeppelin/contracts/access/AccessControl.sol\":5354:5501  function revokeRole(bytes32 role, address account) public virtual override onlyRole(getRoleAdmin(role)) {... */\n      pop\n      pop\n      pop\n      jump\t// out\n        /* \"@openzeppelin/contracts/utils/introspection/ERC165.sol\":829:984  function supportsInterface(bytes4 interfaceId) public view virtual override returns (bool) {... */\n    tag_67:\n        /* \"@openzeppelin/contracts/utils/introspection/ERC165.sol\":914:918  bool */\n      0x00\n        /* \"@openzeppelin/contracts/utils/introspection/ERC165.sol\":952:977  type(IERC165).interfaceId */\n      0x01ffc9a700000000000000000000000000000000000000000000000000000000\n        /* \"@openzeppelin/contracts/utils/introspection/ERC165.sol\":937:977  interfaceId == type(IERC165).interfaceId */\n      not(0xffffffffffffffffffffffffffffffffffffffffffffffffffffffff)\n      and\n        /* \"@openzeppelin/contracts/utils/introspection/ERC165.sol\":937:948  interfaceId */\n      dup3\n        /* \"@openzeppelin/contracts/utils/introspection/ERC165.sol\":937:977  interfaceId == type(IERC165).interfaceId */\n      not(0xffffffffffffffffffffffffffffffffffffffffffffffffffffffff)\n      and\n      eq\n        /* \"@openzeppelin/contracts/utils/introspection/ERC165.sol\":930:977  return interfaceId == type(IERC165).interfaceId */\n      swap1\n      pop\n        /* \"@openzeppelin/contracts/utils/introspection/ERC165.sol\":829:984  function supportsInterface(bytes4 interfaceId) public view virtual override returns (bool) {... */\n      swap2\n      swap1\n      pop\n      jump\t// out\n        /* \"@openzeppelin/contracts/access/AccessControl.sol\":3460:3563  function _checkRole(bytes32 role) internal view virtual {... */\n    tag_72:\n        /* \"@openzeppelin/contracts/access/AccessControl.sol\":3526:3556  _checkRole(role, _msgSender()) */\n      tag_144\n        /* \"@openzeppelin/contracts/access/AccessControl.sol\":3537:3541  role */\n      dup2\n        /* \"@openzeppelin/contracts/access/AccessControl.sol\":3543:3555  _msgSender() */\n      tag_145\n        /* \"@openzeppelin/contracts/access/AccessControl.sol\":3543:3553  _msgSender */\n      tag_78\n        /* \"@openzeppelin/contracts/access/AccessControl.sol\":3543:3555  _msgSender() */\n      jump\t// in\n    tag_145:\n        /* \"@openzeppelin/contracts/access/AccessControl.sol\":3526:3536  _checkRole */\n      tag_146\n        /* \"@openzeppelin/contracts/access/AccessControl.sol\":3526:3556  _checkRole(role, _msgSender()) */\n      jump\t// in\n    tag_144:\n        /* \"@openzeppelin/contracts/access/AccessControl.sol\":3460:3563  function _checkRole(bytes32 role) internal view virtual {... */\n      pop\n      jump\t// out\n        /* \"@openzeppelin/contracts/access/AccessControl.sol\":7587:7820  function _grantRole(bytes32 role, address account) internal virtual {... */\n    tag_75:\n        /* \"@openzeppelin/contracts/access/AccessControl.sol\":7670:7692  hasRole(role, account) */\n      tag_148\n        /* \"@openzeppelin/contracts/access/AccessControl.sol\":7678:7682  role */\n      dup3\n        /* \"@openzeppelin/contracts/access/AccessControl.sol\":7684:7691  account */\n      dup3\n        /* \"@openzeppelin/contracts/access/AccessControl.sol\":7670:7677  hasRole */\n      tag_49\n        /* \"@openzeppelin/contracts/access/AccessControl.sol\":7670:7692  hasRole(role, account) */\n      jump\t// in\n    tag_148:\n        /* \"@openzeppelin/contracts/access/AccessControl.sol\":7665:7814  if (!hasRole(role, account)) {... */\n      tag_149\n      jumpi\n        /* \"@openzeppelin/contracts/access/AccessControl.sol\":7740:7744  true */\n      0x01\n        /* \"@openzeppelin/contracts/access/AccessControl.sol\":7708:7714  _roles */\n      0x00\n        /* \"@openzeppelin/contracts/access/AccessControl.sol\":7708:7720  _roles[role] */\n      dup1\n        /* \"@openzeppelin/contracts/access/AccessControl.sol\":7715:7719  role */\n      dup5\n        /* \"@openzeppelin/contracts/access/AccessControl.sol\":7708:7720  _roles[role] */\n      dup2\n      mstore\n      0x20\n      add\n      swap1\n      dup2\n      mstore\n      0x20\n      add\n      0x00\n      keccak256\n        /* \"@openzeppelin/contracts/access/AccessControl.sol\":7708:7728  _roles[role].members */\n      0x00\n      add\n        /* \"@openzeppelin/contracts/access/AccessControl.sol\":7708:7737  _roles[role].members[account] */\n      0x00\n        /* \"@openzeppelin/contracts/access/AccessControl.sol\":7729:7736  account */\n      dup4\n        /* \"@openzeppelin/contracts/access/AccessControl.sol\":7708:7737  _roles[role].members[account] */\n      0xffffffffffffffffffffffffffffffffffffffff\n      and\n      0xffffffffffffffffffffffffffffffffffffffff\n      and\n      dup2\n      mstore\n      0x20\n      add\n      swap1\n      dup2\n      mstore\n      0x20\n      add\n      0x00\n      keccak256\n      0x00\n        /* \"@openzeppelin/contracts/access/AccessControl.sol\":7708:7744  _roles[role].members[account] = true */\n      0x0100\n      exp\n      dup2\n      sload\n      dup2\n      0xff\n      mul\n      not\n      and\n      swap1\n      dup4\n      iszero\n      iszero\n      mul\n      or\n      swap1\n      sstore\n      pop\n        /* \"@openzeppelin/contracts/access/AccessControl.sol\":7790:7802  _msgSender() */\n      tag_150\n        /* \"@openzeppelin/contracts/access/AccessControl.sol\":7790:7800  _msgSender */\n      tag_78\n        /* \"@openzeppelin/contracts/access/AccessControl.sol\":7790:7802  _msgSender() */\n      jump\t// in\n    tag_150:\n        /* \"@openzeppelin/contracts/access/AccessControl.sol\":7763:7803  RoleGranted(role, account, _msgSender()) */\n      0xffffffffffffffffffffffffffffffffffffffff\n      and\n        /* \"@openzeppelin/contracts/access/AccessControl.sol\":7781:7788  account */\n      dup2\n        /* \"@openzeppelin/contracts/access/AccessControl.sol\":7763:7803  RoleGranted(role, account, _msgSender()) */\n      0xffffffffffffffffffffffffffffffffffffffff\n      and\n        /* \"@openzeppelin/contracts/access/AccessControl.sol\":7775:7779  role */\n      dup4\n        /* \"@openzeppelin/contracts/access/AccessControl.sol\":7763:7803  RoleGranted(role, account, _msgSender()) */\n      0x2f8788117e7eff1d82e926ec794901d17c78024a50270940304540a733656f0d\n      mload(0x40)\n      mload(0x40)\n      dup1\n      swap2\n      sub\n      swap1\n      log4\n        /* \"@openzeppelin/contracts/access/AccessControl.sol\":7665:7814  if (!hasRole(role, account)) {... */\n    tag_149:\n        /* \"@openzeppelin/contracts/access/AccessControl.sol\":7587:7820  function _grantRole(bytes32 role, address account) internal virtual {... */\n      pop\n      pop\n      jump\t// out\n        /* \"@openzeppelin/contracts/utils/Context.sol\":640:736  function _msgSender() internal view virtual returns (address) {... */\n    tag_78:\n        /* \"@openzeppelin/contracts/utils/Context.sol\":693:700  address */\n      0x00\n        /* \"@openzeppelin/contracts/utils/Context.sol\":719:729  msg.sender */\n      caller\n        /* \"@openzeppelin/contracts/utils/Context.sol\":712:729  return msg.sender */\n      swap1\n      pop\n        /* \"@openzeppelin/contracts/utils/Context.sol\":640:736  function _msgSender() internal view virtual returns (address) {... */\n      swap1\n      jump\t// out\n        /* \"@openzeppelin/contracts/access/AccessControl.sol\":7991:8225  function _revokeRole(bytes32 role, address account) internal virtual {... */\n    tag_83:\n        /* \"@openzeppelin/contracts/access/AccessControl.sol\":8074:8096  hasRole(role, account) */\n      tag_153\n        /* \"@openzeppelin/contracts/access/AccessControl.sol\":8082:8086  role */\n      dup3\n        /* \"@openzeppelin/contracts/access/AccessControl.sol\":8088:8095  account */\n      dup3\n        /* \"@openzeppelin/contracts/access/AccessControl.sol\":8074:8081  hasRole */\n      tag_49\n        /* \"@openzeppelin/contracts/access/AccessControl.sol\":8074:8096  hasRole(role, account) */\n      jump\t// in\n    tag_153:\n        /* \"@openzeppelin/contracts/access/AccessControl.sol\":8070:8219  if (hasRole(role, account)) {... */\n      iszero\n      tag_154\n      jumpi\n        /* \"@openzeppelin/contracts/access/AccessControl.sol\":8144:8149  false */\n      0x00\n        /* \"@openzeppelin/contracts/access/AccessControl.sol\":8112:8118  _roles */\n      dup1\n        /* \"@openzeppelin/contracts/access/AccessControl.sol\":8112:8124  _roles[role] */\n      0x00\n        /* \"@openzeppelin/contracts/access/AccessControl.sol\":8119:8123  role */\n      dup5\n        /* \"@openzeppelin/contracts/access/AccessControl.sol\":8112:8124  _roles[role] */\n      dup2\n      mstore\n      0x20\n      add\n      swap1\n      dup2\n      mstore\n      0x20\n      add\n      0x00\n      keccak256\n        /* \"@openzeppelin/contracts/access/AccessControl.sol\":8112:8132  _roles[role].members */\n      0x00\n      add\n        /* \"@openzeppelin/contracts/access/AccessControl.sol\":8112:8141  _roles[role].members[account] */\n      0x00\n        /* \"@openzeppelin/contracts/access/AccessControl.sol\":8133:8140  account */\n      dup4\n        /* \"@openzeppelin/contracts/access/AccessControl.sol\":8112:8141  _roles[role].members[account] */\n      0xffffffffffffffffffffffffffffffffffffffff\n      and\n      0xffffffffffffffffffffffffffffffffffffffff\n      and\n      dup2\n      mstore\n      0x20\n      add\n      swap1\n      dup2\n      mstore\n      0x20\n      add\n      0x00\n      keccak256\n      0x00\n        /* \"@openzeppelin/contracts/access/AccessControl.sol\":8112:8149  _roles[role].members[account] = false */\n      0x0100\n      exp\n      dup2\n      sload\n      dup2\n      0xff\n      mul\n      not\n      and\n      swap1\n      dup4\n      iszero\n      iszero\n      mul\n      or\n      swap1\n      sstore\n      pop\n        /* \"@openzeppelin/contracts/access/AccessControl.sol\":8195:8207  _msgSender() */\n      tag_155\n        /* \"@openzeppelin/contracts/access/AccessControl.sol\":8195:8205  _msgSender */\n      tag_78\n        /* \"@openzeppelin/contracts/access/AccessControl.sol\":8195:8207  _msgSender() */\n      jump\t// in\n    tag_155:\n        /* \"@openzeppelin/contracts/access/AccessControl.sol\":8168:8208  RoleRevoked(role, account, _msgSender()) */\n      0xffffffffffffffffffffffffffffffffffffffff\n      and\n        /* \"@openzeppelin/contracts/access/AccessControl.sol\":8186:8193  account */\n      dup2\n        /* \"@openzeppelin/contracts/access/AccessControl.sol\":8168:8208  RoleRevoked(role, account, _msgSender()) */\n      0xffffffffffffffffffffffffffffffffffffffff\n      and\n        /* \"@openzeppelin/contracts/access/AccessControl.sol\":8180:8184  role */\n      dup4\n        /* \"@openzeppelin/contracts/access/AccessControl.sol\":8168:8208  RoleRevoked(role, account, _msgSender()) */\n      0xf6391f5c32d9c69d2a47ea670b442974b53935d1edc7fd64eb21e047a839171b\n      mload(0x40)\n      mload(0x40)\n      dup1\n      swap2\n      sub\n      swap1\n      log4\n        /* \"@openzeppelin/contracts/access/AccessControl.sol\":8070:8219  if (hasRole(role, account)) {... */\n    tag_154:\n        /* \"@openzeppelin/contracts/access/AccessControl.sol\":7991:8225  function _revokeRole(bytes32 role, address account) internal virtual {... */\n      pop\n      pop\n      jump\t// out\n        /* \"@openzeppelin/contracts/access/AccessControl.sol\":3844:4323  function _checkRole(bytes32 role, address account) internal view virtual {... */\n    tag_146:\n        /* \"@openzeppelin/contracts/access/AccessControl.sol\":3932:3954  hasRole(role, account) */\n      tag_157\n        /* \"@openzeppelin/contracts/access/AccessControl.sol\":3940:3944  role */\n      dup3\n        /* \"@openzeppelin/contracts/access/AccessControl.sol\":3946:3953  account */\n      dup3\n        /* \"@openzeppelin/contracts/access/AccessControl.sol\":3932:3939  hasRole */\n      tag_49\n        /* \"@openzeppelin/contracts/access/AccessControl.sol\":3932:3954  hasRole(role, account) */\n      jump\t// in\n    tag_157:\n        /* \"@openzeppelin/contracts/access/AccessControl.sol\":3927:4317  if (!hasRole(role, account)) {... */\n      tag_158\n      jumpi\n        /* \"@openzeppelin/contracts/access/AccessControl.sol\":4115:4143  Strings.toHexString(account) */\n      tag_159\n        /* \"@openzeppelin/contracts/access/AccessControl.sol\":4135:4142  account */\n      dup2\n        /* \"@openzeppelin/contracts/access/AccessControl.sol\":4115:4134  Strings.toHexString */\n      tag_160\n        /* \"@openzeppelin/contracts/access/AccessControl.sol\":4115:4143  Strings.toHexString(account) */\n      jump\t// in\n    tag_159:\n        /* \"@openzeppelin/contracts/access/AccessControl.sol\":4214:4252  Strings.toHexString(uint256(role), 32) */\n      tag_161\n        /* \"@openzeppelin/contracts/access/AccessControl.sol\":4242:4246  role */\n      dup4\n        /* \"@openzeppelin/contracts/access/AccessControl.sol\":4234:4247  uint256(role) */\n      0x00\n      shr\n        /* \"@openzeppelin/contracts/access/AccessControl.sol\":4249:4251  32 */\n      0x20\n        /* \"@openzeppelin/contracts/access/AccessControl.sol\":4214:4233  Strings.toHexString */\n      tag_162\n        /* \"@openzeppelin/contracts/access/AccessControl.sol\":4214:4252  Strings.toHexString(uint256(role), 32) */\n      jump\t// in\n    tag_161:\n        /* \"@openzeppelin/contracts/access/AccessControl.sol\":4022:4274  abi.encodePacked(... */\n      add(0x20, mload(0x40))\n      tag_163\n      swap3\n      swap2\n      swap1\n      tag_164\n      jump\t// in\n    tag_163:\n      mload(0x40)\n      0x20\n      dup2\n      dup4\n      sub\n      sub\n      dup2\n      mstore\n      swap1\n      0x40\n      mstore\n        /* \"@openzeppelin/contracts/access/AccessControl.sol\":3970:4306  revert(... */\n      mload(0x40)\n      0x08c379a000000000000000000000000000000000000000000000000000000000\n      dup2\n      mstore\n      0x04\n      add\n      tag_165\n      swap2\n      swap1\n      tag_166\n      jump\t// in\n    tag_165:\n      mload(0x40)\n      dup1\n      swap2\n      sub\n      swap1\n      revert\n        /* \"@openzeppelin/contracts/access/AccessControl.sol\":3927:4317  if (!hasRole(role, account)) {... */\n    tag_158:\n        /* \"@openzeppelin/contracts/access/AccessControl.sol\":3844:4323  function _checkRole(bytes32 role, address account) internal view virtual {... */\n      pop\n      pop\n      jump\t// out\n        /* \"@openzeppelin/contracts/utils/Strings.sol\":2407:2556  function toHexString(address addr) internal pure returns (string memory) {... */\n    tag_160:\n        /* \"@openzeppelin/contracts/utils/Strings.sol\":2465:2478  string memory */\n      0x60\n        /* \"@openzeppelin/contracts/utils/Strings.sol\":2497:2549  toHexString(uint256(uint160(addr)), _ADDRESS_LENGTH) */\n      tag_168\n        /* \"@openzeppelin/contracts/utils/Strings.sol\":2525:2529  addr */\n      dup3\n        /* \"@openzeppelin/contracts/utils/Strings.sol\":2509:2531  uint256(uint160(addr)) */\n      0xffffffffffffffffffffffffffffffffffffffff\n      and\n        /* \"@openzeppelin/contracts/utils/Strings.sol\":343:345  20 */\n      0x14\n        /* \"@openzeppelin/contracts/utils/Strings.sol\":2497:2549  toHexString(uint256(uint160(addr)), _ADDRESS_LENGTH) */\n      0xff\n      and\n        /* \"@openzeppelin/contracts/utils/Strings.sol\":2497:2508  toHexString */\n      tag_162\n        /* \"@openzeppelin/contracts/utils/Strings.sol\":2497:2549  toHexString(uint256(uint160(addr)), _ADDRESS_LENGTH) */\n      jump\t// in\n    tag_168:\n        /* \"@openzeppelin/contracts/utils/Strings.sol\":2490:2549  return toHexString(uint256(uint160(addr)), _ADDRESS_LENGTH) */\n      swap1\n      pop\n        /* \"@openzeppelin/contracts/utils/Strings.sol\":2407:2556  function toHexString(address addr) internal pure returns (string memory) {... */\n      swap2\n      swap1\n      pop\n      jump\t// out\n        /* \"@openzeppelin/contracts/utils/Strings.sol\":1818:2255  function toHexString(uint256 value, uint256 length) internal pure returns (string memory) {... */\n    tag_162:\n        /* \"@openzeppelin/contracts/utils/Strings.sol\":1893:1906  string memory */\n      0x60\n        /* \"@openzeppelin/contracts/utils/Strings.sol\":1918:1937  bytes memory buffer */\n      0x00\n        /* \"@openzeppelin/contracts/utils/Strings.sol\":1963:1964  2 */\n      0x02\n        /* \"@openzeppelin/contracts/utils/Strings.sol\":1954:1960  length */\n      dup4\n        /* \"@openzeppelin/contracts/utils/Strings.sol\":1950:1951  2 */\n      0x02\n        /* \"@openzeppelin/contracts/utils/Strings.sol\":1950:1960  2 * length */\n      tag_170\n      swap2\n      swap1\n      tag_171\n      jump\t// in\n    tag_170:\n        /* \"@openzeppelin/contracts/utils/Strings.sol\":1950:1964  2 * length + 2 */\n      tag_172\n      swap2\n      swap1\n      tag_173\n      jump\t// in\n    tag_172:\n        /* \"@openzeppelin/contracts/utils/Strings.sol\":1940:1965  new bytes(2 * length + 2) */\n      0xffffffffffffffff\n      dup2\n      gt\n      iszero\n      tag_174\n      jumpi\n      tag_175\n      tag_95\n      jump\t// in\n    tag_175:\n    tag_174:\n      mload(0x40)\n      swap1\n      dup1\n      dup3\n      mstore\n      dup1\n      0x1f\n      add\n      not(0x1f)\n      and\n      0x20\n      add\n      dup3\n      add\n      0x40\n      mstore\n      dup1\n      iszero\n      tag_176\n      jumpi\n      dup2\n      0x20\n      add\n      0x01\n      dup3\n      mul\n      dup1\n      calldatasize\n      dup4\n      calldatacopy\n      dup1\n      dup3\n      add\n      swap2\n      pop\n      pop\n      swap1\n      pop\n    tag_176:\n      pop\n        /* \"@openzeppelin/contracts/utils/Strings.sol\":1918:1965  bytes memory buffer = new bytes(2 * length + 2) */\n      swap1\n      pop\n        /* \"@openzeppelin/contracts/utils/Strings.sol\":1975:1990  buffer[0] = \"0\" */\n      0x3000000000000000000000000000000000000000000000000000000000000000\n        /* \"@openzeppelin/contracts/utils/Strings.sol\":1975:1981  buffer */\n      dup2\n        /* \"@openzeppelin/contracts/utils/Strings.sol\":1982:1983  0 */\n      0x00\n        /* \"@openzeppelin/contracts/utils/Strings.sol\":1975:1984  buffer[0] */\n      dup2\n      mload\n      dup2\n      lt\n      tag_177\n      jumpi\n      tag_178\n      tag_102\n      jump\t// in\n    tag_178:\n    tag_177:\n      0x20\n      add\n      add\n        /* \"@openzeppelin/contracts/utils/Strings.sol\":1975:1990  buffer[0] = \"0\" */\n      swap1\n      not(0xffffffffffffffffffffffffffffffffffffffffffffffffffffffffffffff)\n      and\n      swap1\n      dup2\n      0x00\n      byte\n      swap1\n      mstore8\n      pop\n        /* \"@openzeppelin/contracts/utils/Strings.sol\":2000:2015  buffer[1] = \"x\" */\n      0x7800000000000000000000000000000000000000000000000000000000000000\n        /* \"@openzeppelin/contracts/utils/Strings.sol\":2000:2006  buffer */\n      dup2\n        /* \"@openzeppelin/contracts/utils/Strings.sol\":2007:2008  1 */\n      0x01\n        /* \"@openzeppelin/contracts/utils/Strings.sol\":2000:2009  buffer[1] */\n      dup2\n      mload\n      dup2\n      lt\n      tag_179\n      jumpi\n      tag_180\n      tag_102\n      jump\t// in\n    tag_180:\n    tag_179:\n      0x20\n      add\n      add\n        /* \"@openzeppelin/contracts/utils/Strings.sol\":2000:2015  buffer[1] = \"x\" */\n      swap1\n      not(0xffffffffffffffffffffffffffffffffffffffffffffffffffffffffffffff)\n      and\n      swap1\n      dup2\n      0x00\n      byte\n      swap1\n      mstore8\n      pop\n        /* \"@openzeppelin/contracts/utils/Strings.sol\":2030:2039  uint256 i */\n      0x00\n        /* \"@openzeppelin/contracts/utils/Strings.sol\":2055:2056  1 */\n      0x01\n        /* \"@openzeppelin/contracts/utils/Strings.sol\":2046:2052  length */\n      dup5\n        /* \"@openzeppelin/contracts/utils/Strings.sol\":2042:2043  2 */\n      0x02\n        /* \"@openzeppelin/contracts/utils/Strings.sol\":2042:2052  2 * length */\n      tag_184\n      swap2\n      swap1\n      tag_171\n      jump\t// in\n    tag_184:\n        /* \"@openzeppelin/contracts/utils/Strings.sol\":2042:2056  2 * length + 1 */\n      tag_185\n      swap2\n      swap1\n      tag_173\n      jump\t// in\n    tag_185:\n        /* \"@openzeppelin/contracts/utils/Strings.sol\":2030:2056  uint256 i = 2 * length + 1 */\n      swap1\n      pop\n        /* \"@openzeppelin/contracts/utils/Strings.sol\":2025:2153  for (uint256 i = 2 * length + 1; i > 1; --i) {... */\n    tag_181:\n        /* \"@openzeppelin/contracts/utils/Strings.sol\":2062:2063  1 */\n      0x01\n        /* \"@openzeppelin/contracts/utils/Strings.sol\":2058:2059  i */\n      dup2\n        /* \"@openzeppelin/contracts/utils/Strings.sol\":2058:2063  i > 1 */\n      gt\n        /* \"@openzeppelin/contracts/utils/Strings.sol\":2025:2153  for (uint256 i = 2 * length + 1; i > 1; --i) {... */\n      iszero\n      tag_182\n      jumpi\n        /* \"@openzeppelin/contracts/utils/Strings.sol\":2096:2104  _SYMBOLS */\n      0x3031323334353637383961626364656600000000000000000000000000000000\n        /* \"@openzeppelin/contracts/utils/Strings.sol\":2113:2116  0xf */\n      0x0f\n        /* \"@openzeppelin/contracts/utils/Strings.sol\":2105:2110  value */\n      dup7\n        /* \"@openzeppelin/contracts/utils/Strings.sol\":2105:2116  value & 0xf */\n      and\n        /* \"@openzeppelin/contracts/utils/Strings.sol\":2096:2117  _SYMBOLS[value & 0xf] */\n      0x10\n      dup2\n      lt\n      tag_186\n      jumpi\n      tag_187\n      tag_102\n      jump\t// in\n    tag_187:\n    tag_186:\n      byte\n      0xf8\n      shl\n        /* \"@openzeppelin/contracts/utils/Strings.sol\":2084:2090  buffer */\n      dup3\n        /* \"@openzeppelin/contracts/utils/Strings.sol\":2091:2092  i */\n      dup3\n        /* \"@openzeppelin/contracts/utils/Strings.sol\":2084:2093  buffer[i] */\n      dup2\n      mload\n      dup2\n      lt\n      tag_188\n      jumpi\n      tag_189\n      tag_102\n      jump\t// in\n    tag_189:\n    tag_188:\n      0x20\n      add\n      add\n        /* \"@openzeppelin/contracts/utils/Strings.sol\":2084:2117  buffer[i] = _SYMBOLS[value & 0xf] */\n      swap1\n      not(0xffffffffffffffffffffffffffffffffffffffffffffffffffffffffffffff)\n      and\n      swap1\n      dup2\n      0x00\n      byte\n      swap1\n      mstore8\n      pop\n        /* \"@openzeppelin/contracts/utils/Strings.sol\":2141:2142  4 */\n      0x04\n        /* \"@openzeppelin/contracts/utils/Strings.sol\":2131:2142  value >>= 4 */\n      dup6\n      swap1\n      shr\n      swap5\n      pop\n        /* \"@openzeppelin/contracts/utils/Strings.sol\":2065:2068  --i */\n      dup1\n      tag_190\n      swap1\n      tag_191\n      jump\t// in\n    tag_190:\n      swap1\n      pop\n        /* \"@openzeppelin/contracts/utils/Strings.sol\":2025:2153  for (uint256 i = 2 * length + 1; i > 1; --i) {... */\n      jump(tag_181)\n    tag_182:\n      pop\n        /* \"@openzeppelin/contracts/utils/Strings.sol\":2179:2180  0 */\n      0x00\n        /* \"@openzeppelin/contracts/utils/Strings.sol\":2170:2175  value */\n      dup5\n        /* \"@openzeppelin/contracts/utils/Strings.sol\":2170:2180  value == 0 */\n      eq\n        /* \"@openzeppelin/contracts/utils/Strings.sol\":2162:2217  require(value == 0, \"Strings: hex length insufficient\") */\n      tag_192\n      jumpi\n      mload(0x40)\n      0x08c379a000000000000000000000000000000000000000000000000000000000\n      dup2\n      mstore\n      0x04\n      add\n      tag_193\n      swap1\n      tag_194\n      jump\t// in\n    tag_193:\n      mload(0x40)\n      dup1\n      swap2\n      sub\n      swap1\n      revert\n    tag_192:\n        /* \"@openzeppelin/contracts/utils/Strings.sol\":2241:2247  buffer */\n      dup1\n        /* \"@openzeppelin/contracts/utils/Strings.sol\":2227:2248  return string(buffer) */\n      swap2\n      pop\n      pop\n        /* \"@openzeppelin/contracts/utils/Strings.sol\":1818:2255  function toHexString(uint256 value, uint256 length) internal pure returns (string memory) {... */\n      swap3\n      swap2\n      pop\n      pop\n      jump\t// out\n        /* \"#utility.yul\":7:82   */\n    tag_195:\n        /* \"#utility.yul\":40:46   */\n      0x00\n        /* \"#utility.yul\":73:75   */\n      0x40\n        /* \"#utility.yul\":67:76   */\n      mload\n        /* \"#utility.yul\":57:76   */\n      swap1\n      pop\n        /* \"#utility.yul\":7:82   */\n      swap1\n      jump\t// out\n        /* \"#utility.yul\":88:205   */\n    tag_196:\n        /* \"#utility.yul\":197:198   */\n      0x00\n        /* \"#utility.yul\":194:195   */\n      dup1\n        /* \"#utility.yul\":187:199   */\n      revert\n        /* \"#utility.yul\":211:328   */\n    tag_197:\n        /* \"#utility.yul\":320:321   */\n      0x00\n        /* \"#utility.yul\":317:318   */\n      dup1\n        /* \"#utility.yul\":310:322   */\n      revert\n        /* \"#utility.yul\":334:483   */\n    tag_198:\n        /* \"#utility.yul\":370:377   */\n      0x00\n        /* \"#utility.yul\":410:476   */\n      0xffffffff00000000000000000000000000000000000000000000000000000000\n        /* \"#utility.yul\":403:408   */\n      dup3\n        /* \"#utility.yul\":399:477   */\n      and\n        /* \"#utility.yul\":388:477   */\n      swap1\n      pop\n        /* \"#utility.yul\":334:483   */\n      swap2\n      swap1\n      pop\n      jump\t// out\n        /* \"#utility.yul\":489:609   */\n    tag_199:\n        /* \"#utility.yul\":561:584   */\n      tag_268\n        /* \"#utility.yul\":578:583   */\n      dup2\n        /* \"#utility.yul\":561:584   */\n      tag_198\n      jump\t// in\n    tag_268:\n        /* \"#utility.yul\":554:559   */\n      dup2\n        /* \"#utility.yul\":551:585   */\n      eq\n        /* \"#utility.yul\":541:603   */\n      tag_269\n      jumpi\n        /* \"#utility.yul\":599:600   */\n      0x00\n        /* \"#utility.yul\":596:597   */\n      dup1\n        /* \"#utility.yul\":589:601   */\n      revert\n        /* \"#utility.yul\":541:603   */\n    tag_269:\n        /* \"#utility.yul\":489:609   */\n      pop\n      jump\t// out\n        /* \"#utility.yul\":615:752   */\n    tag_200:\n        /* \"#utility.yul\":660:665   */\n      0x00\n        /* \"#utility.yul\":698:704   */\n      dup2\n        /* \"#utility.yul\":685:705   */\n      calldataload\n        /* \"#utility.yul\":676:705   */\n      swap1\n      pop\n        /* \"#utility.yul\":714:746   */\n      tag_271\n        /* \"#utility.yul\":740:745   */\n      dup2\n        /* \"#utility.yul\":714:746   */\n      tag_199\n      jump\t// in\n    tag_271:\n        /* \"#utility.yul\":615:752   */\n      swap3\n      swap2\n      pop\n      pop\n      jump\t// out\n        /* \"#utility.yul\":758:1085   */\n    tag_16:\n        /* \"#utility.yul\":816:822   */\n      0x00\n        /* \"#utility.yul\":865:867   */\n      0x20\n        /* \"#utility.yul\":853:862   */\n      dup3\n        /* \"#utility.yul\":844:851   */\n      dup5\n        /* \"#utility.yul\":840:863   */\n      sub\n        /* \"#utility.yul\":836:868   */\n      slt\n        /* \"#utility.yul\":833:952   */\n      iszero\n      tag_273\n      jumpi\n        /* \"#utility.yul\":871:950   */\n      tag_274\n      tag_196\n      jump\t// in\n    tag_274:\n        /* \"#utility.yul\":833:952   */\n    tag_273:\n        /* \"#utility.yul\":991:992   */\n      0x00\n        /* \"#utility.yul\":1016:1068   */\n      tag_275\n        /* \"#utility.yul\":1060:1067   */\n      dup5\n        /* \"#utility.yul\":1051:1057   */\n      dup3\n        /* \"#utility.yul\":1040:1049   */\n      dup6\n        /* \"#utility.yul\":1036:1058   */\n      add\n        /* \"#utility.yul\":1016:1068   */\n      tag_200\n      jump\t// in\n    tag_275:\n        /* \"#utility.yul\":1006:1068   */\n      swap2\n      pop\n        /* \"#utility.yul\":962:1078   */\n      pop\n        /* \"#utility.yul\":758:1085   */\n      swap3\n      swap2\n      pop\n      pop\n      jump\t// out\n        /* \"#utility.yul\":1091:1181   */\n    tag_201:\n        /* \"#utility.yul\":1125:1132   */\n      0x00\n        /* \"#utility.yul\":1168:1173   */\n      dup2\n        /* \"#utility.yul\":1161:1174   */\n      iszero\n        /* \"#utility.yul\":1154:1175   */\n      iszero\n        /* \"#utility.yul\":1143:1175   */\n      swap1\n      pop\n        /* \"#utility.yul\":1091:1181   */\n      swap2\n      swap1\n      pop\n      jump\t// out\n        /* \"#utility.yul\":1187:1296   */\n    tag_202:\n        /* \"#utility.yul\":1268:1289   */\n      tag_278\n        /* \"#utility.yul\":1283:1288   */\n      dup2\n        /* \"#utility.yul\":1268:1289   */\n      tag_201\n      jump\t// in\n    tag_278:\n        /* \"#utility.yul\":1263:1266   */\n      dup3\n        /* \"#utility.yul\":1256:1290   */\n      mstore\n        /* \"#utility.yul\":1187:1296   */\n      pop\n      pop\n      jump\t// out\n        /* \"#utility.yul\":1302:1512   */\n    tag_19:\n        /* \"#utility.yul\":1389:1393   */\n      0x00\n        /* \"#utility.yul\":1427:1429   */\n      0x20\n        /* \"#utility.yul\":1416:1425   */\n      dup3\n        /* \"#utility.yul\":1412:1430   */\n      add\n        /* \"#utility.yul\":1404:1430   */\n      swap1\n      pop\n        /* \"#utility.yul\":1440:1505   */\n      tag_280\n        /* \"#utility.yul\":1502:1503   */\n      0x00\n        /* \"#utility.yul\":1491:1500   */\n      dup4\n        /* \"#utility.yul\":1487:1504   */\n      add\n        /* \"#utility.yul\":1478:1484   */\n      dup5\n        /* \"#utility.yul\":1440:1505   */\n      tag_202\n      jump\t// in\n    tag_280:\n        /* \"#utility.yul\":1302:1512   */\n      swap3\n      swap2\n      pop\n      pop\n      jump\t// out\n        /* \"#utility.yul\":1518:1595   */\n    tag_203:\n        /* \"#utility.yul\":1555:1562   */\n      0x00\n        /* \"#utility.yul\":1584:1589   */\n      dup2\n        /* \"#utility.yul\":1573:1589   */\n      swap1\n      pop\n        /* \"#utility.yul\":1518:1595   */\n      swap2\n      swap1\n      pop\n      jump\t// out\n        /* \"#utility.yul\":1601:1719   */\n    tag_204:\n        /* \"#utility.yul\":1688:1712   */\n      tag_283\n        /* \"#utility.yul\":1706:1711   */\n      dup2\n        /* \"#utility.yul\":1688:1712   */\n      tag_203\n      jump\t// in\n    tag_283:\n        /* \"#utility.yul\":1683:1686   */\n      dup3\n        /* \"#utility.yul\":1676:1713   */\n      mstore\n        /* \"#utility.yul\":1601:1719   */\n      pop\n      pop\n      jump\t// out\n        /* \"#utility.yul\":1725:1947   */\n    tag_24:\n        /* \"#utility.yul\":1818:1822   */\n      0x00\n        /* \"#utility.yul\":1856:1858   */\n      0x20\n        /* \"#utility.yul\":1845:1854   */\n      dup3\n        /* \"#utility.yul\":1841:1859   */\n      add\n        /* \"#utility.yul\":1833:1859   */\n      swap1\n      pop\n        /* \"#utility.yul\":1869:1940   */\n      tag_285\n        /* \"#utility.yul\":1937:1938   */\n      0x00\n        /* \"#utility.yul\":1926:1935   */\n      dup4\n        /* \"#utility.yul\":1922:1939   */\n      add\n        /* \"#utility.yul\":1913:1919   */\n      dup5\n        /* \"#utility.yul\":1869:1940   */\n      tag_204\n      jump\t// in\n    tag_285:\n        /* \"#utility.yul\":1725:1947   */\n      swap3\n      swap2\n      pop\n      pop\n      jump\t// out\n        /* \"#utility.yul\":1953:2075   */\n    tag_205:\n        /* \"#utility.yul\":2026:2050   */\n      tag_287\n        /* \"#utility.yul\":2044:2049   */\n      dup2\n        /* \"#utility.yul\":2026:2050   */\n      tag_203\n      jump\t// in\n    tag_287:\n        /* \"#utility.yul\":2019:2024   */\n      dup2\n        /* \"#utility.yul\":2016:2051   */\n      eq\n        /* \"#utility.yul\":2006:2069   */\n      tag_288\n      jumpi\n        /* \"#utility.yul\":2065:2066   */\n      0x00\n        /* \"#utility.yul\":2062:2063   */\n      dup1\n        /* \"#utility.yul\":2055:2067   */\n      revert\n        /* \"#utility.yul\":2006:2069   */\n    tag_288:\n        /* \"#utility.yul\":1953:2075   */\n      pop\n      jump\t// out\n        /* \"#utility.yul\":2081:2220   */\n    tag_206:\n        /* \"#utility.yul\":2127:2132   */\n      0x00\n        /* \"#utility.yul\":2165:2171   */\n      dup2\n        /* \"#utility.yul\":2152:2172   */\n      calldataload\n        /* \"#utility.yul\":2143:2172   */\n      swap1\n      pop\n        /* \"#utility.yul\":2181:2214   */\n      tag_290\n        /* \"#utility.yul\":2208:2213   */\n      dup2\n        /* \"#utility.yul\":2181:2214   */\n      tag_205\n      jump\t// in\n    tag_290:\n        /* \"#utility.yul\":2081:2220   */\n      swap3\n      swap2\n      pop\n      pop\n      jump\t// out\n        /* \"#utility.yul\":2226:2555   */\n    tag_28:\n        /* \"#utility.yul\":2285:2291   */\n      0x00\n        /* \"#utility.yul\":2334:2336   */\n      0x20\n        /* \"#utility.yul\":2322:2331   */\n      dup3\n        /* \"#utility.yul\":2313:2320   */\n      dup5\n        /* \"#utility.yul\":2309:2332   */\n      sub\n        /* \"#utility.yul\":2305:2337   */\n      slt\n        /* \"#utility.yul\":2302:2421   */\n      iszero\n      tag_292\n      jumpi\n        /* \"#utility.yul\":2340:2419   */\n      tag_293\n      tag_196\n      jump\t// in\n    tag_293:\n        /* \"#utility.yul\":2302:2421   */\n    tag_292:\n        /* \"#utility.yul\":2460:2461   */\n      0x00\n        /* \"#utility.yul\":2485:2538   */\n      tag_294\n        /* \"#utility.yul\":2530:2537   */\n      dup5\n        /* \"#utility.yul\":2521:2527   */\n      dup3\n        /* \"#utility.yul\":2510:2519   */\n      dup6\n        /* \"#utility.yul\":2506:2528   */\n      add\n        /* \"#utility.yul\":2485:2538   */\n      tag_206\n      jump\t// in\n    tag_294:\n        /* \"#utility.yul\":2475:2538   */\n      swap2\n      pop\n        /* \"#utility.yul\":2431:2548   */\n      pop\n        /* \"#utility.yul\":2226:2555   */\n      swap3\n      swap2\n      pop\n      pop\n      jump\t// out\n        /* \"#utility.yul\":2561:2687   */\n    tag_207:\n        /* \"#utility.yul\":2598:2605   */\n      0x00\n        /* \"#utility.yul\":2638:2680   */\n      0xffffffffffffffffffffffffffffffffffffffff\n        /* \"#utility.yul\":2631:2636   */\n      dup3\n        /* \"#utility.yul\":2627:2681   */\n      and\n        /* \"#utility.yul\":2616:2681   */\n      swap1\n      pop\n        /* \"#utility.yul\":2561:2687   */\n      swap2\n      swap1\n      pop\n      jump\t// out\n        /* \"#utility.yul\":2693:2789   */\n    tag_208:\n        /* \"#utility.yul\":2730:2737   */\n      0x00\n        /* \"#utility.yul\":2759:2783   */\n      tag_297\n        /* \"#utility.yul\":2777:2782   */\n      dup3\n        /* \"#utility.yul\":2759:2783   */\n      tag_207\n      jump\t// in\n    tag_297:\n        /* \"#utility.yul\":2748:2783   */\n      swap1\n      pop\n        /* \"#utility.yul\":2693:2789   */\n      swap2\n      swap1\n      pop\n      jump\t// out\n        /* \"#utility.yul\":2795:2917   */\n    tag_209:\n        /* \"#utility.yul\":2868:2892   */\n      tag_299\n        /* \"#utility.yul\":2886:2891   */\n      dup2\n        /* \"#utility.yul\":2868:2892   */\n      tag_208\n      jump\t// in\n    tag_299:\n        /* \"#utility.yul\":2861:2866   */\n      dup2\n        /* \"#utility.yul\":2858:2893   */\n      eq\n        /* \"#utility.yul\":2848:2911   */\n      tag_300\n      jumpi\n        /* \"#utility.yul\":2907:2908   */\n      0x00\n        /* \"#utility.yul\":2904:2905   */\n      dup1\n        /* \"#utility.yul\":2897:2909   */\n      revert\n        /* \"#utility.yul\":2848:2911   */\n    tag_300:\n        /* \"#utility.yul\":2795:2917   */\n      pop\n      jump\t// out\n        /* \"#utility.yul\":2923:3062   */\n    tag_210:\n        /* \"#utility.yul\":2969:2974   */\n      0x00\n        /* \"#utility.yul\":3007:3013   */\n      dup2\n        /* \"#utility.yul\":2994:3014   */\n      calldataload\n        /* \"#utility.yul\":2985:3014   */\n      swap1\n      pop\n        /* \"#utility.yul\":3023:3056   */\n      tag_302\n        /* \"#utility.yul\":3050:3055   */\n      dup2\n        /* \"#utility.yul\":3023:3056   */\n      tag_209\n      jump\t// in\n    tag_302:\n        /* \"#utility.yul\":2923:3062   */\n      swap3\n      swap2\n      pop\n      pop\n      jump\t// out\n        /* \"#utility.yul\":3068:3542   */\n    tag_34:\n        /* \"#utility.yul\":3136:3142   */\n      0x00\n        /* \"#utility.yul\":3144:3150   */\n      dup1\n        /* \"#utility.yul\":3193:3195   */\n      0x40\n        /* \"#utility.yul\":3181:3190   */\n      dup4\n        /* \"#utility.yul\":3172:3179   */\n      dup6\n        /* \"#utility.yul\":3168:3191   */\n      sub\n        /* \"#utility.yul\":3164:3196   */\n      slt\n        /* \"#utility.yul\":3161:3280   */\n      iszero\n      tag_304\n      jumpi\n        /* \"#utility.yul\":3199:3278   */\n      tag_305\n      tag_196\n      jump\t// in\n    tag_305:\n        /* \"#utility.yul\":3161:3280   */\n    tag_304:\n        /* \"#utility.yul\":3319:3320   */\n      0x00\n        /* \"#utility.yul\":3344:3397   */\n      tag_306\n        /* \"#utility.yul\":3389:3396   */\n      dup6\n        /* \"#utility.yul\":3380:3386   */\n      dup3\n        /* \"#utility.yul\":3369:3378   */\n      dup7\n        /* \"#utility.yul\":3365:3387   */\n      add\n        /* \"#utility.yul\":3344:3397   */\n      tag_206\n      jump\t// in\n    tag_306:\n        /* \"#utility.yul\":3334:3397   */\n      swap3\n      pop\n        /* \"#utility.yul\":3290:3407   */\n      pop\n        /* \"#utility.yul\":3446:3448   */\n      0x20\n        /* \"#utility.yul\":3472:3525   */\n      tag_307\n        /* \"#utility.yul\":3517:3524   */\n      dup6\n        /* \"#utility.yul\":3508:3514   */\n      dup3\n        /* \"#utility.yul\":3497:3506   */\n      dup7\n        /* \"#utility.yul\":3493:3515   */\n      add\n        /* \"#utility.yul\":3472:3525   */\n      tag_210\n      jump\t// in\n    tag_307:\n        /* \"#utility.yul\":3462:3525   */\n      swap2\n      pop\n        /* \"#utility.yul\":3417:3535   */\n      pop\n        /* \"#utility.yul\":3068:3542   */\n      swap3\n      pop\n      swap3\n      swap1\n      pop\n      jump\t// out\n        /* \"#utility.yul\":3548:3665   */\n    tag_211:\n        /* \"#utility.yul\":3657:3658   */\n      0x00\n        /* \"#utility.yul\":3654:3655   */\n      dup1\n        /* \"#utility.yul\":3647:3659   */\n      revert\n        /* \"#utility.yul\":3671:3773   */\n    tag_212:\n        /* \"#utility.yul\":3712:3718   */\n      0x00\n        /* \"#utility.yul\":3763:3765   */\n      0x1f\n        /* \"#utility.yul\":3759:3766   */\n      not\n        /* \"#utility.yul\":3754:3756   */\n      0x1f\n        /* \"#utility.yul\":3747:3752   */\n      dup4\n        /* \"#utility.yul\":3743:3757   */\n      add\n        /* \"#utility.yul\":3739:3767   */\n      and\n        /* \"#utility.yul\":3729:3767   */\n      swap1\n      pop\n        /* \"#utility.yul\":3671:3773   */\n      swap2\n      swap1\n      pop\n      jump\t// out\n        /* \"#utility.yul\":3779:3959   */\n    tag_95:\n        /* \"#utility.yul\":3827:3904   */\n      0x4e487b7100000000000000000000000000000000000000000000000000000000\n        /* \"#utility.yul\":3824:3825   */\n      0x00\n        /* \"#utility.yul\":3817:3905   */\n      mstore\n        /* \"#utility.yul\":3924:3928   */\n      0x41\n        /* \"#utility.yul\":3921:3922   */\n      0x04\n        /* \"#utility.yul\":3914:3929   */\n      mstore\n        /* \"#utility.yul\":3948:3952   */\n      0x24\n        /* \"#utility.yul\":3945:3946   */\n      0x00\n        /* \"#utility.yul\":3938:3953   */\n      revert\n        /* \"#utility.yul\":3965:4246   */\n    tag_213:\n        /* \"#utility.yul\":4048:4075   */\n      tag_312\n        /* \"#utility.yul\":4070:4074   */\n      dup3\n        /* \"#utility.yul\":4048:4075   */\n      tag_212\n      jump\t// in\n    tag_312:\n        /* \"#utility.yul\":4040:4046   */\n      dup2\n        /* \"#utility.yul\":4036:4076   */\n      add\n        /* \"#utility.yul\":4178:4184   */\n      dup2\n        /* \"#utility.yul\":4166:4176   */\n      dup2\n        /* \"#utility.yul\":4163:4185   */\n      lt\n        /* \"#utility.yul\":4142:4160   */\n      0xffffffffffffffff\n        /* \"#utility.yul\":4130:4140   */\n      dup3\n        /* \"#utility.yul\":4127:4161   */\n      gt\n        /* \"#utility.yul\":4124:4186   */\n      or\n        /* \"#utility.yul\":4121:4209   */\n      iszero\n      tag_313\n      jumpi\n        /* \"#utility.yul\":4189:4207   */\n      tag_314\n      tag_95\n      jump\t// in\n    tag_314:\n        /* \"#utility.yul\":4121:4209   */\n    tag_313:\n        /* \"#utility.yul\":4229:4239   */\n      dup1\n        /* \"#utility.yul\":4225:4227   */\n      0x40\n        /* \"#utility.yul\":4218:4240   */\n      mstore\n        /* \"#utility.yul\":4008:4246   */\n      pop\n        /* \"#utility.yul\":3965:4246   */\n      pop\n      pop\n      jump\t// out\n        /* \"#utility.yul\":4252:4381   */\n    tag_214:\n        /* \"#utility.yul\":4286:4292   */\n      0x00\n        /* \"#utility.yul\":4313:4333   */\n      tag_316\n      tag_195\n      jump\t// in\n    tag_316:\n        /* \"#utility.yul\":4303:4333   */\n      swap1\n      pop\n        /* \"#utility.yul\":4342:4375   */\n      tag_317\n        /* \"#utility.yul\":4370:4374   */\n      dup3\n        /* \"#utility.yul\":4362:4368   */\n      dup3\n        /* \"#utility.yul\":4342:4375   */\n      tag_213\n      jump\t// in\n    tag_317:\n        /* \"#utility.yul\":4252:4381   */\n      swap2\n      swap1\n      pop\n      jump\t// out\n        /* \"#utility.yul\":4387:4698   */\n    tag_215:\n        /* \"#utility.yul\":4464:4468   */\n      0x00\n        /* \"#utility.yul\":4554:4572   */\n      0xffffffffffffffff\n        /* \"#utility.yul\":4546:4552   */\n      dup3\n        /* \"#utility.yul\":4543:4573   */\n      gt\n        /* \"#utility.yul\":4540:4596   */\n      iszero\n      tag_319\n      jumpi\n        /* \"#utility.yul\":4576:4594   */\n      tag_320\n      tag_95\n      jump\t// in\n    tag_320:\n        /* \"#utility.yul\":4540:4596   */\n    tag_319:\n        /* \"#utility.yul\":4626:4630   */\n      0x20\n        /* \"#utility.yul\":4618:4624   */\n      dup3\n        /* \"#utility.yul\":4614:4631   */\n      mul\n        /* \"#utility.yul\":4606:4631   */\n      swap1\n      pop\n        /* \"#utility.yul\":4686:4690   */\n      0x20\n        /* \"#utility.yul\":4680:4684   */\n      dup2\n        /* \"#utility.yul\":4676:4691   */\n      add\n        /* \"#utility.yul\":4668:4691   */\n      swap1\n      pop\n        /* \"#utility.yul\":4387:4698   */\n      swap2\n      swap1\n      pop\n      jump\t// out\n        /* \"#utility.yul\":4704:4821   */\n    tag_216:\n        /* \"#utility.yul\":4813:4814   */\n      0x00\n        /* \"#utility.yul\":4810:4811   */\n      dup1\n        /* \"#utility.yul\":4803:4815   */\n      revert\n        /* \"#utility.yul\":4844:5554   */\n    tag_217:\n        /* \"#utility.yul\":4940:4945   */\n      0x00\n        /* \"#utility.yul\":4965:5046   */\n      tag_323\n        /* \"#utility.yul\":4981:5045   */\n      tag_324\n        /* \"#utility.yul\":5038:5044   */\n      dup5\n        /* \"#utility.yul\":4981:5045   */\n      tag_215\n      jump\t// in\n    tag_324:\n        /* \"#utility.yul\":4965:5046   */\n      tag_214\n      jump\t// in\n    tag_323:\n        /* \"#utility.yul\":4956:5046   */\n      swap1\n      pop\n        /* \"#utility.yul\":5066:5071   */\n      dup1\n        /* \"#utility.yul\":5095:5101   */\n      dup4\n        /* \"#utility.yul\":5088:5093   */\n      dup3\n        /* \"#utility.yul\":5081:5102   */\n      mstore\n        /* \"#utility.yul\":5129:5133   */\n      0x20\n        /* \"#utility.yul\":5122:5127   */\n      dup3\n        /* \"#utility.yul\":5118:5134   */\n      add\n        /* \"#utility.yul\":5111:5134   */\n      swap1\n      pop\n        /* \"#utility.yul\":5182:5186   */\n      0x20\n        /* \"#utility.yul\":5174:5180   */\n      dup5\n        /* \"#utility.yul\":5170:5187   */\n      mul\n        /* \"#utility.yul\":5162:5168   */\n      dup4\n        /* \"#utility.yul\":5158:5188   */\n      add\n        /* \"#utility.yul\":5211:5214   */\n      dup6\n        /* \"#utility.yul\":5203:5209   */\n      dup2\n        /* \"#utility.yul\":5200:5215   */\n      gt\n        /* \"#utility.yul\":5197:5319   */\n      iszero\n      tag_325\n      jumpi\n        /* \"#utility.yul\":5230:5309   */\n      tag_326\n      tag_216\n      jump\t// in\n    tag_326:\n        /* \"#utility.yul\":5197:5319   */\n    tag_325:\n        /* \"#utility.yul\":5345:5351   */\n      dup4\n        /* \"#utility.yul\":5328:5548   */\n    tag_327:\n        /* \"#utility.yul\":5362:5368   */\n      dup2\n        /* \"#utility.yul\":5357:5360   */\n      dup2\n        /* \"#utility.yul\":5354:5369   */\n      lt\n        /* \"#utility.yul\":5328:5548   */\n      iszero\n      tag_329\n      jumpi\n        /* \"#utility.yul\":5437:5440   */\n      dup1\n        /* \"#utility.yul\":5466:5503   */\n      tag_330\n        /* \"#utility.yul\":5499:5502   */\n      dup9\n        /* \"#utility.yul\":5487:5497   */\n      dup3\n        /* \"#utility.yul\":5466:5503   */\n      tag_210\n      jump\t// in\n    tag_330:\n        /* \"#utility.yul\":5461:5464   */\n      dup5\n        /* \"#utility.yul\":5454:5504   */\n      mstore\n        /* \"#utility.yul\":5533:5537   */\n      0x20\n        /* \"#utility.yul\":5528:5531   */\n      dup5\n        /* \"#utility.yul\":5524:5538   */\n      add\n        /* \"#utility.yul\":5517:5538   */\n      swap4\n      pop\n        /* \"#utility.yul\":5404:5548   */\n      pop\n        /* \"#utility.yul\":5388:5392   */\n      0x20\n        /* \"#utility.yul\":5383:5386   */\n      dup2\n        /* \"#utility.yul\":5379:5393   */\n      add\n        /* \"#utility.yul\":5372:5393   */\n      swap1\n      pop\n        /* \"#utility.yul\":5328:5548   */\n      jump(tag_327)\n    tag_329:\n        /* \"#utility.yul\":5332:5353   */\n      pop\n        /* \"#utility.yul\":4946:5554   */\n      pop\n      pop\n        /* \"#utility.yul\":4844:5554   */\n      swap4\n      swap3\n      pop\n      pop\n      pop\n      jump\t// out\n        /* \"#utility.yul\":5577:5947   */\n    tag_218:\n        /* \"#utility.yul\":5648:5653   */\n      0x00\n        /* \"#utility.yul\":5697:5700   */\n      dup3\n        /* \"#utility.yul\":5690:5694   */\n      0x1f\n        /* \"#utility.yul\":5682:5688   */\n      dup4\n        /* \"#utility.yul\":5678:5695   */\n      add\n        /* \"#utility.yul\":5674:5701   */\n      slt\n        /* \"#utility.yul\":5664:5786   */\n      tag_332\n      jumpi\n        /* \"#utility.yul\":5705:5784   */\n      tag_333\n      tag_211\n      jump\t// in\n    tag_333:\n        /* \"#utility.yul\":5664:5786   */\n    tag_332:\n        /* \"#utility.yul\":5822:5828   */\n      dup2\n        /* \"#utility.yul\":5809:5829   */\n      calldataload\n        /* \"#utility.yul\":5847:5941   */\n      tag_334\n        /* \"#utility.yul\":5937:5940   */\n      dup5\n        /* \"#utility.yul\":5929:5935   */\n      dup3\n        /* \"#utility.yul\":5922:5926   */\n      0x20\n        /* \"#utility.yul\":5914:5920   */\n      dup7\n        /* \"#utility.yul\":5910:5927   */\n      add\n        /* \"#utility.yul\":5847:5941   */\n      tag_217\n      jump\t// in\n    tag_334:\n        /* \"#utility.yul\":5838:5941   */\n      swap2\n      pop\n        /* \"#utility.yul\":5654:5947   */\n      pop\n        /* \"#utility.yul\":5577:5947   */\n      swap3\n      swap2\n      pop\n      pop\n      jump\t// out\n        /* \"#utility.yul\":5953:6070   */\n    tag_219:\n        /* \"#utility.yul\":6062:6063   */\n      0x00\n        /* \"#utility.yul\":6059:6060   */\n      dup1\n        /* \"#utility.yul\":6052:6064   */\n      revert\n        /* \"#utility.yul\":6091:6670   */\n    tag_220:\n        /* \"#utility.yul\":6175:6183   */\n      0x00\n        /* \"#utility.yul\":6185:6191   */\n      dup1\n        /* \"#utility.yul\":6235:6238   */\n      dup4\n        /* \"#utility.yul\":6228:6232   */\n      0x1f\n        /* \"#utility.yul\":6220:6226   */\n      dup5\n        /* \"#utility.yul\":6216:6233   */\n      add\n        /* \"#utility.yul\":6212:6239   */\n      slt\n        /* \"#utility.yul\":6202:6324   */\n      tag_337\n      jumpi\n        /* \"#utility.yul\":6243:6322   */\n      tag_338\n      tag_211\n      jump\t// in\n    tag_338:\n        /* \"#utility.yul\":6202:6324   */\n    tag_337:\n        /* \"#utility.yul\":6356:6362   */\n      dup3\n        /* \"#utility.yul\":6343:6363   */\n      calldataload\n        /* \"#utility.yul\":6333:6363   */\n      swap1\n      pop\n        /* \"#utility.yul\":6386:6404   */\n      0xffffffffffffffff\n        /* \"#utility.yul\":6378:6384   */\n      dup2\n        /* \"#utility.yul\":6375:6405   */\n      gt\n        /* \"#utility.yul\":6372:6489   */\n      iszero\n      tag_339\n      jumpi\n        /* \"#utility.yul\":6408:6487   */\n      tag_340\n      tag_219\n      jump\t// in\n    tag_340:\n        /* \"#utility.yul\":6372:6489   */\n    tag_339:\n        /* \"#utility.yul\":6522:6526   */\n      0x20\n        /* \"#utility.yul\":6514:6520   */\n      dup4\n        /* \"#utility.yul\":6510:6527   */\n      add\n        /* \"#utility.yul\":6498:6527   */\n      swap2\n      pop\n        /* \"#utility.yul\":6576:6579   */\n      dup4\n        /* \"#utility.yul\":6568:6572   */\n      0x20\n        /* \"#utility.yul\":6560:6566   */\n      dup3\n        /* \"#utility.yul\":6556:6573   */\n      mul\n        /* \"#utility.yul\":6546:6554   */\n      dup4\n        /* \"#utility.yul\":6542:6574   */\n      add\n        /* \"#utility.yul\":6539:6580   */\n      gt\n        /* \"#utility.yul\":6536:6664   */\n      iszero\n      tag_341\n      jumpi\n        /* \"#utility.yul\":6583:6662   */\n      tag_342\n      tag_216\n      jump\t// in\n    tag_342:\n        /* \"#utility.yul\":6536:6664   */\n    tag_341:\n        /* \"#utility.yul\":6091:6670   */\n      swap3\n      pop\n      swap3\n      swap1\n      pop\n      jump\t// out\n        /* \"#utility.yul\":6676:6987   */\n    tag_221:\n        /* \"#utility.yul\":6753:6757   */\n      0x00\n        /* \"#utility.yul\":6843:6861   */\n      0xffffffffffffffff\n        /* \"#utility.yul\":6835:6841   */\n      dup3\n        /* \"#utility.yul\":6832:6862   */\n      gt\n        /* \"#utility.yul\":6829:6885   */\n      iszero\n      tag_344\n      jumpi\n        /* \"#utility.yul\":6865:6883   */\n      tag_345\n      tag_95\n      jump\t// in\n    tag_345:\n        /* \"#utility.yul\":6829:6885   */\n    tag_344:\n        /* \"#utility.yul\":6915:6919   */\n      0x20\n        /* \"#utility.yul\":6907:6913   */\n      dup3\n        /* \"#utility.yul\":6903:6920   */\n      mul\n        /* \"#utility.yul\":6895:6920   */\n      swap1\n      pop\n        /* \"#utility.yul\":6975:6979   */\n      0x20\n        /* \"#utility.yul\":6969:6973   */\n      dup2\n        /* \"#utility.yul\":6965:6980   */\n      add\n        /* \"#utility.yul\":6957:6980   */\n      swap1\n      pop\n        /* \"#utility.yul\":6676:6987   */\n      swap2\n      swap1\n      pop\n      jump\t// out\n        /* \"#utility.yul\":6993:7070   */\n    tag_222:\n        /* \"#utility.yul\":7030:7037   */\n      0x00\n        /* \"#utility.yul\":7059:7064   */\n      dup2\n        /* \"#utility.yul\":7048:7064   */\n      swap1\n      pop\n        /* \"#utility.yul\":6993:7070   */\n      swap2\n      swap1\n      pop\n      jump\t// out\n        /* \"#utility.yul\":7076:7198   */\n    tag_223:\n        /* \"#utility.yul\":7149:7173   */\n      tag_348\n        /* \"#utility.yul\":7167:7172   */\n      dup2\n        /* \"#utility.yul\":7149:7173   */\n      tag_222\n      jump\t// in\n    tag_348:\n        /* \"#utility.yul\":7142:7147   */\n      dup2\n        /* \"#utility.yul\":7139:7174   */\n      eq\n        /* \"#utility.yul\":7129:7192   */\n      tag_349\n      jumpi\n        /* \"#utility.yul\":7188:7189   */\n      0x00\n        /* \"#utility.yul\":7185:7186   */\n      dup1\n        /* \"#utility.yul\":7178:7190   */\n      revert\n        /* \"#utility.yul\":7129:7192   */\n    tag_349:\n        /* \"#utility.yul\":7076:7198   */\n      pop\n      jump\t// out\n        /* \"#utility.yul\":7204:7343   */\n    tag_224:\n        /* \"#utility.yul\":7250:7255   */\n      0x00\n        /* \"#utility.yul\":7288:7294   */\n      dup2\n        /* \"#utility.yul\":7275:7295   */\n      calldataload\n        /* \"#utility.yul\":7266:7295   */\n      swap1\n      pop\n        /* \"#utility.yul\":7304:7337   */\n      tag_351\n        /* \"#utility.yul\":7331:7336   */\n      dup2\n        /* \"#utility.yul\":7304:7337   */\n      tag_223\n      jump\t// in\n    tag_351:\n        /* \"#utility.yul\":7204:7343   */\n      swap3\n      swap2\n      pop\n      pop\n      jump\t// out\n        /* \"#utility.yul\":7366:8076   */\n    tag_225:\n        /* \"#utility.yul\":7462:7467   */\n      0x00\n        /* \"#utility.yul\":7487:7568   */\n      tag_353\n        /* \"#utility.yul\":7503:7567   */\n      tag_354\n        /* \"#utility.yul\":7560:7566   */\n      dup5\n        /* \"#utility.yul\":7503:7567   */\n      tag_221\n      jump\t// in\n    tag_354:\n        /* \"#utility.yul\":7487:7568   */\n      tag_214\n      jump\t// in\n    tag_353:\n        /* \"#utility.yul\":7478:7568   */\n      swap1\n      pop\n        /* \"#utility.yul\":7588:7593   */\n      dup1\n        /* \"#utility.yul\":7617:7623   */\n      dup4\n        /* \"#utility.yul\":7610:7615   */\n      dup3\n        /* \"#utility.yul\":7603:7624   */\n      mstore\n        /* \"#utility.yul\":7651:7655   */\n      0x20\n        /* \"#utility.yul\":7644:7649   */\n      dup3\n        /* \"#utility.yul\":7640:7656   */\n      add\n        /* \"#utility.yul\":7633:7656   */\n      swap1\n      pop\n        /* \"#utility.yul\":7704:7708   */\n      0x20\n        /* \"#utility.yul\":7696:7702   */\n      dup5\n        /* \"#utility.yul\":7692:7709   */\n      mul\n        /* \"#utility.yul\":7684:7690   */\n      dup4\n        /* \"#utility.yul\":7680:7710   */\n      add\n        /* \"#utility.yul\":7733:7736   */\n      dup6\n        /* \"#utility.yul\":7725:7731   */\n      dup2\n        /* \"#utility.yul\":7722:7737   */\n      gt\n        /* \"#utility.yul\":7719:7841   */\n      iszero\n      tag_355\n      jumpi\n        /* \"#utility.yul\":7752:7831   */\n      tag_356\n      tag_216\n      jump\t// in\n    tag_356:\n        /* \"#utility.yul\":7719:7841   */\n    tag_355:\n        /* \"#utility.yul\":7867:7873   */\n      dup4\n        /* \"#utility.yul\":7850:8070   */\n    tag_357:\n        /* \"#utility.yul\":7884:7890   */\n      dup2\n        /* \"#utility.yul\":7879:7882   */\n      dup2\n        /* \"#utility.yul\":7876:7891   */\n      lt\n        /* \"#utility.yul\":7850:8070   */\n      iszero\n      tag_359\n      jumpi\n        /* \"#utility.yul\":7959:7962   */\n      dup1\n        /* \"#utility.yul\":7988:8025   */\n      tag_360\n        /* \"#utility.yul\":8021:8024   */\n      dup9\n        /* \"#utility.yul\":8009:8019   */\n      dup3\n        /* \"#utility.yul\":7988:8025   */\n      tag_224\n      jump\t// in\n    tag_360:\n        /* \"#utility.yul\":7983:7986   */\n      dup5\n        /* \"#utility.yul\":7976:8026   */\n      mstore\n        /* \"#utility.yul\":8055:8059   */\n      0x20\n        /* \"#utility.yul\":8050:8053   */\n      dup5\n        /* \"#utility.yul\":8046:8060   */\n      add\n        /* \"#utility.yul\":8039:8060   */\n      swap4\n      pop\n        /* \"#utility.yul\":7926:8070   */\n      pop\n        /* \"#utility.yul\":7910:7914   */\n      0x20\n        /* \"#utility.yul\":7905:7908   */\n      dup2\n        /* \"#utility.yul\":7901:7915   */\n      add\n        /* \"#utility.yul\":7894:7915   */\n      swap1\n      pop\n        /* \"#utility.yul\":7850:8070   */\n      jump(tag_357)\n    tag_359:\n        /* \"#utility.yul\":7854:7875   */\n      pop\n        /* \"#utility.yul\":7468:8076   */\n      pop\n      pop\n        /* \"#utility.yul\":7366:8076   */\n      swap4\n      swap3\n      pop\n      pop\n      pop\n      jump\t// out\n        /* \"#utility.yul\":8099:8469   */\n    tag_226:\n        /* \"#utility.yul\":8170:8175   */\n      0x00\n        /* \"#utility.yul\":8219:8222   */\n      dup3\n        /* \"#utility.yul\":8212:8216   */\n      0x1f\n        /* \"#utility.yul\":8204:8210   */\n      dup4\n        /* \"#utility.yul\":8200:8217   */\n      add\n        /* \"#utility.yul\":8196:8223   */\n      slt\n        /* \"#utility.yul\":8186:8308   */\n      tag_362\n      jumpi\n        /* \"#utility.yul\":8227:8306   */\n      tag_363\n      tag_211\n      jump\t// in\n    tag_363:\n        /* \"#utility.yul\":8186:8308   */\n    tag_362:\n        /* \"#utility.yul\":8344:8350   */\n      dup2\n        /* \"#utility.yul\":8331:8351   */\n      calldataload\n        /* \"#utility.yul\":8369:8463   */\n      tag_364\n        /* \"#utility.yul\":8459:8462   */\n      dup5\n        /* \"#utility.yul\":8451:8457   */\n      dup3\n        /* \"#utility.yul\":8444:8448   */\n      0x20\n        /* \"#utility.yul\":8436:8442   */\n      dup7\n        /* \"#utility.yul\":8432:8449   */\n      add\n        /* \"#utility.yul\":8369:8463   */\n      tag_225\n      jump\t// in\n    tag_364:\n        /* \"#utility.yul\":8360:8463   */\n      swap2\n      pop\n        /* \"#utility.yul\":8176:8469   */\n      pop\n        /* \"#utility.yul\":8099:8469   */\n      swap3\n      swap2\n      pop\n      pop\n      jump\t// out\n        /* \"#utility.yul\":8475:9766   */\n    tag_42:\n        /* \"#utility.yul\":8640:8646   */\n      0x00\n        /* \"#utility.yul\":8648:8654   */\n      dup1\n        /* \"#utility.yul\":8656:8662   */\n      0x00\n        /* \"#utility.yul\":8664:8670   */\n      dup1\n        /* \"#utility.yul\":8713:8715   */\n      0x60\n        /* \"#utility.yul\":8701:8710   */\n      dup6\n        /* \"#utility.yul\":8692:8699   */\n      dup8\n        /* \"#utility.yul\":8688:8711   */\n      sub\n        /* \"#utility.yul\":8684:8716   */\n      slt\n        /* \"#utility.yul\":8681:8800   */\n      iszero\n      tag_366\n      jumpi\n        /* \"#utility.yul\":8719:8798   */\n      tag_367\n      tag_196\n      jump\t// in\n    tag_367:\n        /* \"#utility.yul\":8681:8800   */\n    tag_366:\n        /* \"#utility.yul\":8867:8868   */\n      0x00\n        /* \"#utility.yul\":8856:8865   */\n      dup6\n        /* \"#utility.yul\":8852:8869   */\n      add\n        /* \"#utility.yul\":8839:8870   */\n      calldataload\n        /* \"#utility.yul\":8897:8915   */\n      0xffffffffffffffff\n        /* \"#utility.yul\":8889:8895   */\n      dup2\n        /* \"#utility.yul\":8886:8916   */\n      gt\n        /* \"#utility.yul\":8883:9000   */\n      iszero\n      tag_368\n      jumpi\n        /* \"#utility.yul\":8919:8998   */\n      tag_369\n      tag_197\n      jump\t// in\n    tag_369:\n        /* \"#utility.yul\":8883:9000   */\n    tag_368:\n        /* \"#utility.yul\":9024:9102   */\n      tag_370\n        /* \"#utility.yul\":9094:9101   */\n      dup8\n        /* \"#utility.yul\":9085:9091   */\n      dup3\n        /* \"#utility.yul\":9074:9083   */\n      dup9\n        /* \"#utility.yul\":9070:9092   */\n      add\n        /* \"#utility.yul\":9024:9102   */\n      tag_218\n      jump\t// in\n    tag_370:\n        /* \"#utility.yul\":9014:9102   */\n      swap5\n      pop\n        /* \"#utility.yul\":8810:9112   */\n      pop\n        /* \"#utility.yul\":9179:9181   */\n      0x20\n        /* \"#utility.yul\":9168:9177   */\n      dup6\n        /* \"#utility.yul\":9164:9182   */\n      add\n        /* \"#utility.yul\":9151:9183   */\n      calldataload\n        /* \"#utility.yul\":9210:9228   */\n      0xffffffffffffffff\n        /* \"#utility.yul\":9202:9208   */\n      dup2\n        /* \"#utility.yul\":9199:9229   */\n      gt\n        /* \"#utility.yul\":9196:9313   */\n      iszero\n      tag_371\n      jumpi\n        /* \"#utility.yul\":9232:9311   */\n      tag_372\n      tag_197\n      jump\t// in\n    tag_372:\n        /* \"#utility.yul\":9196:9313   */\n    tag_371:\n        /* \"#utility.yul\":9345:9436   */\n      tag_373\n        /* \"#utility.yul\":9428:9435   */\n      dup8\n        /* \"#utility.yul\":9419:9425   */\n      dup3\n        /* \"#utility.yul\":9408:9417   */\n      dup9\n        /* \"#utility.yul\":9404:9426   */\n      add\n        /* \"#utility.yul\":9345:9436   */\n      tag_220\n      jump\t// in\n    tag_373:\n        /* \"#utility.yul\":9327:9436   */\n      swap4\n      pop\n      swap4\n      pop\n        /* \"#utility.yul\":9122:9446   */\n      pop\n        /* \"#utility.yul\":9513:9515   */\n      0x40\n        /* \"#utility.yul\":9502:9511   */\n      dup6\n        /* \"#utility.yul\":9498:9516   */\n      add\n        /* \"#utility.yul\":9485:9517   */\n      calldataload\n        /* \"#utility.yul\":9544:9562   */\n      0xffffffffffffffff\n        /* \"#utility.yul\":9536:9542   */\n      dup2\n        /* \"#utility.yul\":9533:9563   */\n      gt\n        /* \"#utility.yul\":9530:9647   */\n      iszero\n      tag_374\n      jumpi\n        /* \"#utility.yul\":9566:9645   */\n      tag_375\n      tag_197\n      jump\t// in\n    tag_375:\n        /* \"#utility.yul\":9530:9647   */\n    tag_374:\n        /* \"#utility.yul\":9671:9749   */\n      tag_376\n        /* \"#utility.yul\":9741:9748   */\n      dup8\n        /* \"#utility.yul\":9732:9738   */\n      dup3\n        /* \"#utility.yul\":9721:9730   */\n      dup9\n        /* \"#utility.yul\":9717:9739   */\n      add\n        /* \"#utility.yul\":9671:9749   */\n      tag_226\n      jump\t// in\n    tag_376:\n        /* \"#utility.yul\":9661:9749   */\n      swap2\n      pop\n        /* \"#utility.yul\":9456:9759   */\n      pop\n        /* \"#utility.yul\":8475:9766   */\n      swap3\n      swap6\n      swap2\n      swap5\n      pop\n      swap3\n      pop\n      jump\t// out\n        /* \"#utility.yul\":9772:9883   */\n    tag_227:\n        /* \"#utility.yul\":9836:9842   */\n      0x00\n        /* \"#utility.yul\":9870:9875   */\n      dup2\n        /* \"#utility.yul\":9864:9876   */\n      mload\n        /* \"#utility.yul\":9854:9876   */\n      swap1\n      pop\n        /* \"#utility.yul\":9772:9883   */\n      swap2\n      swap1\n      pop\n      jump\t// out\n        /* \"#utility.yul\":9889:10070   */\n    tag_228:\n        /* \"#utility.yul\":9985:9996   */\n      0x00\n        /* \"#utility.yul\":10019:10025   */\n      dup3\n        /* \"#utility.yul\":10014:10017   */\n      dup3\n        /* \"#utility.yul\":10007:10026   */\n      mstore\n        /* \"#utility.yul\":10059:10063   */\n      0x20\n        /* \"#utility.yul\":10054:10057   */\n      dup3\n        /* \"#utility.yul\":10050:10064   */\n      add\n        /* \"#utility.yul\":10035:10064   */\n      swap1\n      pop\n        /* \"#utility.yul\":9889:10070   */\n      swap3\n      swap2\n      pop\n      pop\n      jump\t// out\n        /* \"#utility.yul\":10076:10205   */\n    tag_229:\n        /* \"#utility.yul\":10140:10144   */\n      0x00\n        /* \"#utility.yul\":10163:10166   */\n      dup2\n        /* \"#utility.yul\":10155:10166   */\n      swap1\n      pop\n        /* \"#utility.yul\":10193:10197   */\n      0x20\n        /* \"#utility.yul\":10188:10191   */\n      dup3\n        /* \"#utility.yul\":10184:10198   */\n      add\n        /* \"#utility.yul\":10176:10198   */\n      swap1\n      pop\n        /* \"#utility.yul\":10076:10205   */\n      swap2\n      swap1\n      pop\n      jump\t// out\n        /* \"#utility.yul\":10211:10310   */\n    tag_230:\n        /* \"#utility.yul\":10282:10303   */\n      tag_381\n        /* \"#utility.yul\":10297:10302   */\n      dup2\n        /* \"#utility.yul\":10282:10303   */\n      tag_201\n      jump\t// in\n    tag_381:\n        /* \"#utility.yul\":10277:10280   */\n      dup3\n        /* \"#utility.yul\":10270:10304   */\n      mstore\n        /* \"#utility.yul\":10211:10310   */\n      pop\n      pop\n      jump\t// out\n        /* \"#utility.yul\":10316:10483   */\n    tag_231:\n        /* \"#utility.yul\":10379:10389   */\n      0x00\n        /* \"#utility.yul\":10400:10440   */\n      tag_383\n        /* \"#utility.yul\":10436:10439   */\n      dup4\n        /* \"#utility.yul\":10428:10434   */\n      dup4\n        /* \"#utility.yul\":10400:10440   */\n      tag_230\n      jump\t// in\n    tag_383:\n        /* \"#utility.yul\":10472:10476   */\n      0x20\n        /* \"#utility.yul\":10467:10470   */\n      dup4\n        /* \"#utility.yul\":10463:10477   */\n      add\n        /* \"#utility.yul\":10449:10477   */\n      swap1\n      pop\n        /* \"#utility.yul\":10316:10483   */\n      swap3\n      swap2\n      pop\n      pop\n      jump\t// out\n        /* \"#utility.yul\":10489:10599   */\n    tag_232:\n        /* \"#utility.yul\":10556:10560   */\n      0x00\n        /* \"#utility.yul\":10588:10592   */\n      0x20\n        /* \"#utility.yul\":10583:10586   */\n      dup3\n        /* \"#utility.yul\":10579:10593   */\n      add\n        /* \"#utility.yul\":10571:10593   */\n      swap1\n      pop\n        /* \"#utility.yul\":10489:10599   */\n      swap2\n      swap1\n      pop\n      jump\t// out\n        /* \"#utility.yul\":10629:11337   */\n    tag_233:\n        /* \"#utility.yul\":10742:10745   */\n      0x00\n        /* \"#utility.yul\":10771:10822   */\n      tag_386\n        /* \"#utility.yul\":10816:10821   */\n      dup3\n        /* \"#utility.yul\":10771:10822   */\n      tag_227\n      jump\t// in\n    tag_386:\n        /* \"#utility.yul\":10838:10921   */\n      tag_387\n        /* \"#utility.yul\":10914:10920   */\n      dup2\n        /* \"#utility.yul\":10909:10912   */\n      dup6\n        /* \"#utility.yul\":10838:10921   */\n      tag_228\n      jump\t// in\n    tag_387:\n        /* \"#utility.yul\":10831:10921   */\n      swap4\n      pop\n        /* \"#utility.yul\":10945:10998   */\n      tag_388\n        /* \"#utility.yul\":10992:10997   */\n      dup4\n        /* \"#utility.yul\":10945:10998   */\n      tag_229\n      jump\t// in\n    tag_388:\n        /* \"#utility.yul\":11021:11028   */\n      dup1\n        /* \"#utility.yul\":11052:11053   */\n      0x00\n        /* \"#utility.yul\":11037:11312   */\n    tag_389:\n        /* \"#utility.yul\":11062:11068   */\n      dup4\n        /* \"#utility.yul\":11059:11060   */\n      dup2\n        /* \"#utility.yul\":11056:11069   */\n      lt\n        /* \"#utility.yul\":11037:11312   */\n      iszero\n      tag_391\n      jumpi\n        /* \"#utility.yul\":11138:11144   */\n      dup2\n        /* \"#utility.yul\":11132:11145   */\n      mload\n        /* \"#utility.yul\":11165:11222   */\n      tag_392\n        /* \"#utility.yul\":11218:11221   */\n      dup9\n        /* \"#utility.yul\":11203:11216   */\n      dup3\n        /* \"#utility.yul\":11165:11222   */\n      tag_231\n      jump\t// in\n    tag_392:\n        /* \"#utility.yul\":11158:11222   */\n      swap8\n      pop\n        /* \"#utility.yul\":11245:11302   */\n      tag_393\n        /* \"#utility.yul\":11295:11301   */\n      dup4\n        /* \"#utility.yul\":11245:11302   */\n      tag_232\n      jump\t// in\n    tag_393:\n        /* \"#utility.yul\":11235:11302   */\n      swap3\n      pop\n        /* \"#utility.yul\":11097:11312   */\n      pop\n        /* \"#utility.yul\":11084:11085   */\n      0x01\n        /* \"#utility.yul\":11081:11082   */\n      dup2\n        /* \"#utility.yul\":11077:11086   */\n      add\n        /* \"#utility.yul\":11072:11086   */\n      swap1\n      pop\n        /* \"#utility.yul\":11037:11312   */\n      jump(tag_389)\n    tag_391:\n        /* \"#utility.yul\":11041:11055   */\n      pop\n        /* \"#utility.yul\":11328:11331   */\n      dup6\n        /* \"#utility.yul\":11321:11331   */\n      swap4\n      pop\n        /* \"#utility.yul\":10747:11337   */\n      pop\n      pop\n      pop\n        /* \"#utility.yul\":10629:11337   */\n      swap3\n      swap2\n      pop\n      pop\n      jump\t// out\n        /* \"#utility.yul\":11343:11704   */\n    tag_45:\n        /* \"#utility.yul\":11480:11484   */\n      0x00\n        /* \"#utility.yul\":11518:11520   */\n      0x20\n        /* \"#utility.yul\":11507:11516   */\n      dup3\n        /* \"#utility.yul\":11503:11521   */\n      add\n        /* \"#utility.yul\":11495:11521   */\n      swap1\n      pop\n        /* \"#utility.yul\":11567:11576   */\n      dup2\n        /* \"#utility.yul\":11561:11565   */\n      dup2\n        /* \"#utility.yul\":11557:11577   */\n      sub\n        /* \"#utility.yul\":11553:11554   */\n      0x00\n        /* \"#utility.yul\":11542:11551   */\n      dup4\n        /* \"#utility.yul\":11538:11555   */\n      add\n        /* \"#utility.yul\":11531:11578   */\n      mstore\n        /* \"#utility.yul\":11595:11697   */\n      tag_395\n        /* \"#utility.yul\":11692:11696   */\n      dup2\n        /* \"#utility.yul\":11683:11689   */\n      dup5\n        /* \"#utility.yul\":11595:11697   */\n      tag_233\n      jump\t// in\n    tag_395:\n        /* \"#utility.yul\":11587:11697   */\n      swap1\n      pop\n        /* \"#utility.yul\":11343:11704   */\n      swap3\n      swap2\n      pop\n      pop\n      jump\t// out\n        /* \"#utility.yul\":11723:12275   */\n    tag_234:\n        /* \"#utility.yul\":11780:11788   */\n      0x00\n        /* \"#utility.yul\":11790:11796   */\n      dup1\n        /* \"#utility.yul\":11840:11843   */\n      dup4\n        /* \"#utility.yul\":11833:11837   */\n      0x1f\n        /* \"#utility.yul\":11825:11831   */\n      dup5\n        /* \"#utility.yul\":11821:11838   */\n      add\n        /* \"#utility.yul\":11817:11844   */\n      slt\n        /* \"#utility.yul\":11807:11929   */\n      tag_397\n      jumpi\n        /* \"#utility.yul\":11848:11927   */\n      tag_398\n      tag_211\n      jump\t// in\n    tag_398:\n        /* \"#utility.yul\":11807:11929   */\n    tag_397:\n        /* \"#utility.yul\":11961:11967   */\n      dup3\n        /* \"#utility.yul\":11948:11968   */\n      calldataload\n        /* \"#utility.yul\":11938:11968   */\n      swap1\n      pop\n        /* \"#utility.yul\":11991:12009   */\n      0xffffffffffffffff\n        /* \"#utility.yul\":11983:11989   */\n      dup2\n        /* \"#utility.yul\":11980:12010   */\n      gt\n        /* \"#utility.yul\":11977:12094   */\n      iszero\n      tag_399\n      jumpi\n        /* \"#utility.yul\":12013:12092   */\n      tag_400\n      tag_219\n      jump\t// in\n    tag_400:\n        /* \"#utility.yul\":11977:12094   */\n    tag_399:\n        /* \"#utility.yul\":12127:12131   */\n      0x20\n        /* \"#utility.yul\":12119:12125   */\n      dup4\n        /* \"#utility.yul\":12115:12132   */\n      add\n        /* \"#utility.yul\":12103:12132   */\n      swap2\n      pop\n        /* \"#utility.yul\":12181:12184   */\n      dup4\n        /* \"#utility.yul\":12173:12177   */\n      0x01\n        /* \"#utility.yul\":12165:12171   */\n      dup3\n        /* \"#utility.yul\":12161:12178   */\n      mul\n        /* \"#utility.yul\":12151:12159   */\n      dup4\n        /* \"#utility.yul\":12147:12179   */\n      add\n        /* \"#utility.yul\":12144:12185   */\n      gt\n        /* \"#utility.yul\":12141:12269   */\n      iszero\n      tag_401\n      jumpi\n        /* \"#utility.yul\":12188:12267   */\n      tag_402\n      tag_216\n      jump\t// in\n    tag_402:\n        /* \"#utility.yul\":12141:12269   */\n    tag_401:\n        /* \"#utility.yul\":11723:12275   */\n      swap3\n      pop\n      swap3\n      swap1\n      pop\n      jump\t// out\n        /* \"#utility.yul\":12281:12953   */\n    tag_57:\n        /* \"#utility.yul\":12360:12366   */\n      0x00\n        /* \"#utility.yul\":12368:12374   */\n      dup1\n        /* \"#utility.yul\":12376:12382   */\n      0x00\n        /* \"#utility.yul\":12425:12427   */\n      0x40\n        /* \"#utility.yul\":12413:12422   */\n      dup5\n        /* \"#utility.yul\":12404:12411   */\n      dup7\n        /* \"#utility.yul\":12400:12423   */\n      sub\n        /* \"#utility.yul\":12396:12428   */\n      slt\n        /* \"#utility.yul\":12393:12512   */\n      iszero\n      tag_404\n      jumpi\n        /* \"#utility.yul\":12431:12510   */\n      tag_405\n      tag_196\n      jump\t// in\n    tag_405:\n        /* \"#utility.yul\":12393:12512   */\n    tag_404:\n        /* \"#utility.yul\":12551:12552   */\n      0x00\n        /* \"#utility.yul\":12576:12629   */\n      tag_406\n        /* \"#utility.yul\":12621:12628   */\n      dup7\n        /* \"#utility.yul\":12612:12618   */\n      dup3\n        /* \"#utility.yul\":12601:12610   */\n      dup8\n        /* \"#utility.yul\":12597:12619   */\n      add\n        /* \"#utility.yul\":12576:12629   */\n      tag_210\n      jump\t// in\n    tag_406:\n        /* \"#utility.yul\":12566:12629   */\n      swap4\n      pop\n        /* \"#utility.yul\":12522:12639   */\n      pop\n        /* \"#utility.yul\":12706:12708   */\n      0x20\n        /* \"#utility.yul\":12695:12704   */\n      dup5\n        /* \"#utility.yul\":12691:12709   */\n      add\n        /* \"#utility.yul\":12678:12710   */\n      calldataload\n        /* \"#utility.yul\":12737:12755   */\n      0xffffffffffffffff\n        /* \"#utility.yul\":12729:12735   */\n      dup2\n        /* \"#utility.yul\":12726:12756   */\n      gt\n        /* \"#utility.yul\":12723:12840   */\n      iszero\n      tag_407\n      jumpi\n        /* \"#utility.yul\":12759:12838   */\n      tag_408\n      tag_197\n      jump\t// in\n    tag_408:\n        /* \"#utility.yul\":12723:12840   */\n    tag_407:\n        /* \"#utility.yul\":12872:12936   */\n      tag_409\n        /* \"#utility.yul\":12928:12935   */\n      dup7\n        /* \"#utility.yul\":12919:12925   */\n      dup3\n        /* \"#utility.yul\":12908:12917   */\n      dup8\n        /* \"#utility.yul\":12904:12926   */\n      add\n        /* \"#utility.yul\":12872:12936   */\n      tag_234\n      jump\t// in\n    tag_409:\n        /* \"#utility.yul\":12854:12936   */\n      swap3\n      pop\n      swap3\n      pop\n        /* \"#utility.yul\":12649:12946   */\n      pop\n        /* \"#utility.yul\":12281:12953   */\n      swap3\n      pop\n      swap3\n      pop\n      swap3\n      jump\t// out\n        /* \"#utility.yul\":12959:13128   */\n    tag_235:\n        /* \"#utility.yul\":13043:13054   */\n      0x00\n        /* \"#utility.yul\":13077:13083   */\n      dup3\n        /* \"#utility.yul\":13072:13075   */\n      dup3\n        /* \"#utility.yul\":13065:13084   */\n      mstore\n        /* \"#utility.yul\":13117:13121   */\n      0x20\n        /* \"#utility.yul\":13112:13115   */\n      dup3\n        /* \"#utility.yul\":13108:13122   */\n      add\n        /* \"#utility.yul\":13093:13122   */\n      swap1\n      pop\n        /* \"#utility.yul\":12959:13128   */\n      swap3\n      swap2\n      pop\n      pop\n      jump\t// out\n        /* \"#utility.yul\":13134:13368   */\n    tag_236:\n        /* \"#utility.yul\":13274:13308   */\n      0x416363657373436f6e74726f6c3a2063616e206f6e6c792072656e6f756e6365\n        /* \"#utility.yul\":13270:13271   */\n      0x00\n        /* \"#utility.yul\":13262:13268   */\n      dup3\n        /* \"#utility.yul\":13258:13272   */\n      add\n        /* \"#utility.yul\":13251:13309   */\n      mstore\n        /* \"#utility.yul\":13343:13360   */\n      0x20726f6c657320666f722073656c660000000000000000000000000000000000\n        /* \"#utility.yul\":13338:13340   */\n      0x20\n        /* \"#utility.yul\":13330:13336   */\n      dup3\n        /* \"#utility.yul\":13326:13341   */\n      add\n        /* \"#utility.yul\":13319:13361   */\n      mstore\n        /* \"#utility.yul\":13134:13368   */\n      pop\n      jump\t// out\n        /* \"#utility.yul\":13374:13740   */\n    tag_237:\n        /* \"#utility.yul\":13516:13519   */\n      0x00\n        /* \"#utility.yul\":13537:13604   */\n      tag_413\n        /* \"#utility.yul\":13601:13603   */\n      0x2f\n        /* \"#utility.yul\":13596:13599   */\n      dup4\n        /* \"#utility.yul\":13537:13604   */\n      tag_235\n      jump\t// in\n    tag_413:\n        /* \"#utility.yul\":13530:13604   */\n      swap2\n      pop\n        /* \"#utility.yul\":13613:13706   */\n      tag_414\n        /* \"#utility.yul\":13702:13705   */\n      dup3\n        /* \"#utility.yul\":13613:13706   */\n      tag_236\n      jump\t// in\n    tag_414:\n        /* \"#utility.yul\":13731:13733   */\n      0x40\n        /* \"#utility.yul\":13726:13729   */\n      dup3\n        /* \"#utility.yul\":13722:13734   */\n      add\n        /* \"#utility.yul\":13715:13734   */\n      swap1\n      pop\n        /* \"#utility.yul\":13374:13740   */\n      swap2\n      swap1\n      pop\n      jump\t// out\n        /* \"#utility.yul\":13746:14165   */\n    tag_81:\n        /* \"#utility.yul\":13912:13916   */\n      0x00\n        /* \"#utility.yul\":13950:13952   */\n      0x20\n        /* \"#utility.yul\":13939:13948   */\n      dup3\n        /* \"#utility.yul\":13935:13953   */\n      add\n        /* \"#utility.yul\":13927:13953   */\n      swap1\n      pop\n        /* \"#utility.yul\":13999:14008   */\n      dup2\n        /* \"#utility.yul\":13993:13997   */\n      dup2\n        /* \"#utility.yul\":13989:14009   */\n      sub\n        /* \"#utility.yul\":13985:13986   */\n      0x00\n        /* \"#utility.yul\":13974:13983   */\n      dup4\n        /* \"#utility.yul\":13970:13987   */\n      add\n        /* \"#utility.yul\":13963:14010   */\n      mstore\n        /* \"#utility.yul\":14027:14158   */\n      tag_416\n        /* \"#utility.yul\":14153:14157   */\n      dup2\n        /* \"#utility.yul\":14027:14158   */\n      tag_237\n      jump\t// in\n    tag_416:\n        /* \"#utility.yul\":14019:14158   */\n      swap1\n      pop\n        /* \"#utility.yul\":13746:14165   */\n      swap2\n      swap1\n      pop\n      jump\t// out\n        /* \"#utility.yul\":14171:14403   */\n    tag_238:\n        /* \"#utility.yul\":14311:14345   */\n      0x4d65746152656c617965723a207461726765747320616e642064617461206c65\n        /* \"#utility.yul\":14307:14308   */\n      0x00\n        /* \"#utility.yul\":14299:14305   */\n      dup3\n        /* \"#utility.yul\":14295:14309   */\n      add\n        /* \"#utility.yul\":14288:14346   */\n      mstore\n        /* \"#utility.yul\":14380:14395   */\n      0x6e677468206d69736d6174636800000000000000000000000000000000000000\n        /* \"#utility.yul\":14375:14377   */\n      0x20\n        /* \"#utility.yul\":14367:14373   */\n      dup3\n        /* \"#utility.yul\":14363:14378   */\n      add\n        /* \"#utility.yul\":14356:14396   */\n      mstore\n        /* \"#utility.yul\":14171:14403   */\n      pop\n      jump\t// out\n        /* \"#utility.yul\":14409:14775   */\n    tag_239:\n        /* \"#utility.yul\":14551:14554   */\n      0x00\n        /* \"#utility.yul\":14572:14639   */\n      tag_419\n        /* \"#utility.yul\":14636:14638   */\n      0x2d\n        /* \"#utility.yul\":14631:14634   */\n      dup4\n        /* \"#utility.yul\":14572:14639   */\n      tag_235\n      jump\t// in\n    tag_419:\n        /* \"#utility.yul\":14565:14639   */\n      swap2\n      pop\n        /* \"#utility.yul\":14648:14741   */\n      tag_420\n        /* \"#utility.yul\":14737:14740   */\n      dup3\n        /* \"#utility.yul\":14648:14741   */\n      tag_238\n      jump\t// in\n    tag_420:\n        /* \"#utility.yul\":14766:14768   */\n      0x40\n        /* \"#utility.yul\":14761:14764   */\n      dup3\n        /* \"#utility.yul\":14757:14769   */\n      add\n        /* \"#utility.yul\":14750:14769   */\n      swap1\n      pop\n        /* \"#utility.yul\":14409:14775   */\n      swap2\n      swap1\n      pop\n      jump\t// out\n        /* \"#utility.yul\":14781:15200   */\n    tag_89:\n        /* \"#utility.yul\":14947:14951   */\n      0x00\n        /* \"#utility.yul\":14985:14987   */\n      0x20\n        /* \"#utility.yul\":14974:14983   */\n      dup3\n        /* \"#utility.yul\":14970:14988   */\n      add\n        /* \"#utility.yul\":14962:14988   */\n      swap1\n      pop\n        /* \"#utility.yul\":15034:15043   */\n      dup2\n        /* \"#utility.yul\":15028:15032   */\n      dup2\n        /* \"#utility.yul\":15024:15044   */\n      sub\n        /* \"#utility.yul\":15020:15021   */\n      0x00\n        /* \"#utility.yul\":15009:15018   */\n      dup4\n        /* \"#utility.yul\":15005:15022   */\n      add\n        /* \"#utility.yul\":14998:15045   */\n      mstore\n        /* \"#utility.yul\":15062:15193   */\n      tag_422\n        /* \"#utility.yul\":15188:15192   */\n      dup2\n        /* \"#utility.yul\":15062:15193   */\n      tag_239\n      jump\t// in\n    tag_422:\n        /* \"#utility.yul\":15054:15193   */\n      swap1\n      pop\n        /* \"#utility.yul\":14781:15200   */\n      swap2\n      swap1\n      pop\n      jump\t// out\n        /* \"#utility.yul\":15206:15440   */\n    tag_240:\n        /* \"#utility.yul\":15346:15380   */\n      0x4d65746152656c617965723a207461726765747320616e642076616c75657320\n        /* \"#utility.yul\":15342:15343   */\n      0x00\n        /* \"#utility.yul\":15334:15340   */\n      dup3\n        /* \"#utility.yul\":15330:15344   */\n      add\n        /* \"#utility.yul\":15323:15381   */\n      mstore\n        /* \"#utility.yul\":15415:15432   */\n      0x6c656e677468206d69736d617463680000000000000000000000000000000000\n        /* \"#utility.yul\":15410:15412   */\n      0x20\n        /* \"#utility.yul\":15402:15408   */\n      dup3\n        /* \"#utility.yul\":15398:15413   */\n      add\n        /* \"#utility.yul\":15391:15433   */\n      mstore\n        /* \"#utility.yul\":15206:15440   */\n      pop\n      jump\t// out\n        /* \"#utility.yul\":15446:15812   */\n    tag_241:\n        /* \"#utility.yul\":15588:15591   */\n      0x00\n        /* \"#utility.yul\":15609:15676   */\n      tag_425\n        /* \"#utility.yul\":15673:15675   */\n      0x2f\n        /* \"#utility.yul\":15668:15671   */\n      dup4\n        /* \"#utility.yul\":15609:15676   */\n      tag_235\n      jump\t// in\n    tag_425:\n        /* \"#utility.yul\":15602:15676   */\n      swap2\n      pop\n        /* \"#utility.yul\":15685:15778   */\n      tag_426\n        /* \"#utility.yul\":15774:15777   */\n      dup3\n        /* \"#utility.yul\":15685:15778   */\n      tag_240\n      jump\t// in\n    tag_426:\n        /* \"#utility.yul\":15803:15805   */\n      0x40\n        /* \"#utility.yul\":15798:15801   */\n      dup3\n        /* \"#utility.yul\":15794:15806   */\n      add\n        /* \"#utility.yul\":15787:15806   */\n      swap1\n      pop\n        /* \"#utility.yul\":15446:15812   */\n      swap2\n      swap1\n      pop\n      jump\t// out\n        /* \"#utility.yul\":15818:16237   */\n    tag_92:\n        /* \"#utility.yul\":15984:15988   */\n      0x00\n        /* \"#utility.yul\":16022:16024   */\n      0x20\n        /* \"#utility.yul\":16011:16020   */\n      dup3\n        /* \"#utility.yul\":16007:16025   */\n      add\n        /* \"#utility.yul\":15999:16025   */\n      swap1\n      pop\n        /* \"#utility.yul\":16071:16080   */\n      dup2\n        /* \"#utility.yul\":16065:16069   */\n      dup2\n        /* \"#utility.yul\":16061:16081   */\n      sub\n        /* \"#utility.yul\":16057:16058   */\n      0x00\n        /* \"#utility.yul\":16046:16055   */\n      dup4\n        /* \"#utility.yul\":16042:16059   */\n      add\n        /* \"#utility.yul\":16035:16082   */\n      mstore\n        /* \"#utility.yul\":16099:16230   */\n      tag_428\n        /* \"#utility.yul\":16225:16229   */\n      dup2\n        /* \"#utility.yul\":16099:16230   */\n      tag_241\n      jump\t// in\n    tag_428:\n        /* \"#utility.yul\":16091:16230   */\n      swap1\n      pop\n        /* \"#utility.yul\":15818:16237   */\n      swap2\n      swap1\n      pop\n      jump\t// out\n        /* \"#utility.yul\":16243:16423   */\n    tag_102:\n        /* \"#utility.yul\":16291:16368   */\n      0x4e487b7100000000000000000000000000000000000000000000000000000000\n        /* \"#utility.yul\":16288:16289   */\n      0x00\n        /* \"#utility.yul\":16281:16369   */\n      mstore\n        /* \"#utility.yul\":16388:16392   */\n      0x32\n        /* \"#utility.yul\":16385:16386   */\n      0x04\n        /* \"#utility.yul\":16378:16393   */\n      mstore\n        /* \"#utility.yul\":16412:16416   */\n      0x24\n        /* \"#utility.yul\":16409:16410   */\n      0x00\n        /* \"#utility.yul\":16402:16417   */\n      revert\n        /* \"#utility.yul\":16429:16546   */\n    tag_242:\n        /* \"#utility.yul\":16538:16539   */\n      0x00\n        /* \"#utility.yul\":16535:16536   */\n      dup1\n        /* \"#utility.yul\":16528:16540   */\n      revert\n        /* \"#utility.yul\":16552:16669   */\n    tag_243:\n        /* \"#utility.yul\":16661:16662   */\n      0x00\n        /* \"#utility.yul\":16658:16659   */\n      dup1\n        /* \"#utility.yul\":16651:16663   */\n      revert\n        /* \"#utility.yul\":16675:16792   */\n    tag_244:\n        /* \"#utility.yul\":16784:16785   */\n      0x00\n        /* \"#utility.yul\":16781:16782   */\n      dup1\n        /* \"#utility.yul\":16774:16786   */\n      revert\n        /* \"#utility.yul\":16798:17522   */\n    tag_108:\n        /* \"#utility.yul\":16875:16879   */\n      0x00\n        /* \"#utility.yul\":16881:16887   */\n      dup1\n        /* \"#utility.yul\":16937:16948   */\n      dup4\n        /* \"#utility.yul\":16924:16949   */\n      calldataload\n        /* \"#utility.yul\":17037:17038   */\n      0x01\n        /* \"#utility.yul\":17031:17035   */\n      0x20\n        /* \"#utility.yul\":17027:17039   */\n      sub\n        /* \"#utility.yul\":17016:17024   */\n      dup5\n        /* \"#utility.yul\":17000:17014   */\n      calldatasize\n        /* \"#utility.yul\":16996:17025   */\n      sub\n        /* \"#utility.yul\":16992:17040   */\n      sub\n        /* \"#utility.yul\":16972:16990   */\n      dup2\n        /* \"#utility.yul\":16968:17041   */\n      slt\n        /* \"#utility.yul\":16958:17126   */\n      tag_434\n      jumpi\n        /* \"#utility.yul\":17045:17124   */\n      tag_435\n      tag_242\n      jump\t// in\n    tag_435:\n        /* \"#utility.yul\":16958:17126   */\n    tag_434:\n        /* \"#utility.yul\":17157:17175   */\n      dup1\n        /* \"#utility.yul\":17147:17155   */\n      dup5\n        /* \"#utility.yul\":17143:17176   */\n      add\n        /* \"#utility.yul\":17135:17176   */\n      swap3\n      pop\n        /* \"#utility.yul\":17209:17213   */\n      dup3\n        /* \"#utility.yul\":17196:17214   */\n      calldataload\n        /* \"#utility.yul\":17186:17214   */\n      swap2\n      pop\n        /* \"#utility.yul\":17237:17255   */\n      0xffffffffffffffff\n        /* \"#utility.yul\":17229:17235   */\n      dup3\n        /* \"#utility.yul\":17226:17256   */\n      gt\n        /* \"#utility.yul\":17223:17340   */\n      iszero\n      tag_436\n      jumpi\n        /* \"#utility.yul\":17259:17338   */\n      tag_437\n      tag_243\n      jump\t// in\n    tag_437:\n        /* \"#utility.yul\":17223:17340   */\n    tag_436:\n        /* \"#utility.yul\":17367:17369   */\n      0x20\n        /* \"#utility.yul\":17361:17365   */\n      dup4\n        /* \"#utility.yul\":17357:17370   */\n      add\n        /* \"#utility.yul\":17349:17370   */\n      swap3\n      pop\n        /* \"#utility.yul\":17424:17428   */\n      0x01\n        /* \"#utility.yul\":17416:17422   */\n      dup3\n        /* \"#utility.yul\":17412:17429   */\n      mul\n        /* \"#utility.yul\":17396:17410   */\n      calldatasize\n        /* \"#utility.yul\":17392:17430   */\n      sub\n        /* \"#utility.yul\":17386:17390   */\n      dup4\n        /* \"#utility.yul\":17382:17431   */\n      sgt\n        /* \"#utility.yul\":17379:17515   */\n      iszero\n      tag_438\n      jumpi\n        /* \"#utility.yul\":17434:17513   */\n      tag_439\n      tag_244\n      jump\t// in\n    tag_439:\n        /* \"#utility.yul\":17379:17515   */\n    tag_438:\n        /* \"#utility.yul\":16888:17522   */\n      pop\n        /* \"#utility.yul\":16798:17522   */\n      swap3\n      pop\n      swap3\n      swap1\n      pop\n      jump\t// out\n        /* \"#utility.yul\":17528:17675   */\n    tag_245:\n        /* \"#utility.yul\":17629:17640   */\n      0x00\n        /* \"#utility.yul\":17666:17669   */\n      dup2\n        /* \"#utility.yul\":17651:17669   */\n      swap1\n      pop\n        /* \"#utility.yul\":17528:17675   */\n      swap3\n      swap2\n      pop\n      pop\n      jump\t// out\n        /* \"#utility.yul\":17681:17827   */\n    tag_246:\n        /* \"#utility.yul\":17778:17784   */\n      dup3\n        /* \"#utility.yul\":17773:17776   */\n      dup2\n        /* \"#utility.yul\":17768:17771   */\n      dup4\n        /* \"#utility.yul\":17755:17785   */\n      calldatacopy\n        /* \"#utility.yul\":17819:17820   */\n      0x00\n        /* \"#utility.yul\":17810:17816   */\n      dup4\n        /* \"#utility.yul\":17805:17808   */\n      dup4\n        /* \"#utility.yul\":17801:17817   */\n      add\n        /* \"#utility.yul\":17794:17821   */\n      mstore\n        /* \"#utility.yul\":17681:17827   */\n      pop\n      pop\n      pop\n      jump\t// out\n        /* \"#utility.yul\":17855:18182   */\n    tag_247:\n        /* \"#utility.yul\":17969:17972   */\n      0x00\n        /* \"#utility.yul\":17990:18078   */\n      tag_443\n        /* \"#utility.yul\":18071:18077   */\n      dup4\n        /* \"#utility.yul\":18066:18069   */\n      dup6\n        /* \"#utility.yul\":17990:18078   */\n      tag_245\n      jump\t// in\n    tag_443:\n        /* \"#utility.yul\":17983:18078   */\n      swap4\n      pop\n        /* \"#utility.yul\":18088:18144   */\n      tag_444\n        /* \"#utility.yul\":18137:18143   */\n      dup4\n        /* \"#utility.yul\":18132:18135   */\n      dup6\n        /* \"#utility.yul\":18125:18130   */\n      dup5\n        /* \"#utility.yul\":18088:18144   */\n      tag_246\n      jump\t// in\n    tag_444:\n        /* \"#utility.yul\":18169:18175   */\n      dup3\n        /* \"#utility.yul\":18164:18167   */\n      dup5\n        /* \"#utility.yul\":18160:18176   */\n      add\n        /* \"#utility.yul\":18153:18176   */\n      swap1\n      pop\n        /* \"#utility.yul\":17855:18182   */\n      swap4\n      swap3\n      pop\n      pop\n      pop\n      jump\t// out\n        /* \"#utility.yul\":18188:18479   */\n    tag_110:\n        /* \"#utility.yul\":18328:18331   */\n      0x00\n        /* \"#utility.yul\":18350:18453   */\n      tag_446\n        /* \"#utility.yul\":18449:18452   */\n      dup3\n        /* \"#utility.yul\":18440:18446   */\n      dup5\n        /* \"#utility.yul\":18432:18438   */\n      dup7\n        /* \"#utility.yul\":18350:18453   */\n      tag_247\n      jump\t// in\n    tag_446:\n        /* \"#utility.yul\":18343:18453   */\n      swap2\n      pop\n        /* \"#utility.yul\":18470:18473   */\n      dup2\n        /* \"#utility.yul\":18463:18473   */\n      swap1\n      pop\n        /* \"#utility.yul\":18188:18479   */\n      swap4\n      swap3\n      pop\n      pop\n      pop\n      jump\t// out\n        /* \"#utility.yul\":18485:18665   */\n    tag_248:\n        /* \"#utility.yul\":18533:18610   */\n      0x4e487b7100000000000000000000000000000000000000000000000000000000\n        /* \"#utility.yul\":18530:18531   */\n      0x00\n        /* \"#utility.yul\":18523:18611   */\n      mstore\n        /* \"#utility.yul\":18630:18634   */\n      0x11\n        /* \"#utility.yul\":18627:18628   */\n      0x04\n        /* \"#utility.yul\":18620:18635   */\n      mstore\n        /* \"#utility.yul\":18654:18658   */\n      0x24\n        /* \"#utility.yul\":18651:18652   */\n      0x00\n        /* \"#utility.yul\":18644:18659   */\n      revert\n        /* \"#utility.yul\":18671:18904   */\n    tag_117:\n        /* \"#utility.yul\":18710:18713   */\n      0x00\n        /* \"#utility.yul\":18733:18757   */\n      tag_449\n        /* \"#utility.yul\":18751:18756   */\n      dup3\n        /* \"#utility.yul\":18733:18757   */\n      tag_222\n      jump\t// in\n    tag_449:\n        /* \"#utility.yul\":18724:18757   */\n      swap2\n      pop\n        /* \"#utility.yul\":18779:18845   */\n      0xffffffffffffffffffffffffffffffffffffffffffffffffffffffffffffffff\n        /* \"#utility.yul\":18772:18777   */\n      dup3\n        /* \"#utility.yul\":18769:18846   */\n      sub\n        /* \"#utility.yul\":18766:18869   */\n      tag_450\n      jumpi\n        /* \"#utility.yul\":18849:18867   */\n      tag_451\n      tag_248\n      jump\t// in\n    tag_451:\n        /* \"#utility.yul\":18766:18869   */\n    tag_450:\n        /* \"#utility.yul\":18896:18897   */\n      0x01\n        /* \"#utility.yul\":18889:18894   */\n      dup3\n        /* \"#utility.yul\":18885:18898   */\n      add\n        /* \"#utility.yul\":18878:18898   */\n      swap1\n      pop\n        /* \"#utility.yul\":18671:18904   */\n      swap2\n      swap1\n      pop\n      jump\t// out\n        /* \"#utility.yul\":18910:19024   */\n    tag_249:\n      pop\n      jump\t// out\n        /* \"#utility.yul\":19030:19428   */\n    tag_250:\n        /* \"#utility.yul\":19189:19192   */\n      0x00\n        /* \"#utility.yul\":19210:19293   */\n      tag_454\n        /* \"#utility.yul\":19291:19292   */\n      0x00\n        /* \"#utility.yul\":19286:19289   */\n      dup4\n        /* \"#utility.yul\":19210:19293   */\n      tag_245\n      jump\t// in\n    tag_454:\n        /* \"#utility.yul\":19203:19293   */\n      swap2\n      pop\n        /* \"#utility.yul\":19302:19395   */\n      tag_455\n        /* \"#utility.yul\":19391:19394   */\n      dup3\n        /* \"#utility.yul\":19302:19395   */\n      tag_249\n      jump\t// in\n    tag_455:\n        /* \"#utility.yul\":19420:19421   */\n      0x00\n        /* \"#utility.yul\":19415:19418   */\n      dup3\n        /* \"#utility.yul\":19411:19422   */\n      add\n        /* \"#utility.yul\":19404:19422   */\n      swap1\n      pop\n        /* \"#utility.yul\":19030:19428   */\n      swap2\n      swap1\n      pop\n      jump\t// out\n        /* \"#utility.yul\":19434:19813   */\n    tag_120:\n        /* \"#utility.yul\":19618:19621   */\n      0x00\n        /* \"#utility.yul\":19640:19787   */\n      tag_457\n        /* \"#utility.yul\":19783:19786   */\n      dup3\n        /* \"#utility.yul\":19640:19787   */\n      tag_250\n      jump\t// in\n    tag_457:\n        /* \"#utility.yul\":19633:19787   */\n      swap2\n      pop\n        /* \"#utility.yul\":19804:19807   */\n      dup2\n        /* \"#utility.yul\":19797:19807   */\n      swap1\n      pop\n        /* \"#utility.yul\":19434:19813   */\n      swap2\n      swap1\n      pop\n      jump\t// out\n        /* \"#utility.yul\":19819:19967   */\n    tag_251:\n        /* \"#utility.yul\":19921:19932   */\n      0x00\n        /* \"#utility.yul\":19958:19961   */\n      dup2\n        /* \"#utility.yul\":19943:19961   */\n      swap1\n      pop\n        /* \"#utility.yul\":19819:19967   */\n      swap3\n      swap2\n      pop\n      pop\n      jump\t// out\n        /* \"#utility.yul\":19973:20146   */\n    tag_252:\n        /* \"#utility.yul\":20113:20138   */\n      0x416363657373436f6e74726f6c3a206163636f756e7420000000000000000000\n        /* \"#utility.yul\":20109:20110   */\n      0x00\n        /* \"#utility.yul\":20101:20107   */\n      dup3\n        /* \"#utility.yul\":20097:20111   */\n      add\n        /* \"#utility.yul\":20090:20139   */\n      mstore\n        /* \"#utility.yul\":19973:20146   */\n      pop\n      jump\t// out\n        /* \"#utility.yul\":20152:20554   */\n    tag_253:\n        /* \"#utility.yul\":20312:20315   */\n      0x00\n        /* \"#utility.yul\":20333:20418   */\n      tag_461\n        /* \"#utility.yul\":20415:20417   */\n      0x17\n        /* \"#utility.yul\":20410:20413   */\n      dup4\n        /* \"#utility.yul\":20333:20418   */\n      tag_251\n      jump\t// in\n    tag_461:\n        /* \"#utility.yul\":20326:20418   */\n      swap2\n      pop\n        /* \"#utility.yul\":20427:20520   */\n      tag_462\n        /* \"#utility.yul\":20516:20519   */\n      dup3\n        /* \"#utility.yul\":20427:20520   */\n      tag_252\n      jump\t// in\n    tag_462:\n        /* \"#utility.yul\":20545:20547   */\n      0x17\n        /* \"#utility.yul\":20540:20543   */\n      dup3\n        /* \"#utility.yul\":20536:20548   */\n      add\n        /* \"#utility.yul\":20529:20548   */\n      swap1\n      pop\n        /* \"#utility.yul\":20152:20554   */\n      swap2\n      swap1\n      pop\n      jump\t// out\n        /* \"#utility.yul\":20560:20659   */\n    tag_254:\n        /* \"#utility.yul\":20612:20618   */\n      0x00\n        /* \"#utility.yul\":20646:20651   */\n      dup2\n        /* \"#utility.yul\":20640:20652   */\n      mload\n        /* \"#utility.yul\":20630:20652   */\n      swap1\n      pop\n        /* \"#utility.yul\":20560:20659   */\n      swap2\n      swap1\n      pop\n      jump\t// out\n        /* \"#utility.yul\":20665:20911   */\n    tag_255:\n        /* \"#utility.yul\":20746:20747   */\n      0x00\n        /* \"#utility.yul\":20756:20869   */\n    tag_465:\n        /* \"#utility.yul\":20770:20776   */\n      dup4\n        /* \"#utility.yul\":20767:20768   */\n      dup2\n        /* \"#utility.yul\":20764:20777   */\n      lt\n        /* \"#utility.yul\":20756:20869   */\n      iszero\n      tag_467\n      jumpi\n        /* \"#utility.yul\":20855:20856   */\n      dup1\n        /* \"#utility.yul\":20850:20853   */\n      dup3\n        /* \"#utility.yul\":20846:20857   */\n      add\n        /* \"#utility.yul\":20840:20858   */\n      mload\n        /* \"#utility.yul\":20836:20837   */\n      dup2\n        /* \"#utility.yul\":20831:20834   */\n      dup5\n        /* \"#utility.yul\":20827:20838   */\n      add\n        /* \"#utility.yul\":20820:20859   */\n      mstore\n        /* \"#utility.yul\":20792:20794   */\n      0x20\n        /* \"#utility.yul\":20789:20790   */\n      dup2\n        /* \"#utility.yul\":20785:20795   */\n      add\n        /* \"#utility.yul\":20780:20795   */\n      swap1\n      pop\n        /* \"#utility.yul\":20756:20869   */\n      jump(tag_465)\n    tag_467:\n        /* \"#utility.yul\":20903:20904   */\n      0x00\n        /* \"#utility.yul\":20894:20900   */\n      dup5\n        /* \"#utility.yul\":20889:20892   */\n      dup5\n        /* \"#utility.yul\":20885:20901   */\n      add\n        /* \"#utility.yul\":20878:20905   */\n      mstore\n        /* \"#utility.yul\":20727:20911   */\n      pop\n        /* \"#utility.yul\":20665:20911   */\n      pop\n      pop\n      pop\n      jump\t// out\n        /* \"#utility.yul\":20917:21307   */\n    tag_256:\n        /* \"#utility.yul\":21023:21026   */\n      0x00\n        /* \"#utility.yul\":21051:21090   */\n      tag_469\n        /* \"#utility.yul\":21084:21089   */\n      dup3\n        /* \"#utility.yul\":21051:21090   */\n      tag_254\n      jump\t// in\n    tag_469:\n        /* \"#utility.yul\":21106:21195   */\n      tag_470\n        /* \"#utility.yul\":21188:21194   */\n      dup2\n        /* \"#utility.yul\":21183:21186   */\n      dup6\n        /* \"#utility.yul\":21106:21195   */\n      tag_251\n      jump\t// in\n    tag_470:\n        /* \"#utility.yul\":21099:21195   */\n      swap4\n      pop\n        /* \"#utility.yul\":21204:21269   */\n      tag_471\n        /* \"#utility.yul\":21262:21268   */\n      dup2\n        /* \"#utility.yul\":21257:21260   */\n      dup6\n        /* \"#utility.yul\":21250:21254   */\n      0x20\n        /* \"#utility.yul\":21243:21248   */\n      dup7\n        /* \"#utility.yul\":21239:21255   */\n      add\n        /* \"#utility.yul\":21204:21269   */\n      tag_255\n      jump\t// in\n    tag_471:\n        /* \"#utility.yul\":21294:21300   */\n      dup1\n        /* \"#utility.yul\":21289:21292   */\n      dup5\n        /* \"#utility.yul\":21285:21301   */\n      add\n        /* \"#utility.yul\":21278:21301   */\n      swap2\n      pop\n        /* \"#utility.yul\":21027:21307   */\n      pop\n        /* \"#utility.yul\":20917:21307   */\n      swap3\n      swap2\n      pop\n      pop\n      jump\t// out\n        /* \"#utility.yul\":21313:21480   */\n    tag_257:\n        /* \"#utility.yul\":21453:21472   */\n      0x206973206d697373696e6720726f6c6520000000000000000000000000000000\n        /* \"#utility.yul\":21449:21450   */\n      0x00\n        /* \"#utility.yul\":21441:21447   */\n      dup3\n        /* \"#utility.yul\":21437:21451   */\n      add\n        /* \"#utility.yul\":21430:21473   */\n      mstore\n        /* \"#utility.yul\":21313:21480   */\n      pop\n      jump\t// out\n        /* \"#utility.yul\":21486:21888   */\n    tag_258:\n        /* \"#utility.yul\":21646:21649   */\n      0x00\n        /* \"#utility.yul\":21667:21752   */\n      tag_474\n        /* \"#utility.yul\":21749:21751   */\n      0x11\n        /* \"#utility.yul\":21744:21747   */\n      dup4\n        /* \"#utility.yul\":21667:21752   */\n      tag_251\n      jump\t// in\n    tag_474:\n        /* \"#utility.yul\":21660:21752   */\n      swap2\n      pop\n        /* \"#utility.yul\":21761:21854   */\n      tag_475\n        /* \"#utility.yul\":21850:21853   */\n      dup3\n        /* \"#utility.yul\":21761:21854   */\n      tag_257\n      jump\t// in\n    tag_475:\n        /* \"#utility.yul\":21879:21881   */\n      0x11\n        /* \"#utility.yul\":21874:21877   */\n      dup3\n        /* \"#utility.yul\":21870:21882   */\n      add\n        /* \"#utility.yul\":21863:21882   */\n      swap1\n      pop\n        /* \"#utility.yul\":21486:21888   */\n      swap2\n      swap1\n      pop\n      jump\t// out\n        /* \"#utility.yul\":21894:22861   */\n    tag_164:\n        /* \"#utility.yul\":22276:22279   */\n      0x00\n        /* \"#utility.yul\":22298:22446   */\n      tag_477\n        /* \"#utility.yul\":22442:22445   */\n      dup3\n        /* \"#utility.yul\":22298:22446   */\n      tag_253\n      jump\t// in\n    tag_477:\n        /* \"#utility.yul\":22291:22446   */\n      swap2\n      pop\n        /* \"#utility.yul\":22463:22558   */\n      tag_478\n        /* \"#utility.yul\":22554:22557   */\n      dup3\n        /* \"#utility.yul\":22545:22551   */\n      dup6\n        /* \"#utility.yul\":22463:22558   */\n      tag_256\n      jump\t// in\n    tag_478:\n        /* \"#utility.yul\":22456:22558   */\n      swap2\n      pop\n        /* \"#utility.yul\":22575:22723   */\n      tag_479\n        /* \"#utility.yul\":22719:22722   */\n      dup3\n        /* \"#utility.yul\":22575:22723   */\n      tag_258\n      jump\t// in\n    tag_479:\n        /* \"#utility.yul\":22568:22723   */\n      swap2\n      pop\n        /* \"#utility.yul\":22740:22835   */\n      tag_480\n        /* \"#utility.yul\":22831:22834   */\n      dup3\n        /* \"#utility.yul\":22822:22828   */\n      dup5\n        /* \"#utility.yul\":22740:22835   */\n      tag_256\n      jump\t// in\n    tag_480:\n        /* \"#utility.yul\":22733:22835   */\n      swap2\n      pop\n        /* \"#utility.yul\":22852:22855   */\n      dup2\n        /* \"#utility.yul\":22845:22855   */\n      swap1\n      pop\n        /* \"#utility.yul\":21894:22861   */\n      swap4\n      swap3\n      pop\n      pop\n      pop\n      jump\t// out\n        /* \"#utility.yul\":22867:23244   */\n    tag_259:\n        /* \"#utility.yul\":22955:22958   */\n      0x00\n        /* \"#utility.yul\":22983:23022   */\n      tag_482\n        /* \"#utility.yul\":23016:23021   */\n      dup3\n        /* \"#utility.yul\":22983:23022   */\n      tag_254\n      jump\t// in\n    tag_482:\n        /* \"#utility.yul\":23038:23109   */\n      tag_483\n        /* \"#utility.yul\":23102:23108   */\n      dup2\n        /* \"#utility.yul\":23097:23100   */\n      dup6\n        /* \"#utility.yul\":23038:23109   */\n      tag_235\n      jump\t// in\n    tag_483:\n        /* \"#utility.yul\":23031:23109   */\n      swap4\n      pop\n        /* \"#utility.yul\":23118:23183   */\n      tag_484\n        /* \"#utility.yul\":23176:23182   */\n      dup2\n        /* \"#utility.yul\":23171:23174   */\n      dup6\n        /* \"#utility.yul\":23164:23168   */\n      0x20\n        /* \"#utility.yul\":23157:23162   */\n      dup7\n        /* \"#utility.yul\":23153:23169   */\n      add\n        /* \"#utility.yul\":23118:23183   */\n      tag_255\n      jump\t// in\n    tag_484:\n        /* \"#utility.yul\":23208:23237   */\n      tag_485\n        /* \"#utility.yul\":23230:23236   */\n      dup2\n        /* \"#utility.yul\":23208:23237   */\n      tag_212\n      jump\t// in\n    tag_485:\n        /* \"#utility.yul\":23203:23206   */\n      dup5\n        /* \"#utility.yul\":23199:23238   */\n      add\n        /* \"#utility.yul\":23192:23238   */\n      swap2\n      pop\n        /* \"#utility.yul\":22959:23244   */\n      pop\n        /* \"#utility.yul\":22867:23244   */\n      swap3\n      swap2\n      pop\n      pop\n      jump\t// out\n        /* \"#utility.yul\":23250:23563   */\n    tag_166:\n        /* \"#utility.yul\":23363:23367   */\n      0x00\n        /* \"#utility.yul\":23401:23403   */\n      0x20\n        /* \"#utility.yul\":23390:23399   */\n      dup3\n        /* \"#utility.yul\":23386:23404   */\n      add\n        /* \"#utility.yul\":23378:23404   */\n      swap1\n      pop\n        /* \"#utility.yul\":23450:23459   */\n      dup2\n        /* \"#utility.yul\":23444:23448   */\n      dup2\n        /* \"#utility.yul\":23440:23460   */\n      sub\n        /* \"#utility.yul\":23436:23437   */\n      0x00\n        /* \"#utility.yul\":23425:23434   */\n      dup4\n        /* \"#utility.yul\":23421:23438   */\n      add\n        /* \"#utility.yul\":23414:23461   */\n      mstore\n        /* \"#utility.yul\":23478:23556   */\n      tag_487\n        /* \"#utility.yul\":23551:23555   */\n      dup2\n        /* \"#utility.yul\":23542:23548   */\n      dup5\n        /* \"#utility.yul\":23478:23556   */\n      tag_259\n      jump\t// in\n    tag_487:\n        /* \"#utility.yul\":23470:23556   */\n      swap1\n      pop\n        /* \"#utility.yul\":23250:23563   */\n      swap3\n      swap2\n      pop\n      pop\n      jump\t// out\n        /* \"#utility.yul\":23569:23979   */\n    tag_171:\n        /* \"#utility.yul\":23609:23616   */\n      0x00\n        /* \"#utility.yul\":23632:23652   */\n      tag_489\n        /* \"#utility.yul\":23650:23651   */\n      dup3\n        /* \"#utility.yul\":23632:23652   */\n      tag_222\n      jump\t// in\n    tag_489:\n        /* \"#utility.yul\":23627:23652   */\n      swap2\n      pop\n        /* \"#utility.yul\":23666:23686   */\n      tag_490\n        /* \"#utility.yul\":23684:23685   */\n      dup4\n        /* \"#utility.yul\":23666:23686   */\n      tag_222\n      jump\t// in\n    tag_490:\n        /* \"#utility.yul\":23661:23686   */\n      swap3\n      pop\n        /* \"#utility.yul\":23721:23722   */\n      dup3\n        /* \"#utility.yul\":23718:23719   */\n      dup3\n        /* \"#utility.yul\":23714:23723   */\n      mul\n        /* \"#utility.yul\":23743:23773   */\n      tag_491\n        /* \"#utility.yul\":23761:23772   */\n      dup2\n        /* \"#utility.yul\":23743:23773   */\n      tag_222\n      jump\t// in\n    tag_491:\n        /* \"#utility.yul\":23732:23773   */\n      swap2\n      pop\n        /* \"#utility.yul\":23922:23923   */\n      dup3\n        /* \"#utility.yul\":23913:23920   */\n      dup3\n        /* \"#utility.yul\":23909:23924   */\n      div\n        /* \"#utility.yul\":23906:23907   */\n      dup5\n        /* \"#utility.yul\":23903:23925   */\n      eq\n        /* \"#utility.yul\":23883:23884   */\n      dup4\n        /* \"#utility.yul\":23876:23885   */\n      iszero\n        /* \"#utility.yul\":23856:23939   */\n      or\n        /* \"#utility.yul\":23833:23972   */\n      tag_492\n      jumpi\n        /* \"#utility.yul\":23952:23970   */\n      tag_493\n      tag_248\n      jump\t// in\n    tag_493:\n        /* \"#utility.yul\":23833:23972   */\n    tag_492:\n        /* \"#utility.yul\":23617:23979   */\n      pop\n        /* \"#utility.yul\":23569:23979   */\n      swap3\n      swap2\n      pop\n      pop\n      jump\t// out\n        /* \"#utility.yul\":23985:24176   */\n    tag_173:\n        /* \"#utility.yul\":24025:24028   */\n      0x00\n        /* \"#utility.yul\":24044:24064   */\n      tag_495\n        /* \"#utility.yul\":24062:24063   */\n      dup3\n        /* \"#utility.yul\":24044:24064   */\n      tag_222\n      jump\t// in\n    tag_495:\n        /* \"#utility.yul\":24039:24064   */\n      swap2\n      pop\n        /* \"#utility.yul\":24078:24098   */\n      tag_496\n        /* \"#utility.yul\":24096:24097   */\n      dup4\n        /* \"#utility.yul\":24078:24098   */\n      tag_222\n      jump\t// in\n    tag_496:\n        /* \"#utility.yul\":24073:24098   */\n      swap3\n      pop\n        /* \"#utility.yul\":24121:24122   */\n      dup3\n        /* \"#utility.yul\":24118:24119   */\n      dup3\n        /* \"#utility.yul\":24114:24123   */\n      add\n        /* \"#utility.yul\":24107:24123   */\n      swap1\n      pop\n        /* \"#utility.yul\":24142:24145   */\n      dup1\n        /* \"#utility.yul\":24139:24140   */\n      dup3\n        /* \"#utility.yul\":24136:24146   */\n      gt\n        /* \"#utility.yul\":24133:24169   */\n      iszero\n      tag_497\n      jumpi\n        /* \"#utility.yul\":24149:24167   */\n      tag_498\n      tag_248\n      jump\t// in\n    tag_498:\n        /* \"#utility.yul\":24133:24169   */\n    tag_497:\n        /* \"#utility.yul\":23985:24176   */\n      swap3\n      swap2\n      pop\n      pop\n      jump\t// out\n        /* \"#utility.yul\":24182:24353   */\n    tag_191:\n        /* \"#utility.yul\":24221:24224   */\n      0x00\n        /* \"#utility.yul\":24244:24268   */\n      tag_500\n        /* \"#utility.yul\":24262:24267   */\n      dup3\n        /* \"#utility.yul\":24244:24268   */\n      tag_222\n      jump\t// in\n    tag_500:\n        /* \"#utility.yul\":24235:24268   */\n      swap2\n      pop\n        /* \"#utility.yul\":24290:24294   */\n      0x00\n        /* \"#utility.yul\":24283:24288   */\n      dup3\n        /* \"#utility.yul\":24280:24295   */\n      sub\n        /* \"#utility.yul\":24277:24318   */\n      tag_501\n      jumpi\n        /* \"#utility.yul\":24298:24316   */\n      tag_502\n      tag_248\n      jump\t// in\n    tag_502:\n        /* \"#utility.yul\":24277:24318   */\n    tag_501:\n        /* \"#utility.yul\":24345:24346   */\n      0x01\n        /* \"#utility.yul\":24338:24343   */\n      dup3\n        /* \"#utility.yul\":24334:24347   */\n      sub\n        /* \"#utility.yul\":24327:24347   */\n      swap1\n      pop\n        /* \"#utility.yul\":24182:24353   */\n      swap2\n      swap1\n      pop\n      jump\t// out\n        /* \"#utility.yul\":24359:24541   */\n    tag_260:\n        /* \"#utility.yul\":24499:24533   */\n      0x537472696e67733a20686578206c656e67746820696e73756666696369656e74\n        /* \"#utility.yul\":24495:24496   */\n      0x00\n        /* \"#utility.yul\":24487:24493   */\n      dup3\n        /* \"#utility.yul\":24483:24497   */\n      add\n        /* \"#utility.yul\":24476:24534   */\n      mstore\n        /* \"#utility.yul\":24359:24541   */\n      pop\n      jump\t// out\n        /* \"#utility.yul\":24547:24913   */\n    tag_261:\n        /* \"#utility.yul\":24689:24692   */\n      0x00\n        /* \"#utility.yul\":24710:24777   */\n      tag_505\n        /* \"#utility.yul\":24774:24776   */\n      0x20\n        /* \"#utility.yul\":24769:24772   */\n      dup4\n        /* \"#utility.yul\":24710:24777   */\n      tag_235\n      jump\t// in\n    tag_505:\n        /* \"#utility.yul\":24703:24777   */\n      swap2\n      pop\n        /* \"#utility.yul\":24786:24879   */\n      tag_506\n        /* \"#utility.yul\":24875:24878   */\n      dup3\n        /* \"#utility.yul\":24786:24879   */\n      tag_260\n      jump\t// in\n    tag_506:\n        /* \"#utility.yul\":24904:24906   */\n      0x20\n        /* \"#utility.yul\":24899:24902   */\n      dup3\n        /* \"#utility.yul\":24895:24907   */\n      add\n        /* \"#utility.yul\":24888:24907   */\n      swap1\n      pop\n        /* \"#utility.yul\":24547:24913   */\n      swap2\n      swap1\n      pop\n      jump\t// out\n        /* \"#utility.yul\":24919:25338   */\n    tag_194:\n        /* \"#utility.yul\":25085:25089   */\n      0x00\n        /* \"#utility.yul\":25123:25125   */\n      0x20\n        /* \"#utility.yul\":25112:25121   */\n      dup3\n        /* \"#utility.yul\":25108:25126   */\n      add\n        /* \"#utility.yul\":25100:25126   */\n      swap1\n      pop\n        /* \"#utility.yul\":25172:25181   */\n      dup2\n        /* \"#utility.yul\":25166:25170   */\n      dup2\n        /* \"#utility.yul\":25162:25182   */\n      sub\n        /* \"#utility.yul\":25158:25159   */\n      0x00\n        /* \"#utility.yul\":25147:25156   */\n      dup4\n        /* \"#utility.yul\":25143:25160   */\n      add\n        /* \"#utility.yul\":25136:25183   */\n      mstore\n        /* \"#utility.yul\":25200:25331   */\n      tag_508\n        /* \"#utility.yul\":25326:25330   */\n      dup2\n        /* \"#utility.yul\":25200:25331   */\n      tag_261\n      jump\t// in\n    tag_508:\n        /* \"#utility.yul\":25192:25331   */\n      swap1\n      pop\n        /* \"#utility.yul\":24919:25338   */\n      swap2\n      swap1\n      pop\n      jump\t// out\n\n    auxdata: 0xa2646970667358221220fa53db9d822ccbc2b9ef65d96de285d8b21cb78b00fa63f2dbb9b335bc7b57a864736f6c63430008140033\n}\n",
				"bytecode": {
					"linkReferences": {},
					"object": "608060405260405162001da038038062001da08339818101604052810190620000299190620002dd565b80600181905550620000445f801b33620000eb60201b60201c565b5f8273ffffffffffffffffffffffffffffffffffffffff16346040516200006b9062000353565b5f6040518083038185875af1925050503d805f8114620000a7576040519150601f19603f3d011682016040523d82523d5f602084013e620000ac565b606091505b50509050620000e27fab4f864e5201b0fde9b5ee3e4cf96384802b0ffdfcf7f9de4699ce21a30afc4f84620000eb60201b60201c565b50505062000369565b620000fd8282620001d660201b60201c565b620001d25760015f808481526020019081526020015f205f015f8373ffffffffffffffffffffffffffffffffffffffff1673ffffffffffffffffffffffffffffffffffffffff1681526020019081526020015f205f6101000a81548160ff021916908315150217905550620001776200023960201b60201c565b73ffffffffffffffffffffffffffffffffffffffff168173ffffffffffffffffffffffffffffffffffffffff16837f2f8788117e7eff1d82e926ec794901d17c78024a50270940304540a733656f0d60405160405180910390a45b5050565b5f805f8481526020019081526020015f205f015f8373ffffffffffffffffffffffffffffffffffffffff1673ffffffffffffffffffffffffffffffffffffffff1681526020019081526020015f205f9054906101000a900460ff16905092915050565b5f33905090565b5f80fd5b5f73ffffffffffffffffffffffffffffffffffffffff82169050919050565b5f6200026f8262000244565b9050919050565b620002818162000263565b81146200028c575f80fd5b50565b5f815190506200029f8162000276565b92915050565b5f819050919050565b620002b981620002a5565b8114620002c4575f80fd5b50565b5f81519050620002d781620002ae565b92915050565b5f8060408385031215620002f657620002f562000240565b5b5f62000305858286016200028f565b92505060206200031885828601620002c7565b9150509250929050565b5f81905092915050565b50565b5f6200033c5f8362000322565b915062000349826200032c565b5f82019050919050565b5f6200035f826200032f565b9150819050919050565b611a2980620003775f395ff3fe608060405260043610610090575f3560e01c8063910dec1311610058578063910dec131461018657806391d14854146101b6578063a217fddf146101f2578063c89acc861461021c578063d547741f1461024c57610090565b806301ffc9a7146100945780632483e715146100d0578063248a9ca3146100fa5780632f2ff15d1461013657806336568abe1461015e575b5f80fd5b34801561009f575f80fd5b506100ba60048036038101906100b59190610dc1565b610274565b6040516100c79190610e06565b60405180910390f35b3480156100db575f80fd5b506100e46102ed565b6040516100f19190610e37565b60405180910390f35b348015610105575f80fd5b50610120600480360381019061011b9190610e7a565b610311565b60405161012d9190610e37565b60405180910390f35b348015610141575f80fd5b5061015c60048036038101906101579190610eff565b61032d565b005b348015610169575f80fd5b50610184600480360381019061017f9190610eff565b61034e565b005b6101a0600480360381019061019b91906111d9565b6103d1565b6040516101ad9190611339565b60405180910390f35b3480156101c1575f80fd5b506101dc60048036038101906101d79190610eff565b610683565b6040516101e99190610e06565b60405180910390f35b3480156101fd575f80fd5b506102066106e6565b6040516102139190610e37565b60405180910390f35b610236600480360381019061023191906113ae565b6106ec565b6040516102439190610e06565b60405180910390f35b348015610257575f80fd5b50610272600480360381019061026d9190610eff565b61081c565b005b5f7f7965db0b000000000000000000000000000000000000000000000000000000007bffffffffffffffffffffffffffffffffffffffffffffffffffffffff1916827bffffffffffffffffffffffffffffffffffffffffffffffffffffffff191614806102e657506102e58261083d565b5b9050919050565b7fab4f864e5201b0fde9b5ee3e4cf96384802b0ffdfcf7f9de4699ce21a30afc4f81565b5f805f8381526020019081526020015f20600101549050919050565b61033682610311565b61033f816108a6565b61034983836108ba565b505050565b610356610994565b73ffffffffffffffffffffffffffffffffffffffff168173ffffffffffffffffffffffffffffffffffffffff16146103c3576040517f08c379a00000000000000000000000000000000000000000000000000000000081526004016103ba9061148b565b60405180910390fd5b6103cd828261099b565b5050565b60607fab4f864e5201b0fde9b5ee3e4cf96384802b0ffdfcf7f9de4699ce21a30afc4f6103fd816108a6565b5f865190505f8686905090505f85519050818314610450576040517f08c379a000000000000000000000000000000000000000000000000000000000815260040161044790611519565b60405180910390fd5b808314610492576040517f08c379a0000000000000000000000000000000000000000000000000000000008152600401610489906115a7565b60405180910390fd5b5f8367ffffffffffffffff8111156104ad576104ac610f51565b5b6040519080825280602002602001820160405280156104db5781602001602082028036833780820191505090505b5090505f5b848110156105e5575f8b82815181106104fc576104fb6115c5565b5b602002602001015173ffffffffffffffffffffffffffffffffffffffff1689838151811061052d5761052c6115c5565b5b60200260200101518c8c85818110610548576105476115c5565b5b905060200281019061055a91906115fe565b60405161056892919061169c565b5f6040518083038185875af1925050503d805f81146105a2576040519150601f19603f3d011682016040523d82523d5f602084013e6105a7565b606091505b50509050808383815181106105bf576105be6115c5565b5b6020026020010190151590811515815250505080806105dd906116e1565b9150506104e0565b506001543373ffffffffffffffffffffffffffffffffffffffff16311015610673575f3373ffffffffffffffffffffffffffffffffffffffff1660015460405161062e9061174b565b5f6040518083038185875af1925050503d805f8114610668576040519150601f19603f3d011682016040523d82523d5f602084013e61066d565b606091505b50509050505b8095505050505050949350505050565b5f805f8481526020019081526020015f205f015f8373ffffffffffffffffffffffffffffffffffffffff1673ffffffffffffffffffffffffffffffffffffffff1681526020019081526020015f205f9054906101000a900460ff16905092915050565b5f801b81565b5f7fab4f864e5201b0fde9b5ee3e4cf96384802b0ffdfcf7f9de4699ce21a30afc4f610717816108a6565b5f8573ffffffffffffffffffffffffffffffffffffffff1634868660405161074092919061169c565b5f6040518083038185875af1925050503d805f811461077a576040519150601f19603f3d011682016040523d82523d5f602084013e61077f565b606091505b505090506001543373ffffffffffffffffffffffffffffffffffffffff16311015610810575f3373ffffffffffffffffffffffffffffffffffffffff166001546040516107cb9061174b565b5f6040518083038185875af1925050503d805f8114610805576040519150601f19603f3d011682016040523d82523d5f602084013e61080a565b606091505b50509050505b80925050509392505050565b61082582610311565b61082e816108a6565b610838838361099b565b505050565b5f7f01ffc9a7000000000000000000000000000000000000000000000000000000007bffffffffffffffffffffffffffffffffffffffffffffffffffffffff1916827bffffffffffffffffffffffffffffffffffffffffffffffffffffffff1916149050919050565b6108b7816108b2610994565b610a75565b50565b6108c48282610683565b6109905760015f808481526020019081526020015f205f015f8373ffffffffffffffffffffffffffffffffffffffff1673ffffffffffffffffffffffffffffffffffffffff1681526020019081526020015f205f6101000a81548160ff021916908315150217905550610935610994565b73ffffffffffffffffffffffffffffffffffffffff168173ffffffffffffffffffffffffffffffffffffffff16837f2f8788117e7eff1d82e926ec794901d17c78024a50270940304540a733656f0d60405160405180910390a45b5050565b5f33905090565b6109a58282610683565b15610a71575f805f8481526020019081526020015f205f015f8373ffffffffffffffffffffffffffffffffffffffff1673ffffffffffffffffffffffffffffffffffffffff1681526020019081526020015f205f6101000a81548160ff021916908315150217905550610a16610994565b73ffffffffffffffffffffffffffffffffffffffff168173ffffffffffffffffffffffffffffffffffffffff16837ff6391f5c32d9c69d2a47ea670b442974b53935d1edc7fd64eb21e047a839171b60405160405180910390a45b5050565b610a7f8282610683565b610af557610a8c81610af9565b610a99835f1c6020610b26565b604051602001610aaa92919061185f565b6040516020818303038152906040526040517f08c379a0000000000000000000000000000000000000000000000000000000008152600401610aec91906118d0565b60405180910390fd5b5050565b6060610b1f8273ffffffffffffffffffffffffffffffffffffffff16601460ff16610b26565b9050919050565b60605f6002836002610b3891906118f0565b610b429190611931565b67ffffffffffffffff811115610b5b57610b5a610f51565b5b6040519080825280601f01601f191660200182016040528015610b8d5781602001600182028036833780820191505090505b5090507f3000000000000000000000000000000000000000000000000000000000000000815f81518110610bc457610bc36115c5565b5b60200101907effffffffffffffffffffffffffffffffffffffffffffffffffffffffffffff191690815f1a9053507f780000000000000000000000000000000000000000000000000000000000000081600181518110610c2757610c266115c5565b5b60200101907effffffffffffffffffffffffffffffffffffffffffffffffffffffffffffff191690815f1a9053505f6001846002610c6591906118f0565b610c6f9190611931565b90505b6001811115610d0e577f3031323334353637383961626364656600000000000000000000000000000000600f861660108110610cb157610cb06115c5565b5b1a60f81b828281518110610cc857610cc76115c5565b5b60200101907effffffffffffffffffffffffffffffffffffffffffffffffffffffffffffff191690815f1a905350600485901c945080610d0790611964565b9050610c72565b505f8414610d51576040517f08c379a0000000000000000000000000000000000000000000000000000000008152600401610d48906119d5565b60405180910390fd5b8091505092915050565b5f604051905090565b5f80fd5b5f80fd5b5f7fffffffff0000000000000000000000000000000000000000000000000000000082169050919050565b610da081610d6c565b8114610daa575f80fd5b50565b5f81359050610dbb81610d97565b92915050565b5f60208284031215610dd657610dd5610d64565b5b5f610de384828501610dad565b91505092915050565b5f8115159050919050565b610e0081610dec565b82525050565b5f602082019050610e195f830184610df7565b92915050565b5f819050919050565b610e3181610e1f565b82525050565b5f602082019050610e4a5f830184610e28565b92915050565b610e5981610e1f565b8114610e63575f80fd5b50565b5f81359050610e7481610e50565b92915050565b5f60208284031215610e8f57610e8e610d64565b5b5f610e9c84828501610e66565b91505092915050565b5f73ffffffffffffffffffffffffffffffffffffffff82169050919050565b5f610ece82610ea5565b9050919050565b610ede81610ec4565b8114610ee8575f80fd5b50565b5f81359050610ef981610ed5565b92915050565b5f8060408385031215610f1557610f14610d64565b5b5f610f2285828601610e66565b9250506020610f3385828601610eeb565b9150509250929050565b5f80fd5b5f601f19601f8301169050919050565b7f4e487b71000000000000000000000000000000000000000000000000000000005f52604160045260245ffd5b610f8782610f41565b810181811067ffffffffffffffff82111715610fa657610fa5610f51565b5b80604052505050565b5f610fb8610d5b565b9050610fc48282610f7e565b919050565b5f67ffffffffffffffff821115610fe357610fe2610f51565b5b602082029050602081019050919050565b5f80fd5b5f61100a61100584610fc9565b610faf565b9050808382526020820190506020840283018581111561102d5761102c610ff4565b5b835b8181101561105657806110428882610eeb565b84526020840193505060208101905061102f565b5050509392505050565b5f82601f83011261107457611073610f3d565b5b8135611084848260208601610ff8565b91505092915050565b5f80fd5b5f8083601f8401126110a6576110a5610f3d565b5b8235905067ffffffffffffffff8111156110c3576110c261108d565b5b6020830191508360208202830111156110df576110de610ff4565b5b9250929050565b5f67ffffffffffffffff821115611100576110ff610f51565b5b602082029050602081019050919050565b5f819050919050565b61112381611111565b811461112d575f80fd5b50565b5f8135905061113e8161111a565b92915050565b5f611156611151846110e6565b610faf565b9050808382526020820190506020840283018581111561117957611178610ff4565b5b835b818110156111a2578061118e8882611130565b84526020840193505060208101905061117b565b5050509392505050565b5f82601f8301126111c0576111bf610f3d565b5b81356111d0848260208601611144565b91505092915050565b5f805f80606085870312156111f1576111f0610d64565b5b5f85013567ffffffffffffffff81111561120e5761120d610d68565b5b61121a87828801611060565b945050602085013567ffffffffffffffff81111561123b5761123a610d68565b5b61124787828801611091565b9350935050604085013567ffffffffffffffff81111561126a57611269610d68565b5b611276878288016111ac565b91505092959194509250565b5f81519050919050565b5f82825260208201905092915050565b5f819050602082019050919050565b6112b481610dec565b82525050565b5f6112c583836112ab565b60208301905092915050565b5f602082019050919050565b5f6112e782611282565b6112f1818561128c565b93506112fc8361129c565b805f5b8381101561132c57815161131388826112ba565b975061131e836112d1565b9250506001810190506112ff565b5085935050505092915050565b5f6020820190508181035f83015261135181846112dd565b905092915050565b5f8083601f84011261136e5761136d610f3d565b5b8235905067ffffffffffffffff81111561138b5761138a61108d565b5b6020830191508360018202830111156113a7576113a6610ff4565b5b9250929050565b5f805f604084860312156113c5576113c4610d64565b5b5f6113d286828701610eeb565b935050602084013567ffffffffffffffff8111156113f3576113f2610d68565b5b6113ff86828701611359565b92509250509250925092565b5f82825260208201905092915050565b7f416363657373436f6e74726f6c3a2063616e206f6e6c792072656e6f756e63655f8201527f20726f6c657320666f722073656c660000000000000000000000000000000000602082015250565b5f611475602f8361140b565b91506114808261141b565b604082019050919050565b5f6020820190508181035f8301526114a281611469565b9050919050565b7f4d65746152656c617965723a207461726765747320616e642064617461206c655f8201527f6e677468206d69736d6174636800000000000000000000000000000000000000602082015250565b5f611503602d8361140b565b915061150e826114a9565b604082019050919050565b5f6020820190508181035f830152611530816114f7565b9050919050565b7f4d65746152656c617965723a207461726765747320616e642076616c756573205f8201527f6c656e677468206d69736d617463680000000000000000000000000000000000602082015250565b5f611591602f8361140b565b915061159c82611537565b604082019050919050565b5f6020820190508181035f8301526115be81611585565b9050919050565b7f4e487b71000000000000000000000000000000000000000000000000000000005f52603260045260245ffd5b5f80fd5b5f80fd5b5f80fd5b5f808335600160200384360303811261161a576116196115f2565b5b80840192508235915067ffffffffffffffff82111561163c5761163b6115f6565b5b602083019250600182023603831315611658576116576115fa565b5b509250929050565b5f81905092915050565b828183375f83830152505050565b5f6116838385611660565b935061169083858461166a565b82840190509392505050565b5f6116a8828486611678565b91508190509392505050565b7f4e487b71000000000000000000000000000000000000000000000000000000005f52601160045260245ffd5b5f6116eb82611111565b91507fffffffffffffffffffffffffffffffffffffffffffffffffffffffffffffffff820361171d5761171c6116b4565b5b600182019050919050565b50565b5f6117365f83611660565b915061174182611728565b5f82019050919050565b5f6117558261172b565b9150819050919050565b5f81905092915050565b7f416363657373436f6e74726f6c3a206163636f756e74200000000000000000005f82015250565b5f61179d60178361175f565b91506117a882611769565b601782019050919050565b5f81519050919050565b5f5b838110156117da5780820151818401526020810190506117bf565b5f8484015250505050565b5f6117ef826117b3565b6117f9818561175f565b93506118098185602086016117bd565b80840191505092915050565b7f206973206d697373696e6720726f6c65200000000000000000000000000000005f82015250565b5f61184960118361175f565b915061185482611815565b601182019050919050565b5f61186982611791565b915061187582856117e5565b91506118808261183d565b915061188c82846117e5565b91508190509392505050565b5f6118a2826117b3565b6118ac818561140b565b93506118bc8185602086016117bd565b6118c581610f41565b840191505092915050565b5f6020820190508181035f8301526118e88184611898565b905092915050565b5f6118fa82611111565b915061190583611111565b925082820261191381611111565b9150828204841483151761192a576119296116b4565b5b5092915050565b5f61193b82611111565b915061194683611111565b925082820190508082111561195e5761195d6116b4565b5b92915050565b5f61196e82611111565b91505f82036119805761197f6116b4565b5b600182039050919050565b7f537472696e67733a20686578206c656e67746820696e73756666696369656e745f82015250565b5f6119bf60208361140b565b91506119ca8261198b565b602082019050919050565b5f6020820190508181035f8301526119ec816119b3565b905091905056fea2646970667358221220fa53db9d822ccbc2b9ef65d96de285d8b21cb78b00fa63f2dbb9b335bc7b57a864736f6c63430008140033",
					"opcodes": "PUSH1 0x80 PUSH1 0x40 MSTORE PUSH1 0x40 MLOAD PUSH3 0x1DA0 CODESIZE SUB DUP1 PUSH3 0x1DA0 DUP4 CODECOPY DUP2 DUP2 ADD PUSH1 0x40 MSTORE DUP2 ADD SWAP1 PUSH3 0x29 SWAP2 SWAP1 PUSH3 0x2DD JUMP JUMPDEST DUP1 PUSH1 0x1 DUP2 SWAP1 SSTORE POP PUSH3 0x44 PUSH0 DUP1 SHL CALLER PUSH3 0xEB PUSH1 0x20 SHL PUSH1 0x20 SHR JUMP JUMPDEST PUSH0 DUP3 PUSH20 0xFFFFFFFFFFFFFFFFFFFFFFFFFFFFFFFFFFFFFFFF AND CALLVALUE PUSH1 0x40 MLOAD PUSH3 0x6B SWAP1 PUSH3 0x353 JUMP JUMPDEST PUSH0 PUSH1 0x40 MLOAD DUP1 DUP4 SUB DUP2 DUP6 DUP8 GAS CALL SWAP3 POP POP POP RETURNDATASIZE DUP1 PUSH0 DUP2 EQ PUSH3 0xA7 JUMPI PUSH1 0x40 MLOAD SWAP2 POP PUSH1 0x1F NOT PUSH1 0x3F RETURNDATASIZE ADD AND DUP3 ADD PUSH1 0x40 MSTORE RETURNDATASIZE DUP3 MSTORE RETURNDATASIZE PUSH0 PUSH1 0x20 DUP5 ADD RETURNDATACOPY PUSH3 0xAC JUMP JUMPDEST PUSH1 0x60 SWAP2 POP JUMPDEST POP POP SWAP1 POP PUSH3 0xE2 PUSH32 0xAB4F864E5201B0FDE9B5EE3E4CF96384802B0FFDFCF7F9DE4699CE21A30AFC4F DUP5 PUSH3 0xEB PUSH1 0x20 SHL PUSH1 0x20 SHR JUMP JUMPDEST POP POP POP PUSH3 0x369 JUMP JUMPDEST PUSH3 0xFD DUP3 DUP3 PUSH3 0x1D6 PUSH1 0x20 SHL PUSH1 0x20 SHR JUMP JUMPDEST PUSH3 0x1D2 JUMPI PUSH1 0x1 PUSH0 DUP1 DUP5 DUP2 MSTORE PUSH1 0x20 ADD SWAP1 DUP2 MSTORE PUSH1 0x20 ADD PUSH0 KECCAK256 PUSH0 ADD PUSH0 DUP4 PUSH20 0xFFFFFFFFFFFFFFFFFFFFFFFFFFFFFFFFFFFFFFFF AND PUSH20 0xFFFFFFFFFFFFFFFFFFFFFFFFFFFFFFFFFFFFFFFF AND DUP2 MSTORE PUSH1 0x20 ADD SWAP1 DUP2 MSTORE PUSH1 0x20 ADD PUSH0 KECCAK256 PUSH0 PUSH2 0x100 EXP DUP2 SLOAD DUP2 PUSH1 0xFF MUL NOT AND SWAP1 DUP4 ISZERO ISZERO MUL OR SWAP1 SSTORE POP PUSH3 0x177 PUSH3 0x239 PUSH1 0x20 SHL PUSH1 0x20 SHR JUMP JUMPDEST PUSH20 0xFFFFFFFFFFFFFFFFFFFFFFFFFFFFFFFFFFFFFFFF AND DUP2 PUSH20 0xFFFFFFFFFFFFFFFFFFFFFFFFFFFFFFFFFFFFFFFF AND DUP4 PUSH32 0x2F8788117E7EFF1D82E926EC794901D17C78024A50270940304540A733656F0D PUSH1 0x40 MLOAD PUSH1 0x40 MLOAD DUP1 SWAP2 SUB SWAP1 LOG4 JUMPDEST POP POP JUMP JUMPDEST PUSH0 DUP1 PUSH0 DUP5 DUP2 MSTORE PUSH1 0x20 ADD SWAP1 DUP2 MSTORE PUSH1 0x20 ADD PUSH0 KECCAK256 PUSH0 ADD PUSH0 DUP4 PUSH20 0xFFFFFFFFFFFFFFFFFFFFFFFFFFFFFFFFFFFFFFFF AND PUSH20 0xFFFFFFFFFFFFFFFFFFFFFFFFFFFFFFFFFFFFFFFF AND DUP2 MSTORE PUSH1 0x20 ADD SWAP1 DUP2 MSTORE PUSH1 0x20 ADD PUSH0 KECCAK256 PUSH0 SWAP1 SLOAD SWAP1 PUSH2 0x100 EXP SWAP1 DIV PUSH1 0xFF AND SWAP1 POP SWAP3 SWAP2 POP POP JUMP JUMPDEST PUSH0 CALLER SWAP1 POP SWAP1 JUMP JUMPDEST PUSH0 DUP1 REVERT JUMPDEST PUSH0 PUSH20 0xFFFFFFFFFFFFFFFFFFFFFFFFFFFFFFFFFFFFFFFF DUP3 AND SWAP1 POP SWAP2 SWAP1 POP JUMP JUMPDEST PUSH0 PUSH3 0x26F DUP3 PUSH3 0x244 JUMP JUMPDEST SWAP1 POP SWAP2 SWAP1 POP JUMP JUMPDEST PUSH3 0x281 DUP2 PUSH3 0x263 JUMP JUMPDEST DUP2 EQ PUSH3 0x28C JUMPI PUSH0 DUP1 REVERT JUMPDEST POP JUMP JUMPDEST PUSH0 DUP2 MLOAD SWAP1 POP PUSH3 0x29F DUP2 PUSH3 0x276 JUMP JUMPDEST SWAP3 SWAP2 POP POP JUMP JUMPDEST PUSH0 DUP2 SWAP1 POP SWAP2 SWAP1 POP JUMP JUMPDEST PUSH3 0x2B9 DUP2 PUSH3 0x2A5 JUMP JUMPDEST DUP2 EQ PUSH3 0x2C4 JUMPI PUSH0 DUP1 REVERT JUMPDEST POP JUMP JUMPDEST PUSH0 DUP2 MLOAD SWAP1 POP PUSH3 0x2D7 DUP2 PUSH3 0x2AE JUMP JUMPDEST SWAP3 SWAP2 POP POP JUMP JUMPDEST PUSH0 DUP1 PUSH1 0x40 DUP4 DUP6 SUB SLT ISZERO PUSH3 0x2F6 JUMPI PUSH3 0x2F5 PUSH3 0x240 JUMP JUMPDEST JUMPDEST PUSH0 PUSH3 0x305 DUP6 DUP3 DUP7 ADD PUSH3 0x28F JUMP JUMPDEST SWAP3 POP POP PUSH1 0x20 PUSH3 0x318 DUP6 DUP3 DUP7 ADD PUSH3 0x2C7 JUMP JUMPDEST SWAP2 POP POP SWAP3 POP SWAP3 SWAP1 POP JUMP JUMPDEST PUSH0 DUP2 SWAP1 POP SWAP3 SWAP2 POP POP JUMP JUMPDEST POP JUMP JUMPDEST PUSH0 PUSH3 0x33C PUSH0 DUP4 PUSH3 0x322 JUMP JUMPDEST SWAP2 POP PUSH3 0x349 DUP3 PUSH3 0x32C JUMP JUMPDEST PUSH0 DUP3 ADD SWAP1 POP SWAP2 SWAP1 POP JUMP JUMPDEST PUSH0 PUSH3 0x35F DUP3 PUSH3 0x32F JUMP JUMPDEST SWAP2 POP DUP2 SWAP1 POP SWAP2 SWAP1 POP JUMP JUMPDEST PUSH2 0x1A29 DUP1 PUSH3 0x377 PUSH0 CODECOPY PUSH0 RETURN INVALID PUSH1 0x80 PUSH1 0x40 MSTORE PUSH1 0x4 CALLDATASIZE LT PUSH2 0x90 JUMPI PUSH0 CALLDATALOAD PUSH1 0xE0 SHR DUP1 PUSH4 0x910DEC13 GT PUSH2 0x58 JUMPI DUP1 PUSH4 0x910DEC13 EQ PUSH2 0x186 JUMPI DUP1 PUSH4 0x91D14854 EQ PUSH2 0x1B6 JUMPI DUP1 PUSH4 0xA217FDDF EQ PUSH2 0x1F2 JUMPI DUP1 PUSH4 0xC89ACC86 EQ PUSH2 0x21C JUMPI DUP1 PUSH4 0xD547741F EQ PUSH2 0x24C JUMPI PUSH2 0x90 JUMP JUMPDEST DUP1 PUSH4 0x1FFC9A7 EQ PUSH2 0x94 JUMPI DUP1 PUSH4 0x2483E715 EQ PUSH2 0xD0 JUMPI DUP1 PUSH4 0x248A9CA3 EQ PUSH2 0xFA JUMPI DUP1 PUSH4 0x2F2FF15D EQ PUSH2 0x136 JUMPI DUP1 PUSH4 0x36568ABE EQ PUSH2 0x15E JUMPI JUMPDEST PUSH0 DUP1 REVERT JUMPDEST CALLVALUE DUP1 ISZERO PUSH2 0x9F JUMPI PUSH0 DUP1 REVERT JUMPDEST POP PUSH2 0xBA PUSH1 0x4 DUP1 CALLDATASIZE SUB DUP2 ADD SWAP1 PUSH2 0xB5 SWAP2 SWAP1 PUSH2 0xDC1 JUMP JUMPDEST PUSH2 0x274 JUMP JUMPDEST PUSH1 0x40 MLOAD PUSH2 0xC7 SWAP2 SWAP1 PUSH2 0xE06 JUMP JUMPDEST PUSH1 0x40 MLOAD DUP1 SWAP2 SUB SWAP1 RETURN JUMPDEST CALLVALUE DUP1 ISZERO PUSH2 0xDB JUMPI PUSH0 DUP1 REVERT JUMPDEST POP PUSH2 0xE4 PUSH2 0x2ED JUMP JUMPDEST PUSH1 0x40 MLOAD PUSH2 0xF1 SWAP2 SWAP1 PUSH2 0xE37 JUMP JUMPDEST PUSH1 0x40 MLOAD DUP1 SWAP2 SUB SWAP1 RETURN JUMPDEST CALLVALUE DUP1 ISZERO PUSH2 0x105 JUMPI PUSH0 DUP1 REVERT JUMPDEST POP PUSH2 0x120 PUSH1 0x4 DUP1 CALLDATASIZE SUB DUP2 ADD SWAP1 PUSH2 0x11B SWAP2 SWAP1 PUSH2 0xE7A JUMP JUMPDEST PUSH2 0x311 JUMP JUMPDEST PUSH1 0x40 MLOAD PUSH2 0x12D SWAP2 SWAP1 PUSH2 0xE37 JUMP JUMPDEST PUSH1 0x40 MLOAD DUP1 SWAP2 SUB SWAP1 RETURN JUMPDEST CALLVALUE DUP1 ISZERO PUSH2 0x141 JUMPI PUSH0 DUP1 REVERT JUMPDEST POP PUSH2 0x15C PUSH1 0x4 DUP1 CALLDATASIZE SUB DUP2 ADD SWAP1 PUSH2 0x157 SWAP2 SWAP1 PUSH2 0xEFF JUMP JUMPDEST PUSH2 0x32D JUMP JUMPDEST STOP JUMPDEST CALLVALUE DUP1 ISZERO PUSH2 0x169 JUMPI PUSH0 DUP1 REVERT JUMPDEST POP PUSH2 0x184 PUSH1 0x4 DUP1 CALLDATASIZE SUB DUP2 ADD SWAP1 PUSH2 0x17F SWAP2 SWAP1 PUSH2 0xEFF JUMP JUMPDEST PUSH2 0x34E JUMP JUMPDEST STOP JUMPDEST PUSH2 0x1A0 PUSH1 0x4 DUP1 CALLDATASIZE SUB DUP2 ADD SWAP1 PUSH2 0x19B SWAP2 SWAP1 PUSH2 0x11D9 JUMP JUMPDEST PUSH2 0x3D1 JUMP JUMPDEST PUSH1 0x40 MLOAD PUSH2 0x1AD SWAP2 SWAP1 PUSH2 0x1339 JUMP JUMPDEST PUSH1 0x40 MLOAD DUP1 SWAP2 SUB SWAP1 RETURN JUMPDEST CALLVALUE DUP1 ISZERO PUSH2 0x1C1 JUMPI PUSH0 DUP1 REVERT JUMPDEST POP PUSH2 0x1DC PUSH1 0x4 DUP1 CALLDATASIZE SUB DUP2 ADD SWAP1 PUSH2 0x1D7 SWAP2 SWAP1 PUSH2 0xEFF JUMP JUMPDEST PUSH2 0x683 JUMP JUMPDEST PUSH1 0x40 MLOAD PUSH2 0x1E9 SWAP2 SWAP1 PUSH2 0xE06 JUMP JUMPDEST PUSH1 0x40 MLOAD DUP1 SWAP2 SUB SWAP1 RETURN JUMPDEST CALLVALUE DUP1 ISZERO PUSH2 0x1FD JUMPI PUSH0 DUP1 REVERT JUMPDEST POP PUSH2 0x206 PUSH2 0x6E6 JUMP JUMPDEST PUSH1 0x40 MLOAD PUSH2 0x213 SWAP2 SWAP1 PUSH2 0xE37 JUMP JUMPDEST PUSH1 0x40 MLOAD DUP1 SWAP2 SUB SWAP1 RETURN JUMPDEST PUSH2 0x236 PUSH1 0x4 DUP1 CALLDATASIZE SUB DUP2 ADD SWAP1 PUSH2 0x231 SWAP2 SWAP1 PUSH2 0x13AE JUMP JUMPDEST PUSH2 0x6EC JUMP JUMPDEST PUSH1 0x40 MLOAD PUSH2 0x243 SWAP2 SWAP1 PUSH2 0xE06 JUMP JUMPDEST PUSH1 0x40 MLOAD DUP1 SWAP2 SUB SWAP1 RETURN JUMPDEST CALLVALUE DUP1 ISZERO PUSH2 0x257 JUMPI PUSH0 DUP1 REVERT JUMPDEST POP PUSH2 0x272 PUSH1 0x4 DUP1 CALLDATASIZE SUB DUP2 ADD SWAP1 PUSH2 0x26D SWAP2 SWAP1 PUSH2 0xEFF JUMP JUMPDEST PUSH2 0x81C JUMP JUMPDEST STOP JUMPDEST PUSH0 PUSH32 0x7965DB0B00000000000000000000000000000000000000000000000000000000 PUSH28 0xFFFFFFFFFFFFFFFFFFFFFFFFFFFFFFFFFFFFFFFFFFFFFFFFFFFFFFFF NOT AND DUP3 PUSH28 0xFFFFFFFFFFFFFFFFFFFFFFFFFFFFFFFFFFFFFFFFFFFFFFFFFFFFFFFF NOT AND EQ DUP1 PUSH2 0x2E6 JUMPI POP PUSH2 0x2E5 DUP3 PUSH2 0x83D JUMP JUMPDEST JUMPDEST SWAP1 POP SWAP2 SWAP1 POP JUMP JUMPDEST PUSH32 0xAB4F864E5201B0FDE9B5EE3E4CF96384802B0FFDFCF7F9DE4699CE21A30AFC4F DUP2 JUMP JUMPDEST PUSH0 DUP1 PUSH0 DUP4 DUP2 MSTORE PUSH1 0x20 ADD SWAP1 DUP2 MSTORE PUSH1 0x20 ADD PUSH0 KECCAK256 PUSH1 0x1 ADD SLOAD SWAP1 POP SWAP2 SWAP1 POP JUMP JUMPDEST PUSH2 0x336 DUP3 PUSH2 0x311 JUMP JUMPDEST PUSH2 0x33F DUP2 PUSH2 0x8A6 JUMP JUMPDEST PUSH2 0x349 DUP4 DUP4 PUSH2 0x8BA JUMP JUMPDEST POP POP POP JUMP JUMPDEST PUSH2 0x356 PUSH2 0x994 JUMP JUMPDEST PUSH20 0xFFFFFFFFFFFFFFFFFFFFFFFFFFFFFFFFFFFFFFFF AND DUP2 PUSH20 0xFFFFFFFFFFFFFFFFFFFFFFFFFFFFFFFFFFFFFFFF AND EQ PUSH2 0x3C3 JUMPI PUSH1 0x40 MLOAD PUSH32 0x8C379A000000000000000000000000000000000000000000000000000000000 DUP2 MSTORE PUSH1 0x4 ADD PUSH2 0x3BA SWAP1 PUSH2 0x148B JUMP JUMPDEST PUSH1 0x40 MLOAD DUP1 SWAP2 SUB SWAP1 REVERT JUMPDEST PUSH2 0x3CD DUP3 DUP3 PUSH2 0x99B JUMP JUMPDEST POP POP JUMP JUMPDEST PUSH1 0x60 PUSH32 0xAB4F864E5201B0FDE9B5EE3E4CF96384802B0FFDFCF7F9DE4699CE21A30AFC4F PUSH2 0x3FD DUP2 PUSH2 0x8A6 JUMP JUMPDEST PUSH0 DUP7 MLOAD SWAP1 POP PUSH0 DUP7 DUP7 SWAP1 POP SWAP1 POP PUSH0 DUP6 MLOAD SWAP1 POP DUP2 DUP4 EQ PUSH2 0x450 JUMPI PUSH1 0x40 MLOAD PUSH32 0x8C379A000000000000000000000000000000000000000000000000000000000 DUP2 MSTORE PUSH1 0x4 ADD PUSH2 0x447 SWAP1 PUSH2 0x1519 JUMP JUMPDEST PUSH1 0x40 MLOAD DUP1 SWAP2 SUB SWAP1 REVERT JUMPDEST DUP1 DUP4 EQ PUSH2 0x492 JUMPI PUSH1 0x40 MLOAD PUSH32 0x8C379A000000000000000000000000000000000000000000000000000000000 DUP2 MSTORE PUSH1 0x4 ADD PUSH2 0x489 SWAP1 PUSH2 0x15A7 JUMP JUMPDEST PUSH1 0x40 MLOAD DUP1 SWAP2 SUB SWAP1 REVERT JUMPDEST PUSH0 DUP4 PUSH8 0xFFFFFFFFFFFFFFFF DUP2 GT ISZERO PUSH2 0x4AD JUMPI PUSH2 0x4AC PUSH2 0xF51 JUMP JUMPDEST JUMPDEST PUSH1 0x40 MLOAD SWAP1 DUP1 DUP3 MSTORE DUP1 PUSH1 0x20 MUL PUSH1 0x20 ADD DUP3 ADD PUSH1 0x40 MSTORE DUP1 ISZERO PUSH2 0x4DB JUMPI DUP2 PUSH1 0x20 ADD PUSH1 0x20 DUP3 MUL DUP1 CALLDATASIZE DUP4 CALLDATACOPY DUP1 DUP3 ADD SWAP2 POP POP SWAP1 POP JUMPDEST POP SWAP1 POP PUSH0 JUMPDEST DUP5 DUP2 LT ISZERO PUSH2 0x5E5 JUMPI PUSH0 DUP12 DUP3 DUP2 MLOAD DUP2 LT PUSH2 0x4FC JUMPI PUSH2 0x4FB PUSH2 0x15C5 JUMP JUMPDEST JUMPDEST PUSH1 0x20 MUL PUSH1 0x20 ADD ADD MLOAD PUSH20 0xFFFFFFFFFFFFFFFFFFFFFFFFFFFFFFFFFFFFFFFF AND DUP10 DUP4 DUP2 MLOAD DUP2 LT PUSH2 0x52D JUMPI PUSH2 0x52C PUSH2 0x15C5 JUMP JUMPDEST JUMPDEST PUSH1 0x20 MUL PUSH1 0x20 ADD ADD MLOAD DUP13 DUP13 DUP6 DUP2 DUP2 LT PUSH2 0x548 JUMPI PUSH2 0x547 PUSH2 0x15C5 JUMP JUMPDEST JUMPDEST SWAP1 POP PUSH1 0x20 MUL DUP2 ADD SWAP1 PUSH2 0x55A SWAP2 SWAP1 PUSH2 0x15FE JUMP JUMPDEST PUSH1 0x40 MLOAD PUSH2 0x568 SWAP3 SWAP2 SWAP1 PUSH2 0x169C JUMP JUMPDEST PUSH0 PUSH1 0x40 MLOAD DUP1 DUP4 SUB DUP2 DUP6 DUP8 GAS CALL SWAP3 POP POP POP RETURNDATASIZE DUP1 PUSH0 DUP2 EQ PUSH2 0x5A2 JUMPI PUSH1 0x40 MLOAD SWAP2 POP PUSH1 0x1F NOT PUSH1 0x3F RETURNDATASIZE ADD AND DUP3 ADD PUSH1 0x40 MSTORE RETURNDATASIZE DUP3 MSTORE RETURNDATASIZE PUSH0 PUSH1 0x20 DUP5 ADD RETURNDATACOPY PUSH2 0x5A7 JUMP JUMPDEST PUSH1 0x60 SWAP2 POP JUMPDEST POP POP SWAP1 POP DUP1 DUP4 DUP4 DUP2 MLOAD DUP2 LT PUSH2 0x5BF JUMPI PUSH2 0x5BE PUSH2 0x15C5 JUMP JUMPDEST JUMPDEST PUSH1 0x20 MUL PUSH1 0x20 ADD ADD SWAP1 ISZERO ISZERO SWAP1 DUP2 ISZERO ISZERO DUP2 MSTORE POP POP POP DUP1 DUP1 PUSH2 0x5DD SWAP1 PUSH2 0x16E1 JUMP JUMPDEST SWAP2 POP POP PUSH2 0x4E0 JUMP JUMPDEST POP PUSH1 0x1 SLOAD CALLER PUSH20 0xFFFFFFFFFFFFFFFFFFFFFFFFFFFFFFFFFFFFFFFF AND BALANCE LT ISZERO PUSH2 0x673 JUMPI PUSH0 CALLER PUSH20 0xFFFFFFFFFFFFFFFFFFFFFFFFFFFFFFFFFFFFFFFF AND PUSH1 0x1 SLOAD PUSH1 0x40 MLOAD PUSH2 0x62E SWAP1 PUSH2 0x174B JUMP JUMPDEST PUSH0 PUSH1 0x40 MLOAD DUP1 DUP4 SUB DUP2 DUP6 DUP8 GAS CALL SWAP3 POP POP POP RETURNDATASIZE DUP1 PUSH0 DUP2 EQ PUSH2 0x668 JUMPI PUSH1 0x40 MLOAD SWAP2 POP PUSH1 0x1F NOT PUSH1 0x3F RETURNDATASIZE ADD AND DUP3 ADD PUSH1 0x40 MSTORE RETURNDATASIZE DUP3 MSTORE RETURNDATASIZE PUSH0 PUSH1 0x20 DUP5 ADD RETURNDATACOPY PUSH2 0x66D JUMP JUMPDEST PUSH1 0x60 SWAP2 POP JUMPDEST POP POP SWAP1 POP POP JUMPDEST DUP1 SWAP6 POP POP POP POP POP POP SWAP5 SWAP4 POP POP POP POP JUMP JUMPDEST PUSH0 DUP1 PUSH0 DUP5 DUP2 MSTORE PUSH1 0x20 ADD SWAP1 DUP2 MSTORE PUSH1 0x20 ADD PUSH0 KECCAK256 PUSH0 ADD PUSH0 DUP4 PUSH20 0xFFFFFFFFFFFFFFFFFFFFFFFFFFFFFFFFFFFFFFFF AND PUSH20 0xFFFFFFFFFFFFFFFFFFFFFFFFFFFFFFFFFFFFFFFF AND DUP2 MSTORE PUSH1 0x20 ADD SWAP1 DUP2 MSTORE PUSH1 0x20 ADD PUSH0 KECCAK256 PUSH0 SWAP1 SLOAD SWAP1 PUSH2 0x100 EXP SWAP1 DIV PUSH1 0xFF AND SWAP1 POP SWAP3 SWAP2 POP POP JUMP JUMPDEST PUSH0 DUP1 SHL DUP2 JUMP JUMPDEST PUSH0 PUSH32 0xAB4F864E5201B0FDE9B5EE3E4CF96384802B0FFDFCF7F9DE4699CE21A30AFC4F PUSH2 0x717 DUP2 PUSH2 0x8A6 JUMP JUMPDEST PUSH0 DUP6 PUSH20 0xFFFFFFFFFFFFFFFFFFFFFFFFFFFFFFFFFFFFFFFF AND CALLVALUE DUP7 DUP7 PUSH1 0x40 MLOAD PUSH2 0x740 SWAP3 SWAP2 SWAP1 PUSH2 0x169C JUMP JUMPDEST PUSH0 PUSH1 0x40 MLOAD DUP1 DUP4 SUB DUP2 DUP6 DUP8 GAS CALL SWAP3 POP POP POP RETURNDATASIZE DUP1 PUSH0 DUP2 EQ PUSH2 0x77A JUMPI PUSH1 0x40 MLOAD SWAP2 POP PUSH1 0x1F NOT PUSH1 0x3F RETURNDATASIZE ADD AND DUP3 ADD PUSH1 0x40 MSTORE RETURNDATASIZE DUP3 MSTORE RETURNDATASIZE PUSH0 PUSH1 0x20 DUP5 ADD RETURNDATACOPY PUSH2 0x77F JUMP JUMPDEST PUSH1 0x60 SWAP2 POP JUMPDEST POP POP SWAP1 POP PUSH1 0x1 SLOAD CALLER PUSH20 0xFFFFFFFFFFFFFFFFFFFFFFFFFFFFFFFFFFFFFFFF AND BALANCE LT ISZERO PUSH2 0x810 JUMPI PUSH0 CALLER PUSH20 0xFFFFFFFFFFFFFFFFFFFFFFFFFFFFFFFFFFFFFFFF AND PUSH1 0x1 SLOAD PUSH1 0x40 MLOAD PUSH2 0x7CB SWAP1 PUSH2 0x174B JUMP JUMPDEST PUSH0 PUSH1 0x40 MLOAD DUP1 DUP4 SUB DUP2 DUP6 DUP8 GAS CALL SWAP3 POP POP POP RETURNDATASIZE DUP1 PUSH0 DUP2 EQ PUSH2 0x805 JUMPI PUSH1 0x40 MLOAD SWAP2 POP PUSH1 0x1F NOT PUSH1 0x3F RETURNDATASIZE ADD AND DUP3 ADD PUSH1 0x40 MSTORE RETURNDATASIZE DUP3 MSTORE RETURNDATASIZE PUSH0 PUSH1 0x20 DUP5 ADD RETURNDATACOPY PUSH2 0x80A JUMP JUMPDEST PUSH1 0x60 SWAP2 POP JUMPDEST POP POP SWAP1 POP POP JUMPDEST DUP1 SWAP3 POP POP POP SWAP4 SWAP3 POP POP POP JUMP JUMPDEST PUSH2 0x825 DUP3 PUSH2 0x311 JUMP JUMPDEST PUSH2 0x82E DUP2 PUSH2 0x8A6 JUMP JUMPDEST PUSH2 0x838 DUP4 DUP4 PUSH2 0x99B JUMP JUMPDEST POP POP POP JUMP JUMPDEST PUSH0 PUSH32 0x1FFC9A700000000000000000000000000000000000000000000000000000000 PUSH28 0xFFFFFFFFFFFFFFFFFFFFFFFFFFFFFFFFFFFFFFFFFFFFFFFFFFFFFFFF NOT AND DUP3 PUSH28 0xFFFFFFFFFFFFFFFFFFFFFFFFFFFFFFFFFFFFFFFFFFFFFFFFFFFFFFFF NOT AND EQ SWAP1 POP SWAP2 SWAP1 POP JUMP JUMPDEST PUSH2 0x8B7 DUP2 PUSH2 0x8B2 PUSH2 0x994 JUMP JUMPDEST PUSH2 0xA75 JUMP JUMPDEST POP JUMP JUMPDEST PUSH2 0x8C4 DUP3 DUP3 PUSH2 0x683 JUMP JUMPDEST PUSH2 0x990 JUMPI PUSH1 0x1 PUSH0 DUP1 DUP5 DUP2 MSTORE PUSH1 0x20 ADD SWAP1 DUP2 MSTORE PUSH1 0x20 ADD PUSH0 KECCAK256 PUSH0 ADD PUSH0 DUP4 PUSH20 0xFFFFFFFFFFFFFFFFFFFFFFFFFFFFFFFFFFFFFFFF AND PUSH20 0xFFFFFFFFFFFFFFFFFFFFFFFFFFFFFFFFFFFFFFFF AND DUP2 MSTORE PUSH1 0x20 ADD SWAP1 DUP2 MSTORE PUSH1 0x20 ADD PUSH0 KECCAK256 PUSH0 PUSH2 0x100 EXP DUP2 SLOAD DUP2 PUSH1 0xFF MUL NOT AND SWAP1 DUP4 ISZERO ISZERO MUL OR SWAP1 SSTORE POP PUSH2 0x935 PUSH2 0x994 JUMP JUMPDEST PUSH20 0xFFFFFFFFFFFFFFFFFFFFFFFFFFFFFFFFFFFFFFFF AND DUP2 PUSH20 0xFFFFFFFFFFFFFFFFFFFFFFFFFFFFFFFFFFFFFFFF AND DUP4 PUSH32 0x2F8788117E7EFF1D82E926EC794901D17C78024A50270940304540A733656F0D PUSH1 0x40 MLOAD PUSH1 0x40 MLOAD DUP1 SWAP2 SUB SWAP1 LOG4 JUMPDEST POP POP JUMP JUMPDEST PUSH0 CALLER SWAP1 POP SWAP1 JUMP JUMPDEST PUSH2 0x9A5 DUP3 DUP3 PUSH2 0x683 JUMP JUMPDEST ISZERO PUSH2 0xA71 JUMPI PUSH0 DUP1 PUSH0 DUP5 DUP2 MSTORE PUSH1 0x20 ADD SWAP1 DUP2 MSTORE PUSH1 0x20 ADD PUSH0 KECCAK256 PUSH0 ADD PUSH0 DUP4 PUSH20 0xFFFFFFFFFFFFFFFFFFFFFFFFFFFFFFFFFFFFFFFF AND PUSH20 0xFFFFFFFFFFFFFFFFFFFFFFFFFFFFFFFFFFFFFFFF AND DUP2 MSTORE PUSH1 0x20 ADD SWAP1 DUP2 MSTORE PUSH1 0x20 ADD PUSH0 KECCAK256 PUSH0 PUSH2 0x100 EXP DUP2 SLOAD DUP2 PUSH1 0xFF MUL NOT AND SWAP1 DUP4 ISZERO ISZERO MUL OR SWAP1 SSTORE POP PUSH2 0xA16 PUSH2 0x994 JUMP JUMPDEST PUSH20 0xFFFFFFFFFFFFFFFFFFFFFFFFFFFFFFFFFFFFFFFF AND DUP2 PUSH20 0xFFFFFFFFFFFFFFFFFFFFFFFFFFFFFFFFFFFFFFFF AND DUP4 PUSH32 0xF6391F5C32D9C69D2A47EA670B442974B53935D1EDC7FD64EB21E047A839171B PUSH1 0x40 MLOAD PUSH1 0x40 MLOAD DUP1 SWAP2 SUB SWAP1 LOG4 JUMPDEST POP POP JUMP JUMPDEST PUSH2 0xA7F DUP3 DUP3 PUSH2 0x683 JUMP JUMPDEST PUSH2 0xAF5 JUMPI PUSH2 0xA8C DUP2 PUSH2 0xAF9 JUMP JUMPDEST PUSH2 0xA99 DUP4 PUSH0 SHR PUSH1 0x20 PUSH2 0xB26 JUMP JUMPDEST PUSH1 0x40 MLOAD PUSH1 0x20 ADD PUSH2 0xAAA SWAP3 SWAP2 SWAP1 PUSH2 0x185F JUMP JUMPDEST PUSH1 0x40 MLOAD PUSH1 0x20 DUP2 DUP4 SUB SUB DUP2 MSTORE SWAP1 PUSH1 0x40 MSTORE PUSH1 0x40 MLOAD PUSH32 0x8C379A000000000000000000000000000000000000000000000000000000000 DUP2 MSTORE PUSH1 0x4 ADD PUSH2 0xAEC SWAP2 SWAP1 PUSH2 0x18D0 JUMP JUMPDEST PUSH1 0x40 MLOAD DUP1 SWAP2 SUB SWAP1 REVERT JUMPDEST POP POP JUMP JUMPDEST PUSH1 0x60 PUSH2 0xB1F DUP3 PUSH20 0xFFFFFFFFFFFFFFFFFFFFFFFFFFFFFFFFFFFFFFFF AND PUSH1 0x14 PUSH1 0xFF AND PUSH2 0xB26 JUMP JUMPDEST SWAP1 POP SWAP2 SWAP1 POP JUMP JUMPDEST PUSH1 0x60 PUSH0 PUSH1 0x2 DUP4 PUSH1 0x2 PUSH2 0xB38 SWAP2 SWAP1 PUSH2 0x18F0 JUMP JUMPDEST PUSH2 0xB42 SWAP2 SWAP1 PUSH2 0x1931 JUMP JUMPDEST PUSH8 0xFFFFFFFFFFFFFFFF DUP2 GT ISZERO PUSH2 0xB5B JUMPI PUSH2 0xB5A PUSH2 0xF51 JUMP JUMPDEST JUMPDEST PUSH1 0x40 MLOAD SWAP1 DUP1 DUP3 MSTORE DUP1 PUSH1 0x1F ADD PUSH1 0x1F NOT AND PUSH1 0x20 ADD DUP3 ADD PUSH1 0x40 MSTORE DUP1 ISZERO PUSH2 0xB8D JUMPI DUP2 PUSH1 0x20 ADD PUSH1 0x1 DUP3 MUL DUP1 CALLDATASIZE DUP4 CALLDATACOPY DUP1 DUP3 ADD SWAP2 POP POP SWAP1 POP JUMPDEST POP SWAP1 POP PUSH32 0x3000000000000000000000000000000000000000000000000000000000000000 DUP2 PUSH0 DUP2 MLOAD DUP2 LT PUSH2 0xBC4 JUMPI PUSH2 0xBC3 PUSH2 0x15C5 JUMP JUMPDEST JUMPDEST PUSH1 0x20 ADD ADD SWAP1 PUSH31 0xFFFFFFFFFFFFFFFFFFFFFFFFFFFFFFFFFFFFFFFFFFFFFFFFFFFFFFFFFFFFFF NOT AND SWAP1 DUP2 PUSH0 BYTE SWAP1 MSTORE8 POP PUSH32 0x7800000000000000000000000000000000000000000000000000000000000000 DUP2 PUSH1 0x1 DUP2 MLOAD DUP2 LT PUSH2 0xC27 JUMPI PUSH2 0xC26 PUSH2 0x15C5 JUMP JUMPDEST JUMPDEST PUSH1 0x20 ADD ADD SWAP1 PUSH31 0xFFFFFFFFFFFFFFFFFFFFFFFFFFFFFFFFFFFFFFFFFFFFFFFFFFFFFFFFFFFFFF NOT AND SWAP1 DUP2 PUSH0 BYTE SWAP1 MSTORE8 POP PUSH0 PUSH1 0x1 DUP5 PUSH1 0x2 PUSH2 0xC65 SWAP2 SWAP1 PUSH2 0x18F0 JUMP JUMPDEST PUSH2 0xC6F SWAP2 SWAP1 PUSH2 0x1931 JUMP JUMPDEST SWAP1 POP JUMPDEST PUSH1 0x1 DUP2 GT ISZERO PUSH2 0xD0E JUMPI PUSH32 0x3031323334353637383961626364656600000000000000000000000000000000 PUSH1 0xF DUP7 AND PUSH1 0x10 DUP2 LT PUSH2 0xCB1 JUMPI PUSH2 0xCB0 PUSH2 0x15C5 JUMP JUMPDEST JUMPDEST BYTE PUSH1 0xF8 SHL DUP3 DUP3 DUP2 MLOAD DUP2 LT PUSH2 0xCC8 JUMPI PUSH2 0xCC7 PUSH2 0x15C5 JUMP JUMPDEST JUMPDEST PUSH1 0x20 ADD ADD SWAP1 PUSH31 0xFFFFFFFFFFFFFFFFFFFFFFFFFFFFFFFFFFFFFFFFFFFFFFFFFFFFFFFFFFFFFF NOT AND SWAP1 DUP2 PUSH0 BYTE SWAP1 MSTORE8 POP PUSH1 0x4 DUP6 SWAP1 SHR SWAP5 POP DUP1 PUSH2 0xD07 SWAP1 PUSH2 0x1964 JUMP JUMPDEST SWAP1 POP PUSH2 0xC72 JUMP JUMPDEST POP PUSH0 DUP5 EQ PUSH2 0xD51 JUMPI PUSH1 0x40 MLOAD PUSH32 0x8C379A000000000000000000000000000000000000000000000000000000000 DUP2 MSTORE PUSH1 0x4 ADD PUSH2 0xD48 SWAP1 PUSH2 0x19D5 JUMP JUMPDEST PUSH1 0x40 MLOAD DUP1 SWAP2 SUB SWAP1 REVERT JUMPDEST DUP1 SWAP2 POP POP SWAP3 SWAP2 POP POP JUMP JUMPDEST PUSH0 PUSH1 0x40 MLOAD SWAP1 POP SWAP1 JUMP JUMPDEST PUSH0 DUP1 REVERT JUMPDEST PUSH0 DUP1 REVERT JUMPDEST PUSH0 PUSH32 0xFFFFFFFF00000000000000000000000000000000000000000000000000000000 DUP3 AND SWAP1 POP SWAP2 SWAP1 POP JUMP JUMPDEST PUSH2 0xDA0 DUP2 PUSH2 0xD6C JUMP JUMPDEST DUP2 EQ PUSH2 0xDAA JUMPI PUSH0 DUP1 REVERT JUMPDEST POP JUMP JUMPDEST PUSH0 DUP2 CALLDATALOAD SWAP1 POP PUSH2 0xDBB DUP2 PUSH2 0xD97 JUMP JUMPDEST SWAP3 SWAP2 POP POP JUMP JUMPDEST PUSH0 PUSH1 0x20 DUP3 DUP5 SUB SLT ISZERO PUSH2 0xDD6 JUMPI PUSH2 0xDD5 PUSH2 0xD64 JUMP JUMPDEST JUMPDEST PUSH0 PUSH2 0xDE3 DUP5 DUP3 DUP6 ADD PUSH2 0xDAD JUMP JUMPDEST SWAP2 POP POP SWAP3 SWAP2 POP POP JUMP JUMPDEST PUSH0 DUP2 ISZERO ISZERO SWAP1 POP SWAP2 SWAP1 POP JUMP JUMPDEST PUSH2 0xE00 DUP2 PUSH2 0xDEC JUMP JUMPDEST DUP3 MSTORE POP POP JUMP JUMPDEST PUSH0 PUSH1 0x20 DUP3 ADD SWAP1 POP PUSH2 0xE19 PUSH0 DUP4 ADD DUP5 PUSH2 0xDF7 JUMP JUMPDEST SWAP3 SWAP2 POP POP JUMP JUMPDEST PUSH0 DUP2 SWAP1 POP SWAP2 SWAP1 POP JUMP JUMPDEST PUSH2 0xE31 DUP2 PUSH2 0xE1F JUMP JUMPDEST DUP3 MSTORE POP POP JUMP JUMPDEST PUSH0 PUSH1 0x20 DUP3 ADD SWAP1 POP PUSH2 0xE4A PUSH0 DUP4 ADD DUP5 PUSH2 0xE28 JUMP JUMPDEST SWAP3 SWAP2 POP POP JUMP JUMPDEST PUSH2 0xE59 DUP2 PUSH2 0xE1F JUMP JUMPDEST DUP2 EQ PUSH2 0xE63 JUMPI PUSH0 DUP1 REVERT JUMPDEST POP JUMP JUMPDEST PUSH0 DUP2 CALLDATALOAD SWAP1 POP PUSH2 0xE74 DUP2 PUSH2 0xE50 JUMP JUMPDEST SWAP3 SWAP2 POP POP JUMP JUMPDEST PUSH0 PUSH1 0x20 DUP3 DUP5 SUB SLT ISZERO PUSH2 0xE8F JUMPI PUSH2 0xE8E PUSH2 0xD64 JUMP JUMPDEST JUMPDEST PUSH0 PUSH2 0xE9C DUP5 DUP3 DUP6 ADD PUSH2 0xE66 JUMP JUMPDEST SWAP2 POP POP SWAP3 SWAP2 POP POP JUMP JUMPDEST PUSH0 PUSH20 0xFFFFFFFFFFFFFFFFFFFFFFFFFFFFFFFFFFFFFFFF DUP3 AND SWAP1 POP SWAP2 SWAP1 POP JUMP JUMPDEST PUSH0 PUSH2 0xECE DUP3 PUSH2 0xEA5 JUMP JUMPDEST SWAP1 POP SWAP2 SWAP1 POP JUMP JUMPDEST PUSH2 0xEDE DUP2 PUSH2 0xEC4 JUMP JUMPDEST DUP2 EQ PUSH2 0xEE8 JUMPI PUSH0 DUP1 REVERT JUMPDEST POP JUMP JUMPDEST PUSH0 DUP2 CALLDATALOAD SWAP1 POP PUSH2 0xEF9 DUP2 PUSH2 0xED5 JUMP JUMPDEST SWAP3 SWAP2 POP POP JUMP JUMPDEST PUSH0 DUP1 PUSH1 0x40 DUP4 DUP6 SUB SLT ISZERO PUSH2 0xF15 JUMPI PUSH2 0xF14 PUSH2 0xD64 JUMP JUMPDEST JUMPDEST PUSH0 PUSH2 0xF22 DUP6 DUP3 DUP7 ADD PUSH2 0xE66 JUMP JUMPDEST SWAP3 POP POP PUSH1 0x20 PUSH2 0xF33 DUP6 DUP3 DUP7 ADD PUSH2 0xEEB JUMP JUMPDEST SWAP2 POP POP SWAP3 POP SWAP3 SWAP1 POP JUMP JUMPDEST PUSH0 DUP1 REVERT JUMPDEST PUSH0 PUSH1 0x1F NOT PUSH1 0x1F DUP4 ADD AND SWAP1 POP SWAP2 SWAP1 POP JUMP JUMPDEST PUSH32 0x4E487B7100000000000000000000000000000000000000000000000000000000 PUSH0 MSTORE PUSH1 0x41 PUSH1 0x4 MSTORE PUSH1 0x24 PUSH0 REVERT JUMPDEST PUSH2 0xF87 DUP3 PUSH2 0xF41 JUMP JUMPDEST DUP2 ADD DUP2 DUP2 LT PUSH8 0xFFFFFFFFFFFFFFFF DUP3 GT OR ISZERO PUSH2 0xFA6 JUMPI PUSH2 0xFA5 PUSH2 0xF51 JUMP JUMPDEST JUMPDEST DUP1 PUSH1 0x40 MSTORE POP POP POP JUMP JUMPDEST PUSH0 PUSH2 0xFB8 PUSH2 0xD5B JUMP JUMPDEST SWAP1 POP PUSH2 0xFC4 DUP3 DUP3 PUSH2 0xF7E JUMP JUMPDEST SWAP2 SWAP1 POP JUMP JUMPDEST PUSH0 PUSH8 0xFFFFFFFFFFFFFFFF DUP3 GT ISZERO PUSH2 0xFE3 JUMPI PUSH2 0xFE2 PUSH2 0xF51 JUMP JUMPDEST JUMPDEST PUSH1 0x20 DUP3 MUL SWAP1 POP PUSH1 0x20 DUP2 ADD SWAP1 POP SWAP2 SWAP1 POP JUMP JUMPDEST PUSH0 DUP1 REVERT JUMPDEST PUSH0 PUSH2 0x100A PUSH2 0x1005 DUP5 PUSH2 0xFC9 JUMP JUMPDEST PUSH2 0xFAF JUMP JUMPDEST SWAP1 POP DUP1 DUP4 DUP3 MSTORE PUSH1 0x20 DUP3 ADD SWAP1 POP PUSH1 0x20 DUP5 MUL DUP4 ADD DUP6 DUP2 GT ISZERO PUSH2 0x102D JUMPI PUSH2 0x102C PUSH2 0xFF4 JUMP JUMPDEST JUMPDEST DUP4 JUMPDEST DUP2 DUP2 LT ISZERO PUSH2 0x1056 JUMPI DUP1 PUSH2 0x1042 DUP9 DUP3 PUSH2 0xEEB JUMP JUMPDEST DUP5 MSTORE PUSH1 0x20 DUP5 ADD SWAP4 POP POP PUSH1 0x20 DUP2 ADD SWAP1 POP PUSH2 0x102F JUMP JUMPDEST POP POP POP SWAP4 SWAP3 POP POP POP JUMP JUMPDEST PUSH0 DUP3 PUSH1 0x1F DUP4 ADD SLT PUSH2 0x1074 JUMPI PUSH2 0x1073 PUSH2 0xF3D JUMP JUMPDEST JUMPDEST DUP2 CALLDATALOAD PUSH2 0x1084 DUP5 DUP3 PUSH1 0x20 DUP7 ADD PUSH2 0xFF8 JUMP JUMPDEST SWAP2 POP POP SWAP3 SWAP2 POP POP JUMP JUMPDEST PUSH0 DUP1 REVERT JUMPDEST PUSH0 DUP1 DUP4 PUSH1 0x1F DUP5 ADD SLT PUSH2 0x10A6 JUMPI PUSH2 0x10A5 PUSH2 0xF3D JUMP JUMPDEST JUMPDEST DUP3 CALLDATALOAD SWAP1 POP PUSH8 0xFFFFFFFFFFFFFFFF DUP2 GT ISZERO PUSH2 0x10C3 JUMPI PUSH2 0x10C2 PUSH2 0x108D JUMP JUMPDEST JUMPDEST PUSH1 0x20 DUP4 ADD SWAP2 POP DUP4 PUSH1 0x20 DUP3 MUL DUP4 ADD GT ISZERO PUSH2 0x10DF JUMPI PUSH2 0x10DE PUSH2 0xFF4 JUMP JUMPDEST JUMPDEST SWAP3 POP SWAP3 SWAP1 POP JUMP JUMPDEST PUSH0 PUSH8 0xFFFFFFFFFFFFFFFF DUP3 GT ISZERO PUSH2 0x1100 JUMPI PUSH2 0x10FF PUSH2 0xF51 JUMP JUMPDEST JUMPDEST PUSH1 0x20 DUP3 MUL SWAP1 POP PUSH1 0x20 DUP2 ADD SWAP1 POP SWAP2 SWAP1 POP JUMP JUMPDEST PUSH0 DUP2 SWAP1 POP SWAP2 SWAP1 POP JUMP JUMPDEST PUSH2 0x1123 DUP2 PUSH2 0x1111 JUMP JUMPDEST DUP2 EQ PUSH2 0x112D JUMPI PUSH0 DUP1 REVERT JUMPDEST POP JUMP JUMPDEST PUSH0 DUP2 CALLDATALOAD SWAP1 POP PUSH2 0x113E DUP2 PUSH2 0x111A JUMP JUMPDEST SWAP3 SWAP2 POP POP JUMP JUMPDEST PUSH0 PUSH2 0x1156 PUSH2 0x1151 DUP5 PUSH2 0x10E6 JUMP JUMPDEST PUSH2 0xFAF JUMP JUMPDEST SWAP1 POP DUP1 DUP4 DUP3 MSTORE PUSH1 0x20 DUP3 ADD SWAP1 POP PUSH1 0x20 DUP5 MUL DUP4 ADD DUP6 DUP2 GT ISZERO PUSH2 0x1179 JUMPI PUSH2 0x1178 PUSH2 0xFF4 JUMP JUMPDEST JUMPDEST DUP4 JUMPDEST DUP2 DUP2 LT ISZERO PUSH2 0x11A2 JUMPI DUP1 PUSH2 0x118E DUP9 DUP3 PUSH2 0x1130 JUMP JUMPDEST DUP5 MSTORE PUSH1 0x20 DUP5 ADD SWAP4 POP POP PUSH1 0x20 DUP2 ADD SWAP1 POP PUSH2 0x117B JUMP JUMPDEST POP POP POP SWAP4 SWAP3 POP POP POP JUMP JUMPDEST PUSH0 DUP3 PUSH1 0x1F DUP4 ADD SLT PUSH2 0x11C0 JUMPI PUSH2 0x11BF PUSH2 0xF3D JUMP JUMPDEST JUMPDEST DUP2 CALLDATALOAD PUSH2 0x11D0 DUP5 DUP3 PUSH1 0x20 DUP7 ADD PUSH2 0x1144 JUMP JUMPDEST SWAP2 POP POP SWAP3 SWAP2 POP POP JUMP JUMPDEST PUSH0 DUP1 PUSH0 DUP1 PUSH1 0x60 DUP6 DUP8 SUB SLT ISZERO PUSH2 0x11F1 JUMPI PUSH2 0x11F0 PUSH2 0xD64 JUMP JUMPDEST JUMPDEST PUSH0 DUP6 ADD CALLDATALOAD PUSH8 0xFFFFFFFFFFFFFFFF DUP2 GT ISZERO PUSH2 0x120E JUMPI PUSH2 0x120D PUSH2 0xD68 JUMP JUMPDEST JUMPDEST PUSH2 0x121A DUP8 DUP3 DUP9 ADD PUSH2 0x1060 JUMP JUMPDEST SWAP5 POP POP PUSH1 0x20 DUP6 ADD CALLDATALOAD PUSH8 0xFFFFFFFFFFFFFFFF DUP2 GT ISZERO PUSH2 0x123B JUMPI PUSH2 0x123A PUSH2 0xD68 JUMP JUMPDEST JUMPDEST PUSH2 0x1247 DUP8 DUP3 DUP9 ADD PUSH2 0x1091 JUMP JUMPDEST SWAP4 POP SWAP4 POP POP PUSH1 0x40 DUP6 ADD CALLDATALOAD PUSH8 0xFFFFFFFFFFFFFFFF DUP2 GT ISZERO PUSH2 0x126A JUMPI PUSH2 0x1269 PUSH2 0xD68 JUMP JUMPDEST JUMPDEST PUSH2 0x1276 DUP8 DUP3 DUP9 ADD PUSH2 0x11AC JUMP JUMPDEST SWAP2 POP POP SWAP3 SWAP6 SWAP2 SWAP5 POP SWAP3 POP JUMP JUMPDEST PUSH0 DUP2 MLOAD SWAP1 POP SWAP2 SWAP1 POP JUMP JUMPDEST PUSH0 DUP3 DUP3 MSTORE PUSH1 0x20 DUP3 ADD SWAP1 POP SWAP3 SWAP2 POP POP JUMP JUMPDEST PUSH0 DUP2 SWAP1 POP PUSH1 0x20 DUP3 ADD SWAP1 POP SWAP2 SWAP1 POP JUMP JUMPDEST PUSH2 0x12B4 DUP2 PUSH2 0xDEC JUMP JUMPDEST DUP3 MSTORE POP POP JUMP JUMPDEST PUSH0 PUSH2 0x12C5 DUP4 DUP4 PUSH2 0x12AB JUMP JUMPDEST PUSH1 0x20 DUP4 ADD SWAP1 POP SWAP3 SWAP2 POP POP JUMP JUMPDEST PUSH0 PUSH1 0x20 DUP3 ADD SWAP1 POP SWAP2 SWAP1 POP JUMP JUMPDEST PUSH0 PUSH2 0x12E7 DUP3 PUSH2 0x1282 JUMP JUMPDEST PUSH2 0x12F1 DUP2 DUP6 PUSH2 0x128C JUMP JUMPDEST SWAP4 POP PUSH2 0x12FC DUP4 PUSH2 0x129C JUMP JUMPDEST DUP1 PUSH0 JUMPDEST DUP4 DUP2 LT ISZERO PUSH2 0x132C JUMPI DUP2 MLOAD PUSH2 0x1313 DUP9 DUP3 PUSH2 0x12BA JUMP JUMPDEST SWAP8 POP PUSH2 0x131E DUP4 PUSH2 0x12D1 JUMP JUMPDEST SWAP3 POP POP PUSH1 0x1 DUP2 ADD SWAP1 POP PUSH2 0x12FF JUMP JUMPDEST POP DUP6 SWAP4 POP POP POP POP SWAP3 SWAP2 POP POP JUMP JUMPDEST PUSH0 PUSH1 0x20 DUP3 ADD SWAP1 POP DUP2 DUP2 SUB PUSH0 DUP4 ADD MSTORE PUSH2 0x1351 DUP2 DUP5 PUSH2 0x12DD JUMP JUMPDEST SWAP1 POP SWAP3 SWAP2 POP POP JUMP JUMPDEST PUSH0 DUP1 DUP4 PUSH1 0x1F DUP5 ADD SLT PUSH2 0x136E JUMPI PUSH2 0x136D PUSH2 0xF3D JUMP JUMPDEST JUMPDEST DUP3 CALLDATALOAD SWAP1 POP PUSH8 0xFFFFFFFFFFFFFFFF DUP2 GT ISZERO PUSH2 0x138B JUMPI PUSH2 0x138A PUSH2 0x108D JUMP JUMPDEST JUMPDEST PUSH1 0x20 DUP4 ADD SWAP2 POP DUP4 PUSH1 0x1 DUP3 MUL DUP4 ADD GT ISZERO PUSH2 0x13A7 JUMPI PUSH2 0x13A6 PUSH2 0xFF4 JUMP JUMPDEST JUMPDEST SWAP3 POP SWAP3 SWAP1 POP JUMP JUMPDEST PUSH0 DUP1 PUSH0 PUSH1 0x40 DUP5 DUP7 SUB SLT ISZERO PUSH2 0x13C5 JUMPI PUSH2 0x13C4 PUSH2 0xD64 JUMP JUMPDEST JUMPDEST PUSH0 PUSH2 0x13D2 DUP7 DUP3 DUP8 ADD PUSH2 0xEEB JUMP JUMPDEST SWAP4 POP POP PUSH1 0x20 DUP5 ADD CALLDATALOAD PUSH8 0xFFFFFFFFFFFFFFFF DUP2 GT ISZERO PUSH2 0x13F3 JUMPI PUSH2 0x13F2 PUSH2 0xD68 JUMP JUMPDEST JUMPDEST PUSH2 0x13FF DUP7 DUP3 DUP8 ADD PUSH2 0x1359 JUMP JUMPDEST SWAP3 POP SWAP3 POP POP SWAP3 POP SWAP3 POP SWAP3 JUMP JUMPDEST PUSH0 DUP3 DUP3 MSTORE PUSH1 0x20 DUP3 ADD SWAP1 POP SWAP3 SWAP2 POP POP JUMP JUMPDEST PUSH32 0x416363657373436F6E74726F6C3A2063616E206F6E6C792072656E6F756E6365 PUSH0 DUP3 ADD MSTORE PUSH32 0x20726F6C657320666F722073656C660000000000000000000000000000000000 PUSH1 0x20 DUP3 ADD MSTORE POP JUMP JUMPDEST PUSH0 PUSH2 0x1475 PUSH1 0x2F DUP4 PUSH2 0x140B JUMP JUMPDEST SWAP2 POP PUSH2 0x1480 DUP3 PUSH2 0x141B JUMP JUMPDEST PUSH1 0x40 DUP3 ADD SWAP1 POP SWAP2 SWAP1 POP JUMP JUMPDEST PUSH0 PUSH1 0x20 DUP3 ADD SWAP1 POP DUP2 DUP2 SUB PUSH0 DUP4 ADD MSTORE PUSH2 0x14A2 DUP2 PUSH2 0x1469 JUMP JUMPDEST SWAP1 POP SWAP2 SWAP1 POP JUMP JUMPDEST PUSH32 0x4D65746152656C617965723A207461726765747320616E642064617461206C65 PUSH0 DUP3 ADD MSTORE PUSH32 0x6E677468206D69736D6174636800000000000000000000000000000000000000 PUSH1 0x20 DUP3 ADD MSTORE POP JUMP JUMPDEST PUSH0 PUSH2 0x1503 PUSH1 0x2D DUP4 PUSH2 0x140B JUMP JUMPDEST SWAP2 POP PUSH2 0x150E DUP3 PUSH2 0x14A9 JUMP JUMPDEST PUSH1 0x40 DUP3 ADD SWAP1 POP SWAP2 SWAP1 POP JUMP JUMPDEST PUSH0 PUSH1 0x20 DUP3 ADD SWAP1 POP DUP2 DUP2 SUB PUSH0 DUP4 ADD MSTORE PUSH2 0x1530 DUP2 PUSH2 0x14F7 JUMP JUMPDEST SWAP1 POP SWAP2 SWAP1 POP JUMP JUMPDEST PUSH32 0x4D65746152656C617965723A207461726765747320616E642076616C75657320 PUSH0 DUP3 ADD MSTORE PUSH32 0x6C656E677468206D69736D617463680000000000000000000000000000000000 PUSH1 0x20 DUP3 ADD MSTORE POP JUMP JUMPDEST PUSH0 PUSH2 0x1591 PUSH1 0x2F DUP4 PUSH2 0x140B JUMP JUMPDEST SWAP2 POP PUSH2 0x159C DUP3 PUSH2 0x1537 JUMP JUMPDEST PUSH1 0x40 DUP3 ADD SWAP1 POP SWAP2 SWAP1 POP JUMP JUMPDEST PUSH0 PUSH1 0x20 DUP3 ADD SWAP1 POP DUP2 DUP2 SUB PUSH0 DUP4 ADD MSTORE PUSH2 0x15BE DUP2 PUSH2 0x1585 JUMP JUMPDEST SWAP1 POP SWAP2 SWAP1 POP JUMP JUMPDEST PUSH32 0x4E487B7100000000000000000000000000000000000000000000000000000000 PUSH0 MSTORE PUSH1 0x32 PUSH1 0x4 MSTORE PUSH1 0x24 PUSH0 REVERT JUMPDEST PUSH0 DUP1 REVERT JUMPDEST PUSH0 DUP1 REVERT JUMPDEST PUSH0 DUP1 REVERT JUMPDEST PUSH0 DUP1 DUP4 CALLDATALOAD PUSH1 0x1 PUSH1 0x20 SUB DUP5 CALLDATASIZE SUB SUB DUP2 SLT PUSH2 0x161A JUMPI PUSH2 0x1619 PUSH2 0x15F2 JUMP JUMPDEST JUMPDEST DUP1 DUP5 ADD SWAP3 POP DUP3 CALLDATALOAD SWAP2 POP PUSH8 0xFFFFFFFFFFFFFFFF DUP3 GT ISZERO PUSH2 0x163C JUMPI PUSH2 0x163B PUSH2 0x15F6 JUMP JUMPDEST JUMPDEST PUSH1 0x20 DUP4 ADD SWAP3 POP PUSH1 0x1 DUP3 MUL CALLDATASIZE SUB DUP4 SGT ISZERO PUSH2 0x1658 JUMPI PUSH2 0x1657 PUSH2 0x15FA JUMP JUMPDEST JUMPDEST POP SWAP3 POP SWAP3 SWAP1 POP JUMP JUMPDEST PUSH0 DUP2 SWAP1 POP SWAP3 SWAP2 POP POP JUMP JUMPDEST DUP3 DUP2 DUP4 CALLDATACOPY PUSH0 DUP4 DUP4 ADD MSTORE POP POP POP JUMP JUMPDEST PUSH0 PUSH2 0x1683 DUP4 DUP6 PUSH2 0x1660 JUMP JUMPDEST SWAP4 POP PUSH2 0x1690 DUP4 DUP6 DUP5 PUSH2 0x166A JUMP JUMPDEST DUP3 DUP5 ADD SWAP1 POP SWAP4 SWAP3 POP POP POP JUMP JUMPDEST PUSH0 PUSH2 0x16A8 DUP3 DUP5 DUP7 PUSH2 0x1678 JUMP JUMPDEST SWAP2 POP DUP2 SWAP1 POP SWAP4 SWAP3 POP POP POP JUMP JUMPDEST PUSH32 0x4E487B7100000000000000000000000000000000000000000000000000000000 PUSH0 MSTORE PUSH1 0x11 PUSH1 0x4 MSTORE PUSH1 0x24 PUSH0 REVERT JUMPDEST PUSH0 PUSH2 0x16EB DUP3 PUSH2 0x1111 JUMP JUMPDEST SWAP2 POP PUSH32 0xFFFFFFFFFFFFFFFFFFFFFFFFFFFFFFFFFFFFFFFFFFFFFFFFFFFFFFFFFFFFFFFF DUP3 SUB PUSH2 0x171D JUMPI PUSH2 0x171C PUSH2 0x16B4 JUMP JUMPDEST JUMPDEST PUSH1 0x1 DUP3 ADD SWAP1 POP SWAP2 SWAP1 POP JUMP JUMPDEST POP JUMP JUMPDEST PUSH0 PUSH2 0x1736 PUSH0 DUP4 PUSH2 0x1660 JUMP JUMPDEST SWAP2 POP PUSH2 0x1741 DUP3 PUSH2 0x1728 JUMP JUMPDEST PUSH0 DUP3 ADD SWAP1 POP SWAP2 SWAP1 POP JUMP JUMPDEST PUSH0 PUSH2 0x1755 DUP3 PUSH2 0x172B JUMP JUMPDEST SWAP2 POP DUP2 SWAP1 POP SWAP2 SWAP1 POP JUMP JUMPDEST PUSH0 DUP2 SWAP1 POP SWAP3 SWAP2 POP POP JUMP JUMPDEST PUSH32 0x416363657373436F6E74726F6C3A206163636F756E7420000000000000000000 PUSH0 DUP3 ADD MSTORE POP JUMP JUMPDEST PUSH0 PUSH2 0x179D PUSH1 0x17 DUP4 PUSH2 0x175F JUMP JUMPDEST SWAP2 POP PUSH2 0x17A8 DUP3 PUSH2 0x1769 JUMP JUMPDEST PUSH1 0x17 DUP3 ADD SWAP1 POP SWAP2 SWAP1 POP JUMP JUMPDEST PUSH0 DUP2 MLOAD SWAP1 POP SWAP2 SWAP1 POP JUMP JUMPDEST PUSH0 JUMPDEST DUP4 DUP2 LT ISZERO PUSH2 0x17DA JUMPI DUP1 DUP3 ADD MLOAD DUP2 DUP5 ADD MSTORE PUSH1 0x20 DUP2 ADD SWAP1 POP PUSH2 0x17BF JUMP JUMPDEST PUSH0 DUP5 DUP5 ADD MSTORE POP POP POP POP JUMP JUMPDEST PUSH0 PUSH2 0x17EF DUP3 PUSH2 0x17B3 JUMP JUMPDEST PUSH2 0x17F9 DUP2 DUP6 PUSH2 0x175F JUMP JUMPDEST SWAP4 POP PUSH2 0x1809 DUP2 DUP6 PUSH1 0x20 DUP7 ADD PUSH2 0x17BD JUMP JUMPDEST DUP1 DUP5 ADD SWAP2 POP POP SWAP3 SWAP2 POP POP JUMP JUMPDEST PUSH32 0x206973206D697373696E6720726F6C6520000000000000000000000000000000 PUSH0 DUP3 ADD MSTORE POP JUMP JUMPDEST PUSH0 PUSH2 0x1849 PUSH1 0x11 DUP4 PUSH2 0x175F JUMP JUMPDEST SWAP2 POP PUSH2 0x1854 DUP3 PUSH2 0x1815 JUMP JUMPDEST PUSH1 0x11 DUP3 ADD SWAP1 POP SWAP2 SWAP1 POP JUMP JUMPDEST PUSH0 PUSH2 0x1869 DUP3 PUSH2 0x1791 JUMP JUMPDEST SWAP2 POP PUSH2 0x1875 DUP3 DUP6 PUSH2 0x17E5 JUMP JUMPDEST SWAP2 POP PUSH2 0x1880 DUP3 PUSH2 0x183D JUMP JUMPDEST SWAP2 POP PUSH2 0x188C DUP3 DUP5 PUSH2 0x17E5 JUMP JUMPDEST SWAP2 POP DUP2 SWAP1 POP SWAP4 SWAP3 POP POP POP JUMP JUMPDEST PUSH0 PUSH2 0x18A2 DUP3 PUSH2 0x17B3 JUMP JUMPDEST PUSH2 0x18AC DUP2 DUP6 PUSH2 0x140B JUMP JUMPDEST SWAP4 POP PUSH2 0x18BC DUP2 DUP6 PUSH1 0x20 DUP7 ADD PUSH2 0x17BD JUMP JUMPDEST PUSH2 0x18C5 DUP2 PUSH2 0xF41 JUMP JUMPDEST DUP5 ADD SWAP2 POP POP SWAP3 SWAP2 POP POP JUMP JUMPDEST PUSH0 PUSH1 0x20 DUP3 ADD SWAP1 POP DUP2 DUP2 SUB PUSH0 DUP4 ADD MSTORE PUSH2 0x18E8 DUP2 DUP5 PUSH2 0x1898 JUMP JUMPDEST SWAP1 POP SWAP3 SWAP2 POP POP JUMP JUMPDEST PUSH0 PUSH2 0x18FA DUP3 PUSH2 0x1111 JUMP JUMPDEST SWAP2 POP PUSH2 0x1905 DUP4 PUSH2 0x1111 JUMP JUMPDEST SWAP3 POP DUP3 DUP3 MUL PUSH2 0x1913 DUP2 PUSH2 0x1111 JUMP JUMPDEST SWAP2 POP DUP3 DUP3 DIV DUP5 EQ DUP4 ISZERO OR PUSH2 0x192A JUMPI PUSH2 0x1929 PUSH2 0x16B4 JUMP JUMPDEST JUMPDEST POP SWAP3 SWAP2 POP POP JUMP JUMPDEST PUSH0 PUSH2 0x193B DUP3 PUSH2 0x1111 JUMP JUMPDEST SWAP2 POP PUSH2 0x1946 DUP4 PUSH2 0x1111 JUMP JUMPDEST SWAP3 POP DUP3 DUP3 ADD SWAP1 POP DUP1 DUP3 GT ISZERO PUSH2 0x195E JUMPI PUSH2 0x195D PUSH2 0x16B4 JUMP JUMPDEST JUMPDEST SWAP3 SWAP2 POP POP JUMP JUMPDEST PUSH0 PUSH2 0x196E DUP3 PUSH2 0x1111 JUMP JUMPDEST SWAP2 POP PUSH0 DUP3 SUB PUSH2 0x1980 JUMPI PUSH2 0x197F PUSH2 0x16B4 JUMP JUMPDEST JUMPDEST PUSH1 0x1 DUP3 SUB SWAP1 POP SWAP2 SWAP1 POP JUMP JUMPDEST PUSH32 0x537472696E67733A20686578206C656E67746820696E73756666696369656E74 PUSH0 DUP3 ADD MSTORE POP JUMP JUMPDEST PUSH0 PUSH2 0x19BF PUSH1 0x20 DUP4 PUSH2 0x140B JUMP JUMPDEST SWAP2 POP PUSH2 0x19CA DUP3 PUSH2 0x198B JUMP JUMPDEST PUSH1 0x20 DUP3 ADD SWAP1 POP SWAP2 SWAP1 POP JUMP JUMPDEST PUSH0 PUSH1 0x20 DUP3 ADD SWAP1 POP DUP2 DUP2 SUB PUSH0 DUP4 ADD MSTORE PUSH2 0x19EC DUP2 PUSH2 0x19B3 JUMP JUMPDEST SWAP1 POP SWAP2 SWAP1 POP JUMP INVALID LOG2 PUSH5 0x6970667358 0x22 SLT KECCAK256 STATICCALL MSTORE8 0xDB SWAP14 DUP3 0x2C 0xCB 0xC2 0xB9 0xEF PUSH6 0xD96DE285D8B2 SHR 0xB7 DUP12 STOP STATICCALL PUSH4 0xF2DBB9B3 CALLDATALOAD 0xBC PUSH28 0x57A864736F6C63430008140033000000000000000000000000000000 "
				},
				"gasEstimates": {
					"creation": {
						"codeDepositCost": "1339400",
						"executionCost": "infinite",
						"totalCost": "infinite"
					},
					"external": {
						"DEFAULT_ADMIN_ROLE()": "374",
						"RELAYER()": "348",
						"getRoleAdmin(bytes32)": "infinite",
						"grantRole(bytes32,address)": "infinite",
						"hasRole(bytes32,address)": "3144",
						"renounceRole(bytes32,address)": "infinite",
						"revokeRole(bytes32,address)": "infinite",
						"send(address,bytes)": "infinite",
						"sendBatch(address[],bytes[],uint256[])": "infinite",
						"supportsInterface(bytes4)": "718"
					}
				},
				"methodIdentifiers": {
					"DEFAULT_ADMIN_ROLE()": "a217fddf",
					"RELAYER()": "2483e715",
					"getRoleAdmin(bytes32)": "248a9ca3",
					"grantRole(bytes32,address)": "2f2ff15d",
					"hasRole(bytes32,address)": "91d14854",
					"renounceRole(bytes32,address)": "36568abe",
					"revokeRole(bytes32,address)": "d547741f",
					"send(address,bytes)": "c89acc86",
					"sendBatch(address[],bytes[],uint256[])": "910dec13",
					"supportsInterface(bytes4)": "01ffc9a7"
				}
			},
			"storageLayout": {
				"storage": [
					{
						"astId": 24,
						"contract": "contracts/MetaRelayer.sol:MetaRelayer",
						"label": "_roles",
						"offset": 0,
						"slot": "0",
						"type": "t_mapping(t_bytes32,t_struct(RoleData)19_storage)"
					},
					{
						"astId": 1658,
						"contract": "contracts/MetaRelayer.sol:MetaRelayer",
						"label": "_baseFunds",
						"offset": 0,
						"slot": "1",
						"type": "t_uint256"
					}
				],
				"types": {
					"t_address": {
						"encoding": "inplace",
						"label": "address",
						"numberOfBytes": "20"
					},
					"t_bool": {
						"encoding": "inplace",
						"label": "bool",
						"numberOfBytes": "1"
					},
					"t_bytes32": {
						"encoding": "inplace",
						"label": "bytes32",
						"numberOfBytes": "32"
					},
					"t_mapping(t_address,t_bool)": {
						"encoding": "mapping",
						"key": "t_address",
						"label": "mapping(address => bool)",
						"numberOfBytes": "32",
						"value": "t_bool"
					},
					"t_mapping(t_bytes32,t_struct(RoleData)19_storage)": {
						"encoding": "mapping",
						"key": "t_bytes32",
						"label": "mapping(bytes32 => struct AccessControl.RoleData)",
						"numberOfBytes": "32",
						"value": "t_struct(RoleData)19_storage"
					},
					"t_struct(RoleData)19_storage": {
						"encoding": "inplace",
						"label": "struct AccessControl.RoleData",
						"members": [
							{
								"astId": 16,
								"contract": "contracts/MetaRelayer.sol:MetaRelayer",
								"label": "members",
								"offset": 0,
								"slot": "0",
								"type": "t_mapping(t_address,t_bool)"
							},
							{
								"astId": 18,
								"contract": "contracts/MetaRelayer.sol:MetaRelayer",
								"label": "adminRole",
								"offset": 0,
								"slot": "1",
								"type": "t_bytes32"
							}
						],
						"numberOfBytes": "64"
					},
					"t_uint256": {
						"encoding": "inplace",
						"label": "uint256",
						"numberOfBytes": "32"
					}
				}
			},
			"userdoc": {
				"kind": "user",
				"methods": {},
				"version": 1
			}
		}
	}
}